:020000040000FA
:0400000053EF00F0CA
:020006000102F5
:0400080006EF04F00B
:080018007F6603EF04F0F0A085
:100020002DD0F09080A80DD083CFDEFF80A603D026
:100030007E82800E29D88A8681A2FED795688A960C
:10004000110080500F0B04E1010E8C6E956AF3D7FE
:10005000080A04E1020E8C6E956AEDD70C0A04E1E1
:100060007DC08CFF956AE7D7080A04E17CC08CFF4D
:10007000956AE1D74F0E8C6E956ADDD7F2A403D056
:10008000F2947B667B061100C96EC7A0FED78B80F9
:10009000C9508B901200DF38DEBC8F0FDF24DEBC2E
:1000A000F90FCD0F12007F6A7E6A8EEC01F0FE0E12
:1000B000F66EFF0EF76EF86A0900F5507D627E8CD1
:1000C0000900F5507C627E8C7EBC26D0030EAA6EA1
:1000D000FE0EA96EA69EA69CA680A8507D627E8E6E
:1000E000A92AA69EA69CA680A8507C627E8E7EBE73
:1000F00013D07F6800EF04F0030EAA6EFE0EA96E07
:100100007DC0A8FF040EA66EC3D8A92A7CC0A8FF94
:10011000040EA66EBDD8FF0094900F0EC16E8A9695
:100120009396F086F09CF19A8A9E939E8A9C939C6B
:100130009496949A400EC76E210EC66E870ED56EA9
:10014000F194F28A120E7B6ED08E8A8E8A8C856B29
:10015000846B21EE00F0F28CF28E400E95DF7EB2C1
:1001600005D87EBCFCD77B66FAD7C6D77E9221EE37
:1001700000F0DE503A0A37E18EDF806F040F816FA6
:100180008ADF8027812FFCD7806726D021EE01F0FF
:1001900082DF816F80DF836F7EDF826F7CDF866F1F
:1001A000070B88EC01F0F5EF00F064EF01F0EAEFE7
:1001B00000F0EAEF00F05BEF01F0EAEF00F066EF2D
:1001C00001F0EAEF00F040095FDF21EE00F01200DD
:1001D000000EF9D7020EF7D7030EF5D77E84050E71
:1001E000F2D7010EF0D7040EEED77EB4F3D78551C7
:1001F000F1E1845105E033D88451F00A18E0EAD7E0
:100200008251F65C876F8351F75808E38713E6E164
:1002100042DF8107F56E7E8649D801D0F5680D0072
:10022000F6503F0BD8B424D88167EAD7D1D7A6B20D
:10023000FED78451F008876F8351FC0B871185111D
:10024000D0E18351AA6E8251A96E25DF8107A86E85
:10025000040EA66E1DD82AD88167E9D7B9D77EA625
:100260001200F5680D00F6503F0BFCE101D81200BA
:100270007EA60CD07E960A00FF0EF65C070EF7589D
:1002800004E37E8C840EA66E03D80900A66A1200D1
:10029000F29EF29C550EA76EAA0EA76EA682F28C55
:1002A000F28E0000A6B2FED7A6941200E86A822B56
:1002B0008323842312008105E82C95D7ECDE856F1B
:1002C000EADE846F000E7FD7CADFFF0083298BE14F
:1002D000825101E00FD07E8C000EF66E080EF76E94
:1002E000F86A940EA66ED4DF400EF626E86AF7226E
:1002F000F8E16ED7A868AA6AA96A040EA66EC8DFDC
:10030000A6B2FED7A93EF9D7AA2AAA50F6E160D72D
:10031000E844E844FD26000EFE221200000EF66EB0
:10032000080EF76EF86A7C6A7D6A0900F55007D8F6
:10033000F750FF08FAE1F650FE08F7E112007C18CA
:100340007D187D1A7D187C6E7D507D3A7D1A7D3238
:100350007DB0D8707DB2D8707DB4D8707D6E010E3E
:10036000D8B07C1A400E7D32D8B07C1A7D347D1A0C
:0A0370007D32800ED8B07C1A000C1C
:060800007FEF5FF0120023
:06080600E0EF5BF01200C0
:04080C008A8EF09050
:1008100003665DD080501F0B166205D08338070B2E
:100820000F6E106A1F0F63EC04F06CEF04F072EFB0
:1008300004F0E6EF04F096EF04F07EEF04F093EF9F
:1008400004F0A2EF04F09CEF04F06FEF04F08DEFE2
:1008500004F0E6EF04F099EF04F08AEF04F090EF73
:1008600004F0A2EF04F0E6EF04F0E6EF04F0B3EFDB
:1008700004F038EF05F0FDEF04F0CDEF04F0F7EFF2
:1008800004F043EF05F003EF05F0A3EF04F0E6EF0B
:1008900004F0E6EF04F000EF05F00EEF05F0FAEFDC
:1008A00004F043EF05F0E6EF04F014EF05F019EF64
:1008B00005F020EF05F02DEF05F034EF05F034EFF3
:1008C00005F02DEF05F0E844E844FD26120080B85D
:1008D0007DD004C08CFF79D00EC08CFF76D006C0CE
:1008E0008CFF73D0E9CF44F0EACF45F009EE00F079
:1008F00010C0E9FF102AEFCF8CFF63D0E9CF44F09E
:10090000EACF45F00AEE00F015C0E9FF152AEFCF57
:100910008CFF57D013C08CFF58D007C08CFF55D028
:1009200009C08CFF52D008C08CFF4FD00AC08CFF8A
:100930004CD00BC08CFF49D00C44E844E8440D1067
:100940008C6E43D043D08350066EE8B63FD0056628
:1009500006D0510EC96E046E100E076E3DD0500EBB
:10096000C96E046E39D00F50030A30E1E9CF44F06C
:10097000EACF45F009EE00F010C0E9FF83CFEFFFAA
:1009800044C0E9FF45C0EAFF103E20D0820EC96E88
:10099000046E030E016E00841FD0E9CF44F0EACF4D
:1009A00045F00AEE00F015C0E9FF83CFEFFF44C029
:1009B000E9FF45C0EAFF152A1350156207D0400E23
:1009C0005BD044C0E9FF45C0EAFF956A8A8681A2F0
:1009D000FED795688A961100C7A0FED78B808A86BD
:1009E00081A2FED79568C9508B908A96110083CF5B
:1009F00008F0ECD783CF09F0E9D783CF0AF0E6D728
:100A000083CF0BF0E3D78344E838030B0C6E83509D
:100A1000070B0D6E500EC96E046EDED7146A83503C
:100A2000136ED4E1142AD2D7500EC96E046E0A6A2E
:100A3000D3D7820EC96E046E020E016E0084CCD72D
:100A40008350040B04E1580EC96E046EC5D7510ED5
:100A5000C96E046E040E076EBFD7820EC96E046E97
:100A6000010E016E0084B8D7500EC96E046EB4D763
:100A700083CF11F0156A800E1110016E820EC96EBF
:080A8000046E0084A9D7A2D77F
:080A880001005CBF0000F10059
:060A90000000010000005F
:0A0A9600D9CFE6FFDACFE6FFE1CF8B
:100AA000D9FFE2CFDAFFE652E652E652E652FC0EFA
:100AB000DBCFDEFFDBCFDDFFFA0EDBCF38F0FB0E46
:100AC000DBCF39F0020E38C0DBFF030E39C0DBFF8D
:100AD000F80EDBCF18F0F90EDBCF19F0020E185C20
:100AE000000E19582BE3020EDBCFE9FF030EDBCF1C
:100AF000EAFFEECF18F0EFCF19F0DECFE9FFDDCF40
:100B0000EAFF18C0EEFF19C0EDFF020EDE26000E50
:100B1000DD22D950020FE96E000EDA20EA6E020ED5
:100B2000EE26000EED22D950F80FE96EFF0EDA2006
:100B3000EA6E020EEE5E000EED5ACAD7F80EDBCF5B
:100B400018F0DB06F90EDBCF19F001E2DB061850D6
:100B5000191017E0020EDBCFE9FFDB2A030EDBCF13
:100B6000EAFF01E3DB2AEF50E66EDFCFE9FFDF2A81
:100B7000010EDBCFEAFF01E3DB2AE552E750EF6E1F
:100B8000DDD7040EE15C02E2E16AE552E16EE55276
:100B9000E5CFDAFFE7CFD9FF1200D9CFE6FFDACFF2
:100BA000E6FFE1CFD9FFE2CFDAFFE652E652FC0ED4
:100BB000DBCFDEFFDBCFDDFFF80EDBCF18F0DB068F
:100BC000F90EDBCF19F001E2DB06185019100CE02A
:100BD000DFCFE9FFDF2A010EDBCFEAFF01E3DB2AEB
:100BE000FA0EDBCFEFFFE8D7E552E552E552E5CF4D
:100BF000DAFFE7CFD9FF1200D9CFE6FFDACFE6FF61
:100C0000E1CFD9FFE2CFDAFF060EE12402E3E1688B
:100C1000E652E16EFC0EDBCFDEFFDBCFDDFFFA0E2E
:100C2000DBCF38F0FB0EDBCF39F0020E38C0DBFF34
:100C3000030E39C0DBFF040EDB6A050EDB6AF80E1B
:100C4000DBCF18F0DB06F90EDBCF19F001E2DB0693
:100C50001850191020E0DFCFE9FFDF2A010EDBCFAB
:100C6000EAFF01E3DB2AEFCF1CF0020EDBCFE9FF46
:100C7000DB2A030EDBCFEAFF01E3DB2AEF501C5C2B
:100C80001A6E1B6A040E1AC0DBFF050E1BC0DBFFC9
:100C90001A501B10D4E0040EDBCF18F0050EDBCF8A
:100CA00019F018C0F3FF19C0F4FF060EE15C02E270
:100CB000E16AE552E16EE552E5CFDAFFE7CFD9FF11
:100CC0001200D9CFE6FFDACFE6FFE1CFD9FFE2CFBE
:100CD000DAFFFC0EDBCFF6FFFD0EDBCFF7FF0800DF
:100CE000F5501AE0FC0EDBCFF6FFFD0EDBCFF7FF71
:100CF0000800F5CF18F0196A18BE1968FA0EDB5013
:100D0000181803E1FB0EDB50191806E0FC0EDB2A75
:100D1000FD0EDFE3DB2ADDD7FC0EDBCFF6FFFD0E99
:100D2000DBCFF7FF0800F5CF18F0196A18BE196875
:100D300018C0F3FF19C0F4FFE552E5CFDAFFE7CFA3
:100D4000D9FF1200D9CFE6FFDACFE6FFE1CFD9FF16
:100D5000E2CFDAFF060EE12402E3E168E652E16E3B
:100D6000FC0EDBCFE9FFFD0EDBCFEAFF040EE92628
:100D7000000EEA22EF5001E11ED1FC0EDBCFE9FFAD
:100D8000FD0EDBCFEAFF2E0EE926000EEA22EECFA3
:100D9000DFFF010EEECFDBFF020EEECFDBFF030E17
:100DA000EECFDBFF010EE66ED9CFE9FFDACFEAFF27
:100DB000EECFE6FFEECFE6FFEECFE6FFEFCFE6FFAA
:100DC000FC0EDBCFE9FFFD0EDBCFEAFF320EE9269A
:100DD000000EEA22E9CF18F0EACF19F0E9CFE6FFDA
:100DE000EACFE6FFFC0EDBCFE9FFFD0EDBCFEAFF2B
:100DF000EE52EF50E66E51EC4EF01A6E080EE15CCA
:100E000002E2E16AE552E16E1A50000902E0010EC9
:100E1000D3D0FC0EDBCFE9FFFD0EDBCFEAFF040EE3
:100E2000E926000EEA22EF6AFC0EDBCFE9FFFD0E99
:100E3000DBCFEAFF220EE926000EEA22EECF18F001
:100E4000EECF19F0EECF1AF0EFCF1BF0D9CFE9FFBC
:100E5000DACFEAFF1850EE5C1950EE581A50EE58EF
:100E60001B50EE5801E2A7D0FC0EDBCFE9FFFD0ED0
:100E7000DBCFEAFF1A0EE926000EEA22EECF1CF0C5
:100E8000EECF1DF0EECF1EF0EFCF1FF0FC0EDBCF4C
:100E9000E9FFFD0EDBCFEAFF220EE926000EEA2273
:100EA000EE501C26EE501D22EE501E22EE501F2248
:100EB000D9CFE9FFDACFEAFF1C50EE5C1D50EE58A7
:100EC0001E50EE581F50EE5876E2FC0EDBCFE9FFC5
:100ED000FD0EDBCFEAFF030EE926000EEA22EF50FB
:100EE000E66ED950040FE96E000EDA20EA6EE55284
:100EF000E750EE6EED6A040EDBCF18F0050EDBCF87
:100F000019F0020E185C000E195855E3FC0EDBCFE9
:100F1000E9FFFD0EDBCFEAFF1A0EE926000EEA22FA
:100F2000EECF18F0EECF19F0EECF1AF0EFCF1BF0A6
:100F30001850DE261950DE221A50DE221B50DD2208
:100F4000DD52DD52010EE66ED9CFE9FFDACFEAFFBE
:100F5000EECFE6FFEECFE6FFEECFE6FFEFCFE6FF08
:100F6000FC0EDBCFE9FFFD0EDBCFEAFF320EE926F8
:100F7000000EEA22E9CF18F0EACF19F0E9CFE6FF38
:100F8000EACFE6FFFC0EDBCFE9FFFD0EDBCFEAFF89
:100F9000EE52EF50E66E51EC4EF01A6E080EE15C28
:100FA00002E2E16AE552E16E1A50040EDB06050E1C
:100FB000A2E2DB06A0D7000E186E060EE15C02E28C
:100FC000E16AE552E16E1850E552E5CFDAFFE7CF6E
:100FD000D9FF1200D9CFE6FFDACFE6FFE1CFD9FF84
:100FE000E2CFDAFFF80EDBCF18F0F90EDBCF19F005
:100FF000FA0EDBCF1AF0FB0EDBCF1BF0FC0EDBCFC3
:10100000E9FFFD0EDBCFEAFF2E0EE926000EEA22F5
:101010001850EE1808E11950EE1805E11A50EE18B4
:1010200002E11B50EE185AE0FC0EDBCFE6FFFD0E8E
:10103000DBCFE6FF87DEE552E552000937E1010E1E
:10104000E66ED950F80FE96EFF0EDA20EA6EEECFA9
:10105000E6FFEECFE6FFEECFE6FFEFCFE6FFFC0EBA
:10106000DBCFE9FFFD0EDBCFEAFF320EE926000EF3
:10107000EA22E9CF18F0EACF19F0E9CFE6FFEACF8C
:10108000E6FFFC0EDBCFE9FFFD0EDBCFEAFFEE5201
:10109000EF50E66EECEC4DF01A6E080EE15C02E2E9
:1010A000E16AE552E16E1A50000902E0010E17D024
:1010B000FC0EDBCFE9FFFD0EDBCFEAFF2E0EE926AB
:1010C000000EEA22F80EDBCFEEFFF90EDBCFEEFFCB
:1010D000FA0EDBCFEEFFFB0EDBCFEEFF000EE5528C
:1010E000E5CFDAFFE7CFD9FF1200D9CFE6FFDACF9D
:1010F000E6FFE1CFD9FFE2CFDAFFE652FC0EDBCF0D
:10110000E6FFFD0EDBCFE6FF1DDEE552E552DF6EAA
:10111000DF5001E028D1FC0EDBCFE9FFFD0EDBCF75
:10112000EAFFEF50030801E007D1FC0EDBCFE9FF37
:10113000FD0EDBCFEAFF050EE926000EEA22EF5096
:1011400001E1FAD0FC0EDBCFE9FFFD0EDBCFEAFFB9
:101150002E0EE926000EEA22EE6AEE6AEE6AEE6ACA
:10116000E66A020EE66E000EE66EE66AFC0EDBCF65
:10117000E9FFFD0EDBCFEAFF320EE926000EEA2280
:10118000E9CF18F0EACF19F0E9CFE6FFEACFE6FFA2
:1011900004DD1A6E060EE15C02E2E16AE552E16EE0
:1011A0001A50FC0EDBCFE9FFFD0EDBCFEAFF320E5B
:1011B000E926000EEA22FE0EE926010EEA22550E6D
:1011C000EE6EAA0EED6EFC0EDBCFE9FFFD0EDBCF5F
:1011D000EAFF320EE926000EEA22520EEE6EEE6EA5
:1011E000610EEE6E410EEE6EFC0EDBCFE9FFFD0EE2
:1011F000DBCFEAFF320EE926000EEA22E40EE926F2
:10120000010EEA22720EEE6EEE6E410EEE6E610E71
:10121000EE6EFC0EDBCFE9FFFD0EDBCFEAFF0E0E1C
:10122000E926000EEA22EECF18F0EECF19F0EECF4D
:101230001AF0EFCF1BF0FC0EDBCFE9FFFD0EDBCF8A
:10124000EAFF320EE926000EEA22E80EE926010E38
:10125000EA2218C0EEFF19C0EEFF1AC0EEFF1BC055
:10126000EEFFFC0EDBCFE9FFFD0EDBCFEAFF0A0E3F
:10127000E926000EEA22EECF18F0EECF19F0EECFFD
:101280001AF0EFCF1BF0FC0EDBCFE9FFFD0EDBCF3A
:10129000EAFF320EE926000EEA22EC0EE926010EE4
:1012A000EA2218C0EEFF19C0EEFF1AC0EEFF1BC005
:1012B000EEFFE66EFC0EDBCFE9FFFD0EDBCFEAFFB3
:1012C000120EE926000EEA22EECFE6FFEECFE6FF91
:1012D000EECFE6FFEFCFE6FFFC0EDBCFE9FFFD0E22
:1012E000DBCFEAFF320EE926000EEA22E9CF18F042
:1012F000EACF19F0E9CFE6FFEACFE6FFFC0EDBCF3D
:10130000E9FFFD0EDBCFEAFFEE52EF50E66E51EC47
:101310004EF01A6E080EE15C02E2E16AE552E16EFF
:101320001A50FC0EDBCFE9FFFD0EDBCFEAFF050E06
:10133000E926000EEA22EF6A000EE66EE66AE66A29
:10134000FC0EDBCFE9FFFD0EDBCFEAFFEE52EF50E4
:10135000E66EB8EC4EF0E552E552E552E552000972
:1013600002E0010EDF6EDF50E552E552E5CFDAFF15
:10137000E7CFD9FF1200D9CFE6FFDACFE6FFE1CF02
:10138000D9FFE2CFDAFFE150F80FE96EFF0EE2205D
:10139000EA6E020EEE5E000EEE5AEE5AEE5AFC0EA9
:1013A000DBCFE9FFFD0EDBCFEAFF160EE926000ECC
:1013B000EA22EECF18F0EECF19F0EECF1AF0EFCF11
:1013C0001BF0020E185E000E195A1A5A1B5AD950F9
:1013D000F80FE96EFF0EDA20EA6E1850EE5C195035
:1013E000EE581A50EE581B50EE5805E3366A376A2D
:1013F000386A396A4AD0FC0EDBCFE9FFFD0EDBCF3D
:10140000EAFF2A0EE926000EEA22EECF20F0EECF08
:1014100021F0EECF22F0EFCF23F0FC0EDBCFE9FF7F
:10142000FD0EDBCFEAFF020EE926000EEA22EFCF27
:101430001CF01D6A1E6A1F6A1CC036F01DC037F002
:101440001EC038F01FC039F0F80EDBCF3BF0F90EAC
:10145000DBCF3CF0FA0EDBCF3DF0FB0EDBCF3EF0F6
:10146000B4EC5EF032502024186E33502120196EF7
:10147000345022201A6E355023201B6E18C036F0CF
:1014800019C037F01AC038F0396EE552E5CFDAFFEF
:10149000E7CFD9FF1200D9CFE6FFDACFE6FFE1CFE1
:1014A000D9FFE2CFDAFF060EE12402E3E168E6525B
:1014B000E16ED950F80FE96EFF0EDA20EA6E020EE7
:1014C000EE5C000EEE58000EEE58000EEE581FE3D4
:1014D000F80EDBCF18F0F90EDBCF19F0FA0EDBCFE8
:1014E0001AF0FB0EDBCF1BF0FC0EDBCFE9FFFD0E8D
:1014F000DBCFEAFF160EE926000EEA22EE50185C5A
:10150000EE501958EE501A58EE501B5806E3010ED3
:10151000366E376A386A396A29D2FC0EDBCFE9FFAA
:10152000FD0EDBCFEAFFEF50030A01E18AD1010A89
:1015300001E108D1030A01E015D2F80EDBCF38F043
:10154000F90EDBCF39F0020E38C0DBFF030E39C0D5
:10155000DBFF020EDBCF18F0030EDBCF19F0010E1C
:101560000F0B05E0D89019321832E806FBE1D9508C
:10157000020FE96E000EDA20EA6E1850EE261950BE
:10158000ED22020EDBCF18F0030EDBCF19F0090EAF
:101590000F0B05E0D89019321832E806FBE11A6A01
:1015A0001B6AFC0EDBCFE9FFFD0EDBCFEAFF220E4C
:1015B000E926000EEA22EE501826EE501922EE50CF
:1015C0001A22EE501B2218C0E6FF19C0E6FF1AC00F
:1015D000E6FF1BC0E6FFFC0EDBCFE6FFFD0EDBCF18
:1015E000E6FFF8DC1C6E060EE15C02E2E16AE55201
:1015F000E16E1C50000901E0B5D1FC0EDBCFE9FF24
:10160000FD0EDBCFEAFF320EE926000EEA22020EC3
:10161000DBCF1AF0030EDBCF1BF00001010E1B160F
:10162000E9501A24E96EEA501B20EA6EEF50DE6E94
:10163000DD6A020EDB2A030E01E3DB2A020EDBCF9A
:1016400018F0030EDBCF19F0090E0F0B05E0D89050
:1016500019321832E806FBE11A6A1B6AFC0EDBCF6E
:10166000E9FFFD0EDBCFEAFF220EE926000EEA229B
:10167000EE501826EE501922EE501A22EE501B2280
:1016800018C0E6FF19C0E6FF1AC0E6FF1BC0E6FF60
:10169000FC0EDBCFE6FFFD0EDBCFE6FF9BDC1C6E16
:1016A000060EE15C02E2E16AE552E16E1C500009BF
:1016B00001E058D1FC0EDBCFE9FFFD0EDBCFEAFFE6
:1016C000320EE926000EEA22020EDBCF1AF0030EDC
:1016D000DBCF1BF0010E1B16E9501A24E96EEA500D
:1016E0001B20EA6EEF50000EF350DF12010E1C6E4D
:1016F0001D6A1E6A1F6AD950F80FE96EFF0EDA20C4
:10170000EA6EEE501C16EE501D16EE501E16EE50F0
:101710001F161C501D101E101F100BE0DECF18F0FE
:10172000DDCF19F0040ED89019321832E804FBE12D
:1017300085D0DECF18F0DDCF19F0FF0E18160F0E92
:1017400019167CD0F80EDBCF18F0F90EDBCF19F0AC
:10175000FA0EDBCF1AF0FB0EDBCF1BF0080ED89091
:101760001B321A3219321832E806F9E1FC0EDBCFCF
:10177000E9FFFD0EDBCFEAFF220EE926000EEA228A
:10178000EE501826EE501922EE501A22EE501B226F
:1017900018C0E6FF19C0E6FF1AC0E6FF1BC0E6FF4F
:1017A000FC0EDBCFE6FFFD0EDBCFE6FF13DC1C6E8D
:1017B000060EE15C02E2E16AE552E16E1C500009AE
:1017C00001E0D0D0FC0EDBCFE9FFFD0EDBCFEAFF5E
:1017D000320EE926000EEA22E9CF1AF0EACF1BF01A
:1017E000F80EDBCF36F0F90EDBCF37F0FA0EDBCF99
:1017F00038F0FB0EDBCF39F0D89036363736383636
:1018000039363B6A020E3C6E3D6A3E6AECEC5EF095
:101810001A503224186E1B503320196E040E18C053
:10182000DBFF050E19C0DBFF040EDBCFE9FF050E61
:10183000DBCFEAFFEECF18F0EFCF19F01A6A1B6A80
:1018400088D0F80EDBCF18F0F90EDBCF19F0FA0EC6
:10185000DBCF1AF0FB0EDBCF1BF0070ED8901B324C
:101860001A3219321832E806F9E1FC0EDBCFE9FF33
:10187000FD0EDBCFEAFF220EE926000EEA22EE5033
:101880001826EE501922EE501A22EE501B2218C0D4
:10189000E6FF19C0E6FF1AC0E6FF1BC0E6FFFC0E1C
:1018A000DBCFE6FFFD0EDBCFE6FFEAEC07F01C6EB8
:1018B000060EE15C02E2E16AE552E16E1C500009AD
:1018C00051E1FC0EDBCFE9FFFD0EDBCFEAFF320E6C
:1018D000E926000EEA22E9CF1AF0EACF1BF0F80E53
:1018E000DBCF36F0F90EDBCF37F0FA0EDBCF38F076
:1018F000FB0EDBCF39F0020ED8903636373638364D
:101900003936E806F9E13B6A020E3C6E3D6A3E6AF2
:10191000ECEC5EF01A503224186E1B503320196E16
:10192000040E18C0DBFF050E19C0DBFF186819682C
:101930001A680F0E1B6E040EDBCFE9FF050EDBCF1E
:10194000EAFFEE501816EE501916EE501A16EE5029
:101950001B1618C036F019C037F01AC038F01BC07B
:1019600039F004D03668376838683968060EE15CAB
:1019700002E2E16AE552E16EE552E5CFDAFFE7CF38
:10198000D9FF1200D9CFE6FFDACFE6FFE1CFD9FFCA
:10199000E2CFDAFFE652E652E652E652E652D9507C
:1019A000F80FE96EFF0EDA20EA6E020EEE5C000E12
:1019B000EE58000EEE58000EEE581FE3F80EDBCF87
:1019C00018F0F90EDBCF19F0FA0EDBCF1AF0FB0E90
:1019D000DBCF1BF0FC0EDBCFE9FFFD0EDBCFEAFF18
:1019E000160EE926000EEA22EE50185CEE50195849
:1019F000EE501A58EE501B5806E3020EF36E040E1A
:101A0000F3CFDBFFBDD2FC0EDBCFE9FFFD0EDBCF5A
:101A1000EAFFEF50030A01E1F5D1010A01E16ED1BD
:101A2000030A01E09CD2F80EDBCFDEFFDBCFDDFF47
:101A3000DECF18F0DDCF19F0010E0F0B05E0D890C6
:101A400019321832E806FBE1D9CFE9FFDACFEAFF15
:101A50001850EE261950ED22DECF18F0DDCF19F028
:101A6000090E0F0B05E0D89019321832E806FBE199
:101A70001A6A1B6AFC0EDBCFE9FFFD0EDBCFEAFF23
:101A8000220EE926000EEA22EE501826EE50192208
:101A9000EE501A22EE501B2218C0E6FF19C0E6FFD6
:101AA0001AC0E6FF1BC0E6FFFC0EDBCFE6FFFD0E13
:101AB000DBCFE6FFEAEC07F01C6E060EE15C02E20B
:101AC000E16AE552E16E1C50E76E040EE7CFDBFFE2
:101AD000DB5001E049D2FC0EDBCFE9FFFD0EDBCF8E
:101AE000EAFF320EE926000EEA22DECF1CF0DDCF3F
:101AF0001DF00001010E1D16E9501C24186EEA505D
:101B00001D20196E020E18C0DBFF030E19C0DBFF8B
:101B1000010E186E196A1A6A1B6AD950F80FE96E1D
:101B2000FF0EDA20EA6EEE501816EE501916EE503F
:101B30001A16EE501B16185019101A101B100EE032
:101B4000F40EDB38F00B1C6E020EDBCFE9FF030E48
:101B5000DBCFEAFFEF500F0B1C1002D0F40EDB506E
:101B6000E66E020EDBCFE9FF030EDBCFEAFFE552A4
:101B7000E750EF6EDF2A010E01E3DB2AFC0EDBCF1C
:101B8000E9FFFD0EDBCFEAFF040EE926000EEA2294
:101B9000010EEF6EDECF18F0DDCF19F0090E0F0B3E
:101BA00005E0D89019321832E806FBE11A6A1B6A80
:101BB000FC0EDBCFE9FFFD0EDBCFEAFF220EE926AC
:101BC000000EEA22EE501826EE501922EE501A228C
:101BD000EE501B2218C0E6FF19C0E6FF1AC0E6FF50
:101BE0001BC0E6FFFC0EDBCFE6FFFD0EDBCFE6FF02
:101BF000EAEC07F01C6E060EE15C02E2E16AE552D7
:101C0000E16E1C50E76E040EE7CFDBFFDB5001E016
:101C1000ABD1FC0EDBCFE9FFFD0EDBCFEAFF320ECE
:101C2000E926000EEA22DECF1CF0DDCF1DF0010E0A
:101C30001D16E9501C24186EEA501D20196E020E64
:101C400018C0DBFF030E19C0DBFF010E186E196A06
:101C50001A6A1B6AD950F80FE96EFF0EDA20EA6E95
:101C6000EE501816EE501916EE501A16EE501B16BE
:101C7000185019101A101B1016E0F40EDBCF1CF0D0
:101C8000F50EDBCF1DF0F60EDBCF1EF0F70EDBCF2F
:101C90001FF0040ED8901F321E321D321C32E8068F
:101CA000F9E11C5020D0F40EDBCF21F0F50EDBCF94
:101CB00022F0F60EDBCF23F0F70EDBCF24F0080E78
:101CC000D8902432233222322132E806F9E10F0E75
:101CD0002114206E020EDBCFE9FF030EDBCFEAFFFB
:101CE000EF50F00B2010E66E020EDBCFE9FF030E83
:101CF000DBCFEAFFE552E750EF6E36D1F80EDBCFCF
:101D000018F0F90EDBCF19F0FA0EDBCF1AF0FB0E4C
:101D1000DBCF1BF0080ED8901B321A321932183262
:101D2000E806F9E1FC0EDBCFE9FFFD0EDBCFEAFFB1
:101D3000220EE926000EEA22EE501826EE50192255
:101D4000EE501A22EE501B2218C0E6FF19C0E6FF23
:101D50001AC0E6FF1BC0E6FFFC0EDBCFE6FFFD0E60
:101D6000DBCFE6FFEAEC07F01C6E060EE15C02E258
:101D7000E16AE552E16E1C50E76E040EE7CFDBFF2F
:101D8000DB5001E0F1D0FC0EDBCFE9FFFD0EDBCF35
:101D9000EAFF320EE926000EEA22E9CF1AF0EACF76
:101DA0001BF0F80EDBCF36F0F90EDBCF37F0FA0E72
:101DB000DBCF38F0FB0EDBCF39F0D8903636373634
:101DC000383639363B6A020E3C6E3D6A3E6AECECB0
:101DD0005EF01A503224186E1B503320196E020E1A
:101DE00018C0DBFF030E19C0DBFF020EDBCFE9FFDB
:101DF000030EDBCFEAFFF40EDBCFEEFFF50EDBCFF9
:101E0000EDFFB2D0F80EDBCF18F0F90EDBCF19F0F2
:101E1000FA0EDBCF1AF0FB0EDBCF1BF0070ED890CB
:101E20001B321A3219321832E806F9E1FC0EDBCF08
:101E3000E9FFFD0EDBCFEAFF220EE926000EEA22C3
:101E4000EE501826EE501922EE501A22EE501B22A8
:101E500018C0E6FF19C0E6FF1AC0E6FF1BC0E6FF88
:101E6000FC0EDBCFE6FFFD0EDBCFE6FFEAEC07F072
:101E70001C6E060EE15C02E2E16AE552E16E1C5066
:101E8000E76E040EE7CFDBFFDB506EE1FC0EDBCF2D
:101E9000E9FFFD0EDBCFEAFF320EE926000EEA2253
:101EA000E9CF1AF0EACF1BF0F80EDBCF36F0F90ECF
:101EB000DBCF37F0FA0EDBCF38F0FB0EDBCF39F09B
:101EC000020ED8903636373638363936E806F9E11C
:101ED0003B6A020E3C6E3D6A3E6AECEC5EF01A50C4
:101EE0003224186E1B503320196E020E18C0DBFF0F
:101EF000030E19C0DBFF186A196A1A6AF00E1B6E0E
:101F0000020EDBCFE9FF030EDBCFEAFFEE5018161F
:101F1000EE501916EE501A16EE501B16D950F40F4B
:101F2000E96EFF0EDA20EA6E1850EE121950EE122A
:101F30001A50EE121B50EE12020EDBCFE9FF030E19
:101F4000DBCFEAFFF40EDBCFEEFFF50EDBCFEEFFCB
:101F5000F60EDBCFEEFFF70EDBCFEEFF05D0020E65
:101F6000F36E040EF3CFDBFFFC0EDBCFE9FFFD0EBB
:101F7000DBCFEAFF040EE926000EEA22010EEF6E27
:101F8000040EDB50186E050EE15C02E2E16AE552D8
:101F9000E16E1850E552E5CFDAFFE7CFD9FF120026
:101FA000D9CFE6FFDACFE6FFE1CFD9FFE2CFDAFF04
:101FB000E652E652E652E652E652D950F80FE96E82
:101FC000FF0EDA20EA6E020EEE5C000EEE58000EF6
:101FD000EE58000EEE5801E28BD0F80EDBCF18F071
:101FE000F90EDBCF19F0FA0EDBCF1AF0FB0EDBCFC8
:101FF0001BF0FC0EDBCFE9FFFD0EDBCFEAFF160E78
:10200000E926000EEA22EE50185CEE501958EE5008
:102010001A58EE501B586CE2DF6AF80EDBCF18F04E
:10202000F90EDBCF19F0FA0EDBCF1AF0FB0EDBCF87
:102030001BF0FC0EDBCFE9FFFD0EDBCFEAFF160E37
:10204000E926000EEA22EE50185CEE501958EE50C8
:102050001A58EE501B5801E3C9D0D950F80FE96E59
:10206000FF0EDA20EA6EEECFE6FFEECFE6FFEECF10
:10207000E6FFEFCFE6FFFC0EDBCFE6FFFD0EDBCF8A
:10208000E6FF4BEC0AF0186E060EE15C02E2E16A34
:10209000E552E16E1850010E36C0DBFF020E37C06C
:1020A000DBFF030E38C0DBFF040E39C0DBFF010E7F
:1020B000DBCF18F0020EDBCF19F0030EDBCF1AF0E6
:1020C000040EDBCF1BF0185019101A101B1001E181
:1020D0008DD0D950010FE96E000EDA20EA6E010EA4
:1020E000EE1808E1EE5006E1EE5004E1EE5002E198
:1020F000020E13D0D950010FE96E000EDA20EA6EFD
:10210000E868EE180CE1E868EE1809E1E868EE18F6
:1021100006E1E868EE1803E1010EDF6E67D0E66ABB
:10212000E66AE66AE66AD950F80FE96EFF0EDA2031
:10213000EA6EEECFE6FFEECFE6FFEECFE6FFEFCFA3
:10214000E6FFFC0EDBCFE6FFFD0EDBCFE6FF1ADC81
:10215000186E0A0EE15C02E2E16AE552E16E185087
:10216000DF6EDF5043E1FC0EDBCFE9FFFD0EDBCF7E
:10217000EAFF0E0EE926000EEA22E868EE1808E1F2
:10218000E868EE1805E1E868EE1802E1E868EE1884
:102190001AE0FC0EDBCFE9FFFD0EDBCFEAFF0E0EEF
:1021A000E926000EEA22EE2AEE22EE22EE22FC0EB4
:1021B000DBCFE9FFFD0EDBCFEAFF050EE926000EBF
:1021C000EA22010EEF6ED950010FE96E000EDA20FF
:1021D000EA6EF80EEECFDBFFF90EEECFDBFFFA0E64
:1021E000EECFDBFFFB0EEECFDBFF17D7DF50186E15
:1021F000050EE15C02E2E16AE552E16E1850E5523B
:10220000E5CFDAFFE7CFD9FF1200D9CFE6FFDACF6B
:10221000E6FFE1CFD9FFE2CFDAFF0D0EE12402E3C2
:10222000E168E652E16EF80EDBCF18F0F90EDBCF75
:1022300019F0FA0EDBCF1AF0FB0EDBCF1BF01850B3
:1022400019101A101B1053E1FC0EDBCFE9FFFD0E35
:10225000DBCFEAFF0A0EE926000EEA22080EEECFD7
:10226000DBFF090EEECFDBFF0A0EEECFDBFF0B0E1E
:10227000EECFDBFF080EDBCF18F0090EDBCF19F035
:102280000A0EDBCF1AF00B0EDBCF1BF01850191023
:102290001A101B1020E0080EDBCF1CF0090EDBCF5C
:1022A0001DF00A0EDBCF1EF00B0EDBCF1FF0FC0E75
:1022B000DBCFE9FFFD0EDBCFEAFF160EE926000EAD
:1022C000EA22EE501C5CEE501D58EE501E58EE50A7
:1022D0001F5801E276D0010EF36E080EF3CFDBFF3C
:1022E000090EDB6A0A0EDB6A0B0EDB6A6AD0D95074
:1022F000F80FE96EFF0EDA20EA6EEECFE6FFEECFC2
:10230000E6FFEECFE6FFEFCFE6FFFC0EDBCFE6FF0A
:10231000FD0EDBCFE6FF4BEC0AF0186E060EE15C1B
:1023200002E2E16AE552E16E185036C0DEFF37C0C6
:10233000DEFF38C0DEFF39C0DDFFDD52DD52D9CF10
:10234000E9FFDACFEAFF020EEE5C000EEE58000E57
:10235000EE58000EEE5803E2010E366E3CD1FC0E34
:10236000DBCFE9FFFD0EDBCFEAFF160EE926000EFC
:10237000EA22EECF18F0EECF19F0EECF1AF0EFCF41
:102380001BF0D9CFE9FFDACFEAFF1850EE5C195005
:10239000EE581A50EE581B50EE5801E2ECD0D950CE
:1023A000F80FE96EFF0EDA20EA6E080EEECFDBFFC3
:1023B000090EEECFDBFF0A0EEECFDBFF0B0EEECFEA
:1023C000DBFFD950080FE96E000EDA20EA6E040E2A
:1023D000EECFDBFF050EEECFDBFF060EEECFDBFF11
:1023E000070EEECFDBFFD950040FE96E000EDA20A6
:1023F000EA6EEE2A000EEE22EE22EE22040EDBCF73
:1024000018F0050EDBCF19F0060EDBCF1AF0070E21
:10241000DBCF1BF0FC0EDBCFE9FFFD0EDBCFEAFFCD
:10242000160EE926000EEA22EE50185CEE501958FE
:10243000EE501A58EE501B5828E3020EF36E040EAD
:10244000F3CFDBFF050EDB6A060EDB6A070EDB6AE5
:10245000080EDBCF18F0090EDBCF19F00A0EDBCF28
:102460001AF00B0EDBCF1BF0D950040FE96E000EF3
:10247000DA20EA6EEE50185CEE501958EE501A58F9
:10248000EE501B5802E2366AA6D0D950040FE96E0E
:10249000000EDA20EA6EEECFE6FFEECFE6FFEECFDB
:1024A000E6FFEFCFE6FFFC0EDBCFE6FFFD0EDBCF56
:1024B000E6FF4BEC0AF0186E060EE15C02E2E16A00
:1024C000E552E16E185036C0DEFF37C0DEFF38C07F
:1024D000DEFF39C0DDFFDD52DD52D9CFE9FFDACFB3
:1024E000EAFFEECF18F0EECF19F0EECF1AF0EFCFF3
:1024F0001BF0185019101A101B1020E1E668E6684E
:10250000E6680F0EE66ED950040FE96E000EDA2071
:10251000EA6EEECFE6FFEECFE6FFEECFE6FFEFCFBF
:10252000E6FFFC0EDBCFE6FFFD0EDBCFE6FFC2ECE5
:102530000CF0186E0A0EE15C54E251D0D9CFE9FFDD
:10254000DACFEAFFE868EE1808E1E868EE1805E17E
:10255000E868EE1802E1E868EE180DE0D9CFE9FF6F
:10256000DACFEAFF010EEE1811E1EE500FE1EE5066
:102570000DE1EE500BE1DECF36F0DECF37F0DECFEF
:1025800038F0DDCF39F0DD52DD52EBD0040EDBCF79
:1025900018F0050EDBCF19F0060EDBCF1AF0070E90
:1025A000DBCF1BF0D950080FE96E000EDA20EA6E7F
:1025B0001850EE1801E017D71950EE1801E013D7A4
:1025C0001A50EE1801E00FD71B50EE1801E00BD7A0
:1025D00001E009D7366A376A386A396AC2D0E16AD7
:1025E000E552E16E1850E76E0C0EE7CFDBFFDB50D3
:1025F00041E1F80EDBCF18F0F90EDBCF19F0FA0E3F
:10260000DBCF1AF0FB0EDBCF1BF0185019101A109D
:102610001B1030E0D950040FE96E000EDA20EA6E8C
:10262000EECFE6FFEECFE6FFEECFE6FFEFCFE6FF21
:10263000D950F80FE96EFF0EDA20EA6EEECFE6FF12
:10264000EECFE6FFEECFE6FFEFCFE6FFFC0EDBCFEF
:10265000E6FFFD0EDBCFE6FFC2EC0CF0186E0A0EB3
:10266000E15C02E2E16AE552E16E1850E76E0C0EA1
:10267000E7CFDBFF0C0EDB5047E1FC0EDBCFE9FFC1
:10268000FD0EDBCFEAFF0A0EE926000EEA22040E59
:10269000DBCFEEFF050EDBCFEEFF060EDBCFEEFF4E
:1026A000070EDBCFEEFFFC0EDBCFE9FFFD0EDBCF2D
:1026B000EAFF0E0EE926000EEA22E868EE1808E1AD
:1026C000E868EE1805E1E868EE1802E1E868EE183F
:1026D00034E0FC0EDBCFE9FFFD0EDBCFEAFF0E0E90
:1026E000E926000EEA22EE06EE5AEE5AEE5AFC0EEB
:1026F000DBCFE9FFFD0EDBCFEAFF050EE926000E7A
:10270000EA22010EEF6E19D00C0EDB0405E1186809
:1027100019681A681B6805D0010E186E196A1A6AC2
:102720001B6A040E18C0DBFF050E19C0DBFF060E86
:102730001AC0DBFF070E1BC0DBFF040EDBCF18F057
:10274000050EDBCF19F0060EDBCF1AF0070EDBCF3C
:102750001BF018C036F019C037F01AC038F01BC093
:1027600039F00D0EE15C02E2E16AE552E16EE552FC
:10277000E5CFDAFFE7CFD9FF1200D9CFE6FFDACFF6
:10278000E6FFE1CFD9FFE2CFDAFF0A0EE12402E350
:10279000E168E652E16EFC0EDBCFE9FFFD0EDBCF18
:1027A000EAFF200EE926000EEA22EECF18F0EFCF66
:1027B00019F0040E1826000E1922080E18C0DBFFAF
:1027C000090E19C0DBFFFC0EDBCFE9FFFD0EDBCFEE
:1027D000EAFFEE50EFCFEAFFE96E020EE926000EA7
:1027E000EA22EFCF18F0196A1A6A1B6AF80EDBCFDB
:1027F00036F0F90EDBCF37F0FA0EDBCF38F0FB0EF8
:10280000DBCF39F03B6A020E3C6E3D6A3E6AECEC6F
:102810005EF018C03BF019C03CF01AC03DF01BC080
:102820003EF0ECEC5EF036C0DEFF37C0DEFF38C0B5
:10283000DEFF39C0DDFFDD52DD52D950080FE96EF1
:10284000000EDA20EA6EEECFF3FFEDCFF4FF040EB8
:10285000EE26000EEF22F3CFE9FFF4CFEAFF040EDD
:10286000EECFDBFF050EEECFDBFF060EEECFDBFF7C
:10287000070EEECFDBFF040EDBCF18F0050EDBCF2B
:1028800019F0060EDBCF1AF0070EDBCF1BF0185045
:1028900019101A101B1005E1366A376A386A396A4E
:1028A00056D0040EDBCF18F0050EDBCF19F0060E64
:1028B000DBCF1AF0070EDBCF1BF0D9CFE9FFDACF61
:1028C000EAFF1850EE5C1950EE581A50EE581B50A3
:1028D000EE581BE3D9CFE9FFDACFEAFF040EDB5055
:1028E000EE5E050EDB50EE5A060EDB50EE5A070E7A
:1028F000DB50EE5AD950080FE96E000EDA20EA6E6E
:10290000040EEE26000EEF2298D7080EDBCFE9FF6B
:10291000090EDBCFEAFFEECF18F0EECF19F0EECFC5
:102920001AF0EFCF1BF0D9CFE9FFDACFEAFFEE5074
:102930001826EE501922EE501A22EE501B2218C013
:1029400036F019C037F01AC038F01BC039F00A0E43
:10295000E15C02E2E16AE552E16EE552E5CFDAFFC1
:10296000E7CFD9FF1200D9CFE6FFDACFE6FFE1CFFC
:10297000D9FFE2CFDAFF060EE12402E3E168E65276
:10298000E16EFC0EDBCFE9FFFD0EDBCFEAFF040EAC
:10299000E926000EEA22FA0EDBCFEEFFFB0EDBCFBC
:1029A000EDFFFC0EDBCFE9FFFD0EDBCFEAFF060EED
:1029B000E926000EEA22EECFDFFF010EEECFDBFFAD
:1029C000020EEECFDBFF030EEECFDBFFD9CFE9FF28
:1029D000DACFEAFF010EEE1805E1EE5003E1EE500A
:1029E00001E1EE5001E164D1FC0EDBCFE9FFFD0E09
:1029F000DBCFEAFFEE50EFCFEAFFE96E160EE926D5
:102A0000000EEA22EECF18F0EECF19F0EECF1AF05A
:102A1000EFCF1BF0D9CFE9FFDACFEAFF1850EE5C19
:102A20001950EE581A50EE581B50EE5801E340D1A1
:102A3000D9CFE9FFDACFEAFFEECF18F0EECF19F0E9
:102A4000EECF1AF0EFCF1BF0185019101A101B1010
:102A500026E1FC0EDBCFE9FFFD0EDBCFEAFFEE50F7
:102A6000EFCFEAFFE96EEF50030819E1FC0EDBCF70
:102A7000E9FFFD0EDBCFEAFFEE50EFCFEAFFE96E94
:102A8000260EE926000EEA22EECFDFFF010EEECF82
:102A9000DBFF020EEECFDBFF030EEECFDBFFD9CF65
:102AA000E9FFDACFEAFFEECF18F0EECF19F0EECF64
:102AB0001AF0EFCF1BF0185019101A101B105AE122
:102AC000FC0EDBCFE9FFFD0EDBCFEAFF0A0EE926A5
:102AD000000EEA22DFCFEEFF010EDBCFEEFF020E8B
:102AE000DBCFEEFF030EDBCFEEFFFA0EDBCF18F0ED
:102AF000FB0EDBCF19F0FC0EDBCFE9FFFD0EDBCFC9
:102B0000EAFFEE50EFCFEAFFE96E080EE926000E6D
:102B1000EA22EECF1AF0EFCF1BF01A50185C1B50D0
:102B2000195801E3C5D0FA0EDBCF18F0FB0EDBCF4E
:102B300019F0040E0F0B05E0D89019321832E80690
:102B4000FBE11A6A1B6AFC0EDBCFE9FFFD0EDBCF4F
:102B5000EAFFEE50EFCFEAFFE96E260EE926000EFF
:102B6000EA22EE501826EE501922EE501A22EE50AC
:102B70001B2216D1FC0EDBCFE9FFFD0EDBCFEAFFF7
:102B8000EE50EFCFEAFFE96E020EE926000EEA22D0
:102B9000EF50186E196A100E386E396A18C03DF081
:102BA00019C03EF010EC5FF0040E36C0DBFF050EDE
:102BB00037C0DBFFFA0EDBCF18F0FB0EDBCF19F0CE
:102BC000040EDBCF1AF0050EDBCF1BF01A50185C99
:102BD0001B50195801E27FD0D9CFE9FFDACFEAFFC5
:102BE000EECFE6FFEECFE6FFEECFE6FFEFCFE6FF5C
:102BF000FC0EDBCFE9FFFD0EDBCFEAFFEECFE6FFF9
:102C0000EFCFE6FF4BEC0AF0186E060EE15C02E235
:102C1000E16AE552E16E185036C0DEFF37C0DEFFD4
:102C200038C0DEFF39C0DDFFDD52DD52D9CFE9FF0C
:102C3000DACFEAFFE868EE180BE1E868EE1808E181
:102C4000E868EE1805E1E868EE1802E1010EEDD043
:102C5000D9CFE9FFDACFEAFF020EEE5C000EEE58A4
:102C6000000EEE58000EEE5823E3FC0EDBCFE9FF1A
:102C7000FD0EDBCFEAFFEE50EFCFEAFFE96E160E56
:102C8000E926000EEA22EECF18F0EECF19F0EECFD3
:102C90001AF0EFCF1BF0D9CFE9FFDACFEAFF1850D7
:102CA000EE5C1950EE581A50EE581B50EE5802E3E5
:102CB000020EBBD0040EDBCF18F0050EDBCF19F0EF
:102CC000D950FA0FE96EFF0EDA20EA6E1850EE5E68
:102CD0001950ED5A6FD7FC0EDBCFE9FFFD0EDBCFAD
:102CE000EAFF0A0EE926000EEA22DFCFEEFF010E10
:102CF000DBCFEEFF020EDBCFEEFF030EDBCFEEFFEE
:102D0000FA0EDBCF1DF0FB0EDBCF1EF0040E0F0B17
:102D100005E0D8901E321D32E806FBE11F6A206AEA
:102D20001DC0E6FF1EC0E6FF1FC0E6FF20C0E6FF95
:102D3000D9CFE9FFDACFEAFFEECFE6FFEECFE6FF2D
:102D4000EECFE6FFEFCFE6FFFC0EDBCFE9FFFD0E97
:102D5000DBCFEAFFEECFE6FFEFCFE6FFBBEC09F0FB
:102D60001C6E060EE15C02E2E16AE552E16E1C5067
:102D7000E552E7CF20F0E552E7CF1FF0E552E7CF6D
:102D80001EF0E552E7CF1DF036501D24186E375067
:102D90001E20196E38501F201A6E395020201B6ECD
:102DA000FC0EDBCFE9FFFD0EDBCFEAFF0E0EE926BE
:102DB000000EEA2218C0EEFF19C0EEFF1AC0EEFFA7
:102DC0001BC0EEFFFC0EDBCFE9FFFD0EDBCFEAFF01
:102DD000EE50EFCFEAFFE96E320EE926000EEA224E
:102DE000E9CF1AF0EACF1BF0FA0EDBCF1CF0FB0E96
:102DF0001D6A0F0E1C16050ED8901C361D36E806EF
:102E0000FBE11A501C24186E1B501D20196EFC0E7D
:102E1000DBCFE9FFFD0EDBCFEAFF120EE926000E45
:102E2000EA2218C0EEFF19C0EDFF186E060EE15C35
:102E300002E2E16AE552E16E1850E552E5CFDAFFB1
:102E4000E7CFD9FF1200D9CFE6FFDACFE6FFE1CF17
:102E5000D9FFE2CFDAFF070EE12402E3E168E65290
:102E6000E16EFA0EDBCF38F0FB0EDBCF39F0FA0E55
:102E700038C0DBFFFB0E39C0DBFFFC0EDBCFE9FF08
:102E8000FD0EDBCFEAFF040EE926000EEA22EECFAC
:102E900018F0EFCF19F0010E1826000E1922040EBB
:102EA00018C0DBFF050E19C0DBFFD950040FE96E17
:102EB000000EDA20EA6EEE50ED1001E109D1FC0EB1
:102EC000DBCFE9FFFD0EDBCFEAFF0E0EE926000E99
:102ED000EA22EECF18F0EECF19F0EECF1AF0EFCFD6
:102EE0001BF0185019101A101B1001E1F1D0040E3C
:102EF000DBCF18F0050E196A0F0E181618501910AE
:102F000001E078D2FC0EDBCFE9FFFD0EDBCFEAFF5C
:102F10000E0EE926000EEA22EE2AEE22EE22EE2224
:102F2000FC0EDBCFE9FFFD0EDBCFEAFF0A0EE92640
:102F3000000EEA22EECF18F0EECF19F0EECF1AF025
:102F4000EFCF1BF0185019101A101B101FE1040EC0
:102F5000DBCF18F0050EDBCF19F0FC0EDBCFE9FF5D
:102F6000FD0EDBCFEAFFEE50EFCFEAFFE96E080E71
:102F7000E926000EEA22EECF1AF0EFCF1BF01A502E
:102F8000185C1B50195801E235D2A2D0040EDBCFD9
:102F90001AF0050EDBCF1BF0040E0F0B05E0D890E6
:102FA0001B321A32E806FBE1FC0EDBCFE9FFFD0E17
:102FB000DBCFEAFFEE50EFCFEAFFE96E020EE92623
:102FC000000EEA22EF0400011A14186E196AE85084
:102FD000191001E00FD2FC0EDBCFE9FFFD0EDBCFB5
:102FE000EAFF0A0EE926000EEA22EECFE6FFEECF58
:102FF000E6FFEECFE6FFEFCFE6FFFC0EDBCFE9FF0B
:10300000FD0EDBCFEAFFEECFE6FFEFCFE6FF4BECA6
:103010000AF0186E060EE15C02E2E16AE552E16E2A
:10302000185036C0DEFF37C0DEFF38C0DEFF39C0C3
:10303000DDFFDD52DD52D9CFE9FFDACFEAFFD880DC
:10304000010EEE54000EEE54000EEE54000EEE543F
:1030500001E390D0D9CFE9FFDACFEAFFE868EE18B4
:103060000AE1E868EE1807E1E868EE1804E1E868AC
:10307000EE1801E13FD1FC0EDBCFE9FFFD0EDBCF07
:10308000EAFFEE50EFCFEAFFE96E160EE926000EDA
:10309000EA22EECF18F0EECF19F0EECF1AF0EFCF14
:1030A0001BF0D9CFE9FFDACFEAFF1850EE5C1950D8
:1030B000EE581A50EE581B50EE5801E24ED1D9503E
:1030C000FA0FE96EFF0EDA20EA6EEE50ED1002E123
:1030D000040ED3D1FC0EDBCFE9FFFD0EDBCFEAFF00
:1030E0000A0EE926000EEA22EECFE6FFEECFE6FF5B
:1030F000EECFE6FFEFCFE6FFFC0EDBCFE9FFFD0EE4
:10310000DBCFEAFFEECFE6FFEFCFE6FF05EC11F0F5
:10311000186E060EE15C02E2E16AE552E16E1850BB
:1031200036C0DEFF37C0DEFF38C0DEFF39C0DDFF4E
:10313000DD52DD52D9CFE9FFDACFEAFFEECF18F04A
:10314000EECF19F0EECF1AF0EFCF1BF01850191098
:103150001A101B1002E1070E90D1D9CFE9FFDACF88
:10316000EAFF010EEE1808E1EE5006E1EE5004E130
:10317000EE5002E1020E81D1D9CFE9FFDACFEAFFAA
:10318000E868EE180AE1E868EE1807E1E868EE186A
:1031900004E1E868EE1801E1ADD0FC0EDBCFE9FFF9
:1031A000FD0EDBCFEAFFEECFE6FFEFCFE6FFA2ECAE
:1031B00006F0E552E552000901E09CD0E66A020EF5
:1031C000E66E000EE66EE66AFC0EDBCFE9FFFD0E52
:1031D000DBCFEAFFEE50EFCFEAFFE96E320EE926D1
:1031E000000EEA22E9CF18F0EACF19F0E9CFE6FFA6
:1031F000EACFE6FFCDEC05F01A6E060EE15C02E2C6
:10320000E16AE552E16E1A50D9CFE9FFDACFEAFF61
:10321000EECFE6FFEECFE6FFEECFE6FFEFCFE6FF25
:10322000FC0EDBCFE9FFFD0EDBCFEAFFEECFE6FFC2
:10323000EFCFE6FFBBEC09F01C6E060EE15C02E28C
:10324000E16AE552E16E1C5036C018F037C019F043
:1032500038C01AF039C01BF0FC0EDBCFE9FFFD0EC1
:10326000DBCFEAFFEE50EFCFEAFFE96E2E0EE92644
:10327000000EEA2236C0EEFF19C0EEFF1AC0EEFFC4
:103280001BC0EEFF060EDB6AFC0EDBCFE9FFFD0E76
:10329000DBCFEAFFEE50EFCFEAFFE96E020EE92640
:1032A000000EEA22EF50F36E060EDBCFF4FFF35070
:1032B000F45C37E2FC0EDBCFE9FFFD0EDBCFEAFF6B
:1032C000EE50EFCFEAFFE96E040EE926000EEA2287
:1032D000010EEF6EFC0EDBCFE9FFFD0EDBCFEAFF48
:1032E000EECFE6FFEFCFE6FFA2EC06F0E552E552A7
:1032F000000902E0010EC1D0FC0EDBCFE9FFFD0E9C
:10330000DBCFEAFFEE50EFCFEAFFE96E2E0EE926A3
:10331000000EEA22EE2AEE22EE22EE22060EDB2A32
:10332000B3D7060EDBCF18F0196A1A6A1B6AFC0EB7
:10333000DBCFE9FFFD0EDBCFEAFFEE50EFCFEAFF78
:10334000E96E2E0EE926000EEA221850EE5E1950A4
:10335000EE5A1A50EE5A1B50EE5AFC0EDBCFE9FF24
:10336000FD0EDBCFEAFF0A0EE926000EEA22DFCFD0
:10337000EEFF010EDBCFEEFF020EDBCFEEFF030E02
:10338000DBCFEEFFD9CFE9FFDACFEAFFEECFE6FFE2
:10339000EECFE6FFEECFE6FFEFCFE6FFFC0EDBCF92
:1033A000E9FFFD0EDBCFEAFFEECFE6FFEFCFE6FF52
:1033B000BBEC09F01C6E060EE15C02E2E16AE5522C
:1033C000E16E1C5037C019F038C01AF039C01BF03C
:1033D000FC0EDBCFE9FFFD0EDBCFEAFF0E0EE92688
:1033E000000EEA2236C0EEFF19C0EEFF1AC0EEFF53
:1033F0001BC0EEFFFC0EDBCFE9FFFD0EDBCFEAFFCB
:10340000040EE926000EEA22040EDBCFEEFF050EC5
:10341000DBCFEDFFFC0EDBCFE9FFFD0EDBCFEAFFDC
:10342000EE50EFCFEAFFE96E320EE926000EEA22F7
:10343000E9CF1AF0EACF1BF0040EDBCF1CF0050E2B
:103440001D6A0F0E1C16050ED8901C361D36E80698
:10345000FBE11A501C24186E1B501D20196EFC0E27
:10346000DBCFE9FFFD0EDBCFEAFF120EE926000EEF
:10347000EA2218C0EEFF19C0EDFF186E070EE15CDE
:1034800002E2E16AE552E16E1850E552E5CFDAFF5B
:10349000E7CFD9FF1200D9CFE6FFDACFE6FFE1CFC1
:1034A000D9FFE2CFDAFFE652E652E652000EE66EB0
:1034B000E66AFC0EDBCFE6FFFD0EDBCFE6FFB3ECEA
:1034C00014F0E552E552E552E552DF6EDF5075E14A
:1034D000010EDB6A020EDB6AFC0EDBCFE9FFFD0E9C
:1034E000DBCFEAFF0E0EE926000EEA22EECFE6FF62
:1034F000EECFE6FFEECFE6FFEFCFE6FFFC0EDBCF31
:10350000E9FFFD0EDBCFEAFFEECFE6FFEFCFE6FFF0
:10351000EAEC07F0186E060EE15C02E2E16AE552A1
:10352000E16E1850DF6EDF5048E1FC0EDBCFE9FFA3
:10353000FD0EDBCFEAFF120EE926000EEA22EE5066
:10354000EFCFEAFFE96EEF50E50810E0FC0EDBCFAD
:10355000E9FFFD0EDBCFEAFF120EE926000EEA229C
:10356000EE50EFCFEAFFE96EEF5012E1010EDB2AD9
:10357000DBCF18F0020E01E3DB2ADBCF19F0FA0EE5
:10358000DB50181809E1FB0EDB50191805E115D0C6
:10359000010EDB6A020EDB6A010EE66EE66AFC0EC5
:1035A000DBCFE6FFFD0EDBCFE6FF4DDCE552E5525B
:1035B000E552E552DF6EDF508FE0040EDF5C02E182
:1035C000070EDF6EDF50E552E552E552E552E5CFDA
:1035D000DAFFE7CFD9FF1200D9CFE6FFDACFE6FF57
:1035E000E1CFD9FFE2CFDAFFE652E652E652E652E9
:1035F0001A0EE76EFA0EDBCFE9FFFB0EDBCFEAFF18
:10360000E750E926000EEA22EECF18F0EFCF19F0CE
:1036100018C0DFFF010E19C0DBFF020EDB6A030ECC
:10362000DB6AFC0EDBCFE9FFFD0EDBCFEAFFEF50DC
:10363000030826E1140EE76EFA0EDBCFE9FFFB0E5E
:10364000DBCFEAFFE750E926000EEA22EECF18F0C2
:10365000EFCF19F01A6A1B6A100E1F0B07E0D89003
:10366000183619361A361B36E806F9E11850DE12FC
:103670001950DE121A50DE121B50DD12DD52DD52DF
:10368000DECF36F0DECF37F0DECF38F0DDCF39F0E9
:10369000DD52DD52040EE15C02E2E16AE552E16EC8
:1036A000E552E5CFDAFFE7CFD9FF1200D9CFE6FF29
:1036B000DACFE6FFE1CFD9FFE2CFDAFF1A0EE76EED
:1036C000FC0EDBCFE9FFFD0EDBCFEAFFE750E9267A
:1036D000000EEA22F80EDBCFEEFFF90EDBCFEDFF96
:1036E000F80EDBCF18F0F90EDBCF19F0FA0EDBCFB6
:1036F0001AF0FB0EDBCF1BF0100ED8901B321A32E3
:1037000019321832E806F9E1140EE76EFC0EDBCF31
:10371000E9FFFD0EDBCFEAFFE750E926000EEA22C3
:1037200018C0EEFF19C0EDFFE552E5CFDAFFE7CF95
:10373000D9FF1200D9CFE6FFDACFE6FFE1CFD9FFFC
:10374000E2CFDAFFE652E652E652E652000EE66EAD
:10375000E66AFC0EDBCFE6FFFD0EDBCFE6FFB3EC47
:1037600014F0E552E552E552E552DF6EDF5002E01B
:10377000DF5092D0FC0EDBCFE9FFFD0EDBCFEAFF7E
:103780000E0EE926000EEA22EECFE6FFEECFE6FFB0
:10379000EECFE6FFEFCFE6FFFC0EDBCFE9FFFD0E3D
:1037A000DBCFEAFFEECFE6FFEFCFE6FFEAEC07F074
:1037B000186E060EE15C02E2E16AE552E16E185015
:1037C000DF6EDF5068E1FC0EDBCFE9FFFD0EDBCFE3
:1037D000EAFF120EE926000EEA22020EEECFDBFF10
:1037E000030EEDCFDBFF020EDBCFE9FF030EDBCFD5
:1037F000EAFF010EEFCFDBFFDB5003E1040EDF6ECB
:103800004AD00B0EE76E020EDBCFE9FF030EDBCFD3
:10381000EAFFE750E926000EEA22EF50080B28E104
:103820000B0EE66EE66AFC0EDBCFE9FFFD0EDBCF8A
:10383000EAFF140EE926000EEA22EECFE6FFEFCFF4
:10384000E6FF020EDBCFE6FF030EDBCFE6FFFCEC6C
:1038500005F01A6E060EE15C02E2E16AE552E16EE5
:103860001A50F3CF18F0F4CF19F0F350F41013E01E
:10387000000EE66EE66AFC0EDBCFE6FFFD0EDBCF48
:10388000E6FF23EC17F0E552E552E552E552DF6E14
:10389000DF5001E16FD7DF50186E040EE15C02E2E9
:1038A000E16AE552E16E1850E552E5CFDAFFE7CF65
:1038B000D9FF1200D9CFE6FFDACFE6FFE1CFD9FF7B
:1038C000E2CFDAFFE652E652E652E652E652040E44
:1038D000DF6EFC0EDBCFE9FFFD0EDBCFEAFF0E0E45
:1038E000E926000EEA22EECF18F0EECF19F0EECF67
:1038F0001AF0EFCF1BF0185019101A101B1001E12D
:103900008BD0FC0EDBCFE9FFFD0EDBCFEAFF0E0E06
:10391000E926000EEA22EECFE6FFEECFE6FFEECF7D
:10392000E6FFEFCFE6FFFC0EDBCFE9FFFD0EDBCFBE
:10393000EAFFEECFE6FFEFCFE6FFEAEC07F0186E06
:10394000060EE15C02E2E16AE552E16E1850DF6EBC
:10395000DF5062E1FC0EDBCFE9FFFD0EDBCFEAFFBB
:10396000120EE926000EEA22030EEECFDBFF040E54
:10397000EDCFDBFF030EDBCFE9FF040EDBCFEAFF69
:10398000020EEFCFDBFFDB5003E1040EDF6E44D00D
:103990000B0EE76E030EDBCFE9FF040EDBCFEAFF71
:1039A000E750E926000EEA22EF503F0BE76E010ECA
:1039B000E7CFDBFF020EDB50E5081BE0020EDB5019
:1039C0002E0817E0010EDB500F0813E0010EDB504C
:1039D000080802E0000E01D0010E186E196A18BE28
:1039E0001968FA0EDB50181804E1FB0EDB501918A9
:1039F00013E0000EE66EE66AFC0EDBCFE6FFFD0E7E
:103A0000DBCFE6FF23EC17F0E552E552E552E55235
:103A1000DF6EDF5001E15DD7DF500EE0FC0EDBCF43
:103A2000E9FFFD0EDBCFEAFF0E0EE926000EEA22CB
:103A3000EE6AEE6AEE6AEE6ADF50186E050EE15C21
:103A400002E2E16AE552E16E1850E552E5CFDAFF95
:103A5000E7CFD9FF1200D9CFE6FFDACFE6FFE1CFFB
:103A6000D9FFE2CFDAFFE652010EE66EE66AFC0EFF
:103A7000DBCFE6FFFD0EDBCFE6FF0DDDE552E552C5
:103A8000E552E552DF6EDF5001E080D0FC0EDBCF67
:103A9000E9FFFD0EDBCFEAFF0E0EE926000EEA225B
:103AA000EECFE6FFEECFE6FFEECFE6FFEFCFE6FF8D
:103AB000FC0EDBCFE9FFFD0EDBCFEAFFEECFE6FF2A
:103AC000EFCFE6FFEAEC07F0186E060EE15C02E2CB
:103AD000E16AE552E16E1850DF6EDF5057E1200ECB
:103AE000E66EE66A000EE66EE66AFC0EDBCFE9FFE4
:103AF000FD0EDBCFEAFF120EE926000EEA22EECF22
:103B0000E6FFEFCFE6FFCDEC05F0186E060EE15CA8
:103B100002E2E16AE552E16E18500B0EE66EE66ACB
:103B2000FC0EDBCFE9FFFD0EDBCFEAFF140EE9262A
:103B3000000EEA22EECFE6FFEFCFE6FFFC0EDBCF72
:103B4000E9FFFD0EDBCFEAFF120EE926000EEA22A6
:103B5000EECFE6FFEFCFE6FF4BEC05F0186E060E5A
:103B6000E15C02E2E16AE552E16E1850FC0EDBCF47
:103B7000E9FFFD0EDBCFEAFFEE50EFCFEAFFE96E83
:103B8000040EE926000EEA22010EEF6EDF50E55228
:103B9000E552E5CFDAFFE7CFD9FF1200D9CFE6FF34
:103BA000DACFE6FFE1CFD9FFE2CFDAFF0D0EE12455
:103BB00002E3E168E652E16EFA0EDBCFE9FFFB0EAD
:103BC000DBCFEAFF0B0EEECFDBFF0C0EEDCFDBFF02
:103BD0000B0EDBCFE9FF0C0EDBCFEAFFEF502F0817
:103BE00009E00B0EDBCFE9FF0C0EDBCFEAFFEF5055
:103BF0005C0806E10B0EDB2A0C0EEAE3DB2AE8D7B1
:103C0000FC0EDBCFE9FFFD0EDBCFEAFF140EE92649
:103C1000000EEA22030EEECFDBFF040EEDCFDBFF3A
:103C20000B0EE66EE66A200EE66EE66A030EDBCF4A
:103C3000E6FF040EDBCFE6FFCDEC05F0186E060EB6
:103C4000E15C02E2E16AE552E16E1850000EDF6EBF
:103C5000E66ED950090FE96E000EDA20EA6EE552E1
:103C6000E750EE6EED6AE66ED950070FE96E000E72
:103C7000DA20EA6EE552E750EE6EED6A080EF36E5A
:103C8000050EF3CFDBFF060EDB6A070EDBCF18F065
:103C9000DB2A080EDBCF19F001E3DB2A0B0EDB5029
:103CA0001824E96E0C0EDB501920EA6E010EEFCFDE
:103CB000DBFFDB50200801E39CD0010EDB502F0816
:103CC00001E197D0010EDB505C0801E192D0010EBA
:103CD000DB502E0811E0090EDBCF18F00A0EDBCF07
:103CE00019F0050EDBCF1AF0060EDBCF1BF01A50D1
:103CF000185C1B50195825E3D950050FE96E000ECA
:103D0000DA20EA6E080EEE1801E09FD0ED5001E0D7
:103D10009CD0010EDB502E0801E097D0080EF36E08
:103D2000090EF3CFDBFF0A0EDB6A0B0EF36E050EF6
:103D3000F3CFDBFF060EDB6A040EDF02F3CFDFFFFB
:103D4000A4D7800EF36E010EDBCFF4FFF350F45CCA
:103D500004E3000EDF80DF8278D0010EDBCFE6FFC8
:103D6000E66ABE0EE66EBE0EE66E61EC06F0E55249
:103D7000E552E552E552F350F41067E1410EF36E5F
:103D8000010EDBCFF4FFF350F45C06E3010EDB50D1
:103D90005A0802E3DF8218D0610EF36E010EDBCF0A
:103DA000F4FFF350F45C10E3010EDB507A080CE3EF
:103DB000000EDF80200E186E010EDBCFE7FF1850DB
:103DC000E75E010EE7CFDBFF090EDBCF18F0DB2A41
:103DD0000A0EDBCF19F001E3DB2A030EDB501824B7
:103DE000E96E040EDB501920EA6E010EDBCFEFFF07
:103DF0004CD7070EDBCF1AF0080EDBCF1BF00B0EF3
:103E0000DB501A24186E0C0EDB501B20196EFA0EB4
:103E1000DBCFE9FFFB0EDBCFEAFF18C0EEFF19C0D6
:103E2000EDFF010EDB50200802E3040E01D0000E6E
:103E3000E76E010EE7CFDBFFD950090FE96E000EE8
:103E4000DA20EA6EEE50ED1002E1060E3CD0030ED1
:103E5000DBCFE9FF040EDBCFEAFFEF50E50808E116
:103E6000030EDBCFE9FF040EDBCFEAFF050EEF6E9A
:103E7000D950050FE96E000EDA20EA6E080EEE1832
:103E800006E1ED5004E1040EDF02F3CFDFFF030E85
:103E9000DF14010802E1010EDB880C0EDF140408B8
:103EA00002E1010EDB860B0EE76E030EDBCFE9FFAE
:103EB000040EDBCFEAFFE750E926000EEA22010EEE
:103EC000DBCFEFFF000E186E0D0EE15C02E2E16A3F
:103ED000E552E16E1850E552E5CFDAFFE7CFD9FFA2
:103EE0001200D9CFE6FFDACFE6FFE1CFD9FFE2CF6C
:103EF000DAFF080EE12402E3E168E652E16EFA0E11
:103F0000DBCFE9FFFB0EDBCFEAFF090EE926000E4F
:103F1000EA22050EE9CFDBFF060EEACFDBFFFC0E3F
:103F2000DBCFE9FFFD0EDBCFEAFF0E0EE926000E28
:103F3000EA22EECF18F0EECF19F0EECF1AF0EFCF65
:103F40001BF0185019101A101B1001E118D1FC0EAB
:103F5000DBCFE9FFFD0EDBCFEAFF120EE926000EF4
:103F6000EA22030EEECFDBFF040EEDCFDBFF0C0EDB
:103F7000E76E030EDBCFE9FF040EDBCFEAFFE7506D
:103F8000E926000EEA22020EEFCFDBFFDE6ADD6AD1
:103F9000DECF18F0DDCF19F0080E185C000E1958AE
:103FA0002CE2030EDBCF18F0040EDBCF19F0DE504D
:103FB0001824E96EDD501920EA6E070EEFCFDBFF03
:103FC000DB5020081AE0070EDB50050805E1E50E7E
:103FD000F36E070EF3CFDBFF050EDBCFE9FFDB2A25
:103FE000060EDBCFEAFF01E3DB2A070EDBCFEFFF94
:103FF000DF2A010ECDE3DB2ACBD7080EE76E030ED6
:10400000DBCFE9FF040EDBCFEAFFE750E926000E25
:10401000EA22EF5020083AE0050EDBCFE9FFDB2A69
:10402000060EDBCFEAFF01E3DB2A2E0EEF6E080E51
:10403000DE6EDD6ADECF18F0DDCF19F00B0E185CF6
:10404000000E195823E2030EDBCF18F0040EDBCF6D
:1040500019F0DE501824E96EDD501920EA6E070EC3
:10406000EFCFDBFFDB50200811E0050EDBCFE9FFCF
:10407000DB2A060EDBCFEAFF01E3DB2A070EDBCFEC
:10408000EFFFDF2A010ED6E3DB2AD4D70B0EE76E53
:10409000030EDBCFE9FF040EDBCFEAFFE750E92692
:1040A000000EEA22EF50E66EFA0EDBCFE9FFFB0EC0
:1040B000DBCFEAFF080EE926000EEA22E552E750C0
:1040C000EF6E1C0EE76E030EDBCFE9FF040EDBCFB5
:1040D000EAFFE750E926000EEA22EECF18F0EECF15
:1040E00019F0EECF1AF0EFCF1BF0FA0EDBCFE9FF9D
:1040F000FB0EDBCFEAFF18C0EEFF19C0EEFF1AC0BF
:10410000EEFF1BC0EEFF180EE76E030EDBCFE9FFDC
:10411000040EDBCFEAFFE750E926000EEA22EECFDD
:1041200018F0EFCF19F0FA0EDBCFE9FFFB0EDBCF73
:10413000EAFF040EE926000EEA2218C0EEFF19C0BD
:10414000EDFF160EE76E030EDBCFE9FF040EDBCFAB
:10415000EAFFE750E926000EEA22EECF18F0EFCF93
:1041600019F0FA0EDBCFE9FFFB0EDBCFEAFF060EFC
:10417000E926000EEA2218C0EEFF19C0EDFF050E79
:10418000DBCFE9FF060EDBCFEAFFEF6A080EE15C4A
:1041900002E2E16AE552E16EE552E5CFDAFFE7CFF0
:1041A000D9FF1200D9CFE6FFDACFE6FFE1CFD9FF82
:1041B000E2CFDAFFE652E652E652E652FA0EDBCFE3
:1041C000E9FFFB0EDBCFEAFFEF502F0809E0FA0E04
:1041D000DBCFE9FFFB0EDBCFEAFFEF505C0805E128
:1041E000FA0EDB2AFB0E01E3DB2AFC0EDBCFE9FF34
:1041F000FD0EDBCFEAFF060EE926000EEA22EE6A8C
:10420000EE6AEE6AEE6AFA0EDBCFE9FFFB0EDBCF59
:10421000EAFFEFCF18F0196A18BE1968200E185C73
:10422000000E19581BE2000EE66EE66AFC0EDBCFAC
:10423000E6FFFD0EDBCFE6FFB3EC14F0E552E552EE
:10424000E552E552DF6EFC0EDBCFE9FFFD0EDBCF62
:10425000EAFF120EEB6A130EEB6A94D0D950FA0FF4
:10426000E66EFF0EDA20E66EFC0EDBCFE6FFFD0EFB
:10427000DBCFE6FF93DCE552E552E552E552DF6E17
:10428000DF5001E07FD0FC0EDBCFE6FFFD0EDBCF81
:10429000E6FF9AEC1BF0E552E552DF6EFC0EDBCF39
:1042A000E9FFFD0EDBCFEAFF140EE926000EEA223D
:1042B000EE50EFCFEAFFE96E0B0EE926000EEA2280
:1042C000030EEFCFDBFFDF5007E0040EDF5C5AE1A7
:1042D000030EDBB457D022D0030EDBB453D0FC0E58
:1042E000DBCFE9FFFD0EDBCFEAFF120EE926000E61
:1042F000EA22010EEECFDBFF020EEDCFDBFF0B0E4D
:10430000E76E010EDBCFE9FF020EDBCFEAFFE750DD
:10431000E926000EEA22EF50100B03E1050EDF6ED6
:1043200031D0010EDBCFE6FF020EDBCFE6FFFC0E45
:10433000DBCFE9FFFD0EDBCFEAFFEECFE6FFEFCFED
:10434000E6FFECEC1AF0E552E552E552E55236C0D4
:1043500018F037C019F038C01AF039C01BF0FC0E45
:10436000DBCFE9FFFD0EDBCFEAFF060EE926000EEC
:10437000EA2236C0EEFF19C0EEFF1AC0EEFF1BC0E6
:10438000EEFF6CD7DF50186E040EE15C02E2E16ACA
:10439000E552E16E1850E552E5CFDAFFE7CFD9FFDD
:1043A0001200D9CFE6FFDACFE6FFE1CFD9FFE2CFA7
:1043B000DAFF010EE66ED950F80FE96EFF0EDA2033
:1043C000EA6EEECFE6FFEECFE6FFEECFE6FFEFCFF1
:1043D000E6FFFC0EDBCFE9FFFD0EDBCFEAFF320E7E
:1043E000E926000EEA22E9CF18F0EACF19F0E9CF6A
:1043F000E6FFEACFE6FFFC0EDBCFE9FFFD0EDBCFE9
:10440000EAFFEE52EF50E66EECEC4DF01A6E080E3D
:10441000E15C02E2E16AE552E16E1A50000902E055
:10442000030E63D0FC0EDBCFE9FFFD0EDBCFEAFF0E
:10443000320EE926000EEA22FE0EE926010EEA22DD
:10444000550EEE1802E1AA0EED1802E0020E4DD054
:10445000186819681A681B6AFC0EDBCFE9FFFD0EAD
:10446000DBCFEAFF320EE926000EEA22360EE926FD
:10447000000EEA22EE501816EE501916EE501A16DB
:10448000EE501B16460E181808E1410E191805E1EA
:10449000540E1A1802E11B5025E0186819681A68B2
:1044A0001B6AFC0EDBCFE9FFFD0EDBCFEAFF320E0D
:1044B000E926000EEA22520EE926000EEA22EE500C
:1044C0001816EE501916EE501A16EE501B16460E20
:1044D00018180AE1410E191807E1540E1A1804E1E0
:1044E0001B5002E1000E01D0010EE552E5CFDAFFCC
:1044F000E7CFD9FF1200D9CFE6FFDACFE6FFE1CF51
:10450000D9FFE2CFDAFF260EE12402E3E168E652AA
:10451000E16EFC0EDBCFE9FFFD0EDBCFEAFF220EE2
:10452000EECFDBFF230EEDCFDBFF220EDBCFE9FF6B
:10453000230EDBCFEAFFEF50D00FE66ED950050F08
:10454000E96E000EDA20EA6EE552E750EE6EED6A93
:10455000D950050FE96E000EDA20EA6E090ED880F8
:10456000EE54000EED5426E3010EE76E220EDBCF73
:10457000E9FF230EDBCFEAFFE750E926000EEA222F
:10458000EF503A0817E1D950220FE96E000EDA20F9
:10459000EA6E020EEE26000EED22FC0EDBCFE9FFE6
:1045A000FD0EDBCFEAFF220EDBCFEEFF230EDBCFCB
:1045B000EDFF04D0050EDB6A060EDB6AFA0EDBCFD8
:1045C000E9FFFB0EDBCFEAFFEE6AED6A050EDBCFFB
:1045D00018F0060EDBCF19F0010E185C000E19580A
:1045E00003E30B0EA0EF29F0050EDBCFE9FF060E6B
:1045F000DBCFEAFF010ED890E936EA36E806FBE1A8
:10460000EA0EE926000EEA22240EEECFDBFF250E8D
:10461000EDCFDBFFD950240FE96E000EDA20EA6EF1
:10462000EE50ED1003E10C0EA0EF29F0FA0EDBCFF7
:10463000E9FFFB0EDBCFEAFF240EDBCFEEFF250EFA
:10464000DBCFEDFF240EDBCFE9FF250EDBCFEAFF4A
:10465000EF501CE0240EDBCFE9FF250EDBCFEAFF95
:10466000EE52EF50E66ED7EC4DF0E552E76E070ED6
:10467000E7CFDBFFDBB00AD0F90EDB5004E0070E1A
:10468000DB50040B30E1000EA0EF29F0240EDBCF4D
:10469000E9FF250EDBCFEAFFEF6A240EDBCFE9FF4F
:1046A000250EDBCFEAFFEE52050EDBCFEFFF240E27
:1046B000DBCFE9FF250EDBCFEAFFEE52EF50E66ECF
:1046C000AEEC4CF0E552E76E070EE7CFDBFFDBA068
:1046D00003D0030EA0EF29F0F90EDB5007E0070E20
:1046E000DB50040B03E00A0EA0EF29F0080EDB6A92
:1046F000090EDB6A0A0EDB6A0B0EDB6AE66AE66A03
:10470000E66AE66A240EDBCFE6FF250EDBCFE6FF86
:1047100048DE186E060EE15C02E2E16AE552E16EE7
:104720001850DF6EDF046CE1020EDB6ADB5002E042
:10473000020EDB06240EDBCFE9FF250EDBCFEAFFFE
:10474000320EE926000EEA22E9CF1AF0EACF1BF07A
:10475000020EDB50100DF3501D6ABE0F1C6E010ED1
:104760001D22E9501C24186EEA501D20196E030EFC
:1047700018C0DBFF040E19C0DBFFE76E030EDBCFB2
:10478000E9FF040EDBCFEAFFE750E926000EEA223C
:10479000EF5036E0080EE76E030EDBCFE9FF040EA4
:1047A000DBCFEAFFE750E926000EEA22080EEECF43
:1047B000DBFF090EEECFDBFF0A0EEECFDBFF0B0EA9
:1047C000EECFDBFFD950080FE96E000EDA20EA6E5B
:1047D000EECFE6FFEECFE6FFEECFE6FFEFCFE6FF50
:1047E000240EDBCFE6FF250EDBCFE6FFDADD186E09
:1047F000060EE15C02E2E16AE552E16E1850DF6EFE
:10480000030EDF5C03E1010EA0EF29F0DF5002E0B0
:104810003AEF28F0240EDBCFE9FF250EDBCFEAFFCD
:10482000320EE926000EEA220B0EE926000EEA22DD
:10483000EE5002E03AEF28F0020EED1802E03AEFF7
:1048400028F0240EDBCFE9FF250EDBCFEAFF320E86
:10485000E926000EEA22160EE926000EEA22EECF25
:1048600018F0EFCF19F00C0E18C0DBFF0D0E19C0B9
:10487000DBFF0E0EDB6A0F0EDB6A0C0EDBCF18F0CF
:104880000D0EDBCF19F00E0EDBCF1AF00F0EDBCFC3
:104890001BF0185019101A101B101AE1240EDBCF50
:1048A000E9FF250EDBCFEAFF320EE926000EEA22F1
:1048B000240EE926000EEA220C0EEECFDBFF0D0ED1
:1048C000EECFDBFF0E0EEECFDBFF0F0EEECFDBFFEA
:1048D000240EDBCFE9FF250EDBCFEAFF1A0EE92617
:1048E000000EEA220C0EDBCFEEFF0D0EDBCFEEFF4B
:1048F0000E0EDBCFEEFF0F0EDBCFEEFF240EDBCF75
:10490000E9FF250EDBCFEAFF320EE926000EEA2290
:10491000100EE926000EEA22010EEFCFDBFF240E77
:10492000DBCFE9FF250EDBCFEAFF030EE926000E01
:10493000EA22010EDBCFEFFFDB0405E0010EDB50C6
:10494000020801E097D3010EDBCF18F0196A1A6A4A
:104950001B6AD9500C0FE96E000EDA20EA6E18C0FF
:104960003BF019C03CF01AC03DF01BC03EF0EECF4A
:1049700036F0EECF37F0EECF38F0EFCF39F0B4ECC1
:104980005EF035C0EDFF34C0EDFF33C0EDFF32C047
:10499000EFFF240EDBCFE9FF250EDBCFEAFF320E5F
:1049A000E926000EEA220D0EE926000EEA22010E8B
:1049B000EFCFDBFF240EDBCFE9FF250EDBCFEAFFD5
:1049C000020EE926000EEA22010EDBCFEFFFDB50DC
:1049D00001E150D3010EDBCFE6FFDB04E552E71423
:1049E00001E048D3240EDBCFE9FF250EDBCFEAFF41
:1049F000320EE926000EEA22110EE926000EEA2206
:104A0000EECF18F0EFCF19F0240EDBCFE9FF250E23
:104A1000DBCFEAFF080EE926000EEA2218C0EEFFFF
:104A200019C0EDFF240EDBCFE9FF250EDBCFEAFF37
:104A3000080EE926000EEA22EECF18F00001196AEE
:104A40000F0E18161850191001E014D3240EDBCFE6
:104A5000E9FF250EDBCFEAFF320EE926000EEA223F
:104A6000130EE926000EEA22EECF18F0EFCF19F070
:104A7000100E18C0DBFF110E19C0DBFF120EDB6A2F
:104A8000130EDB6A100EDBCF18F0110EDBCF19F01E
:104A9000120EDBCF1AF0130EDBCF1BF018501910DB
:104AA0001A101B101AE1240EDBCFE9FF250EDBCF15
:104AB000EAFF320EE926000EEA22200EE926000E59
:104AC000EA22100EEECFDBFF110EEECFDBFF120E4F
:104AD000EECFDBFF130EEECFDBFF240EDBCFE9FFC3
:104AE000250EDBCFEAFF320EE926000EEA220E0E7B
:104AF000E926000EEA22200EEECFDBFF210EEDCFDD
:104B0000DBFFD950200FE96E000EDA20EA6EEE507E
:104B1000ED1001E1AFD2200EDBCF1CF0210EDBCF78
:104B20001DF01E6A1F6AD9500C0FE96E000EDA20C4
:104B3000EA6E1C50EE24186E1D50EE20196E1E50A9
:104B4000EE201A6E1F50EE201B6E240EDBCFE9FF05
:104B5000250EDBCFEAFF080EE926000EEA22EECF93
:104B600020F0EFCF21F0040E0F0B05E0D89021329A
:104B70002032E806FBE1226A236A205018262150E1
:104B8000192222501A2223501B22140E18C0DBFFB8
:104B9000150E19C0DBFF160E1AC0DBFF170E1BC067
:104BA000DBFF140EDBCF18F0150EDBCF19F0160E5D
:104BB000DBCF1AF0170EDBCF1BF0D950100FE96EC8
:104BC000000EDA20EA6E1850EE5C1950EE581A50BA
:104BD000EE581B50EE5801E24DD2240EDBCFE9FF18
:104BE000250EDBCFEAFF020EE926000EEA22EFCF08
:104BF00020F0216A226A236A100EDBCF1CF0110E0E
:104C0000DBCF1DF0120EDBCF1EF0130EDBCF1FF03B
:104C1000D950140FE96E000EDA20EA6EEE501C5CDB
:104C2000186EEE501D58196EEE501E581A6EEE504A
:104C30001F581B6E18C036F019C037F01AC038F074
:104C4000396E20C03BF021C03CF022C03DF023C0B3
:104C50003EF0ECEC5EF0180E36C0DBFF190E37C0EC
:104C6000DBFF1A0E38C0DBFF1B0E39C0DBFF180E4E
:104C7000DBCF18F0190EDBCF19F01A0EDBCF1AF0CC
:104C80001B0EDBCF1BF0185019101A101B1001E17E
:104C9000F1D1010EDF6ED950180FE96E000EDA2047
:104CA000EA6EF60EEE5C0F0EEE58000EEE58000E99
:104CB000EE5802E3020EDF6ED950180FE96E000EB7
:104CC000DA20EA6EF60EEE5CFF0EEE58000EEE589D
:104CD000000EEE5802E3030EDF6E020E186E196A24
:104CE0001A6A1B6AD950180FE96E000EDA20EA6EB4
:104CF000EE501826EE501922EE501A22EE501B22CA
:104D0000240EDBCFE9FF250EDBCFEAFF160EE926E6
:104D1000000EEA2218C0EEFF19C0EEFF1AC0EEFF27
:104D20001BC0EEFF240EDBCFE9FF250EDBCFEAFF31
:104D30001E0EE926000EEA22080EDBCFEEFF090E5A
:104D4000DBCFEEFF0A0EDBCFEEFF0B0EDBCFEEFF6D
:104D5000200EDBCF18F0210EDBCF19F01A6A1B6A88
:104D6000D950080FE96E000EDA20EA6EEE501826D0
:104D7000EE501922EE501A22EE501B22240EDBCFE9
:104D8000E9FF250EDBCFEAFF220EE926000EEA221C
:104D900018C0EEFF19C0EEFF1AC0EEFF1BC0EEFFF9
:104DA000140EDBCF18F0150EDBCF19F0160EDBCF8B
:104DB0001AF0170EDBCF1BF0D950080FE96E000E6A
:104DC000DA20EA6EEE501826EE501922EE501A2222
:104DD000EE501B22240EDBCFE9FF250EDBCFEAFFCE
:104DE0002A0EE926000EEA2218C0EEFF19C0EEFFD7
:104DF0001AC0EEFF1BC0EEFF030EDF5C5CE1240E69
:104E0000DBCFE9FF250EDBCFEAFF080EE926000E17
:104E1000EA22EE50ED1001E02DD1240EDBCFE9FFA8
:104E2000250EDBCFEAFF320EE926000EEA222C0E19
:104E3000E926000EEA22EECF18F0EECF19F0EECF01
:104E40001AF0EFCF1BF0240EDBCFE9FF250EDBCFEE
:104E5000EAFF260EE926000EEA2218C0EEFF19C06E
:104E6000EEFF1AC0EEFF1BC0EEFF240EDBCFE9FF02
:104E7000250EDBCFEAFF160EE926000EEA22EECF62
:104E800036F0EECF37F0EECF38F0EFCF39F0040E3A
:104E90003B6E3C6A3D6A3E6AB4EC5EF01C0E32C06A
:104EA000DBFF1D0E33C0DBFF1E0E34C0DBFF1F0E09
:104EB00035C0DBFFB1D0240EDBCFE9FF250EDBCF01
:104EC000EAFF080EE926000EEA22EE50ED1001E19D
:104ED000D1D00C0EDBCF18F00D0EDBCF19F00E0E7B
:104EE000DBCF1AF00F0EDBCF1BF0240EDBCFE9FF78
:104EF000250EDBCFEAFF220EE926000EEA22EE5055
:104F00001826EE501922EE501A22EE501B22240EC3
:104F1000DBCFE9FF250EDBCFEAFF260EE926000EE8
:104F2000EA2218C0EEFF19C0EEFF1AC0EEFF1BC048
:104F3000EEFF020EDF5C18E1240EDBCFE9FF250E49
:104F4000DBCFEAFF160EE926000EEA22EECF18F0BC
:104F5000EECF19F0EECF1AF0EFCF1BF0D890183645
:104F600019361A361B364CD0010E1C6E1D6A1E6A8D
:104F70001F6A240EDBCFE9FF250EDBCFEAFF160EFA
:104F8000E926000EEA22EE501C16EE501D16EE50D9
:104F90001E16EE501F16240EDBCFE9FF250EDBCFC9
:104FA000EAFF160EE926000EEA22EECF36F0EECF2B
:104FB00037F0EECF38F0EFCF39F0030E3B6E3C6A9E
:104FC0003D6A3E6AB4EC5EF032C036F033C037F072
:104FD00034C038F035C039F0020E3B6E3C6A3D6A91
:104FE0003E6AECEC5EF0365000011C24186E37501F
:104FF0001D20196E38501E201A6E39501F201B6E4E
:105000001C0E18C0DBFF1D0E19C0DBFF1E0E1AC0E0
:10501000DBFF1F0E1BC0DBFF1C0EDBCF18F01D0ECD
:10502000DBCF19F01E0EDBCF1AF01F0EDBCF1BF00B
:10503000FF0E1826010E1922000E1A221B22090E3D
:10504000D8901B321A3219321832E806F9E1240ED0
:10505000DBCFE9FF250EDBCFEAFF1A0EE926000EB3
:10506000EA221850EE5C1950EE581A50EE581B50B8
:10507000EE5802E20D0E64D1240EDBCFE9FF250EBF
:10508000DBCFEAFF0E0EE926000EEA22EE68EE689C
:10509000EE68EE68240EDBCFE9FF250EDBCFEAFFDA
:1050A0000A0EE926000EEA22EE6AEE6AEE6AEE6A5F
:1050B000030EDF5C01E011D1240EDBCFE9FF250EEA
:1050C000DBCFEAFF050EE926000EEA22EF6A240E86
:1050D000DBCFE9FF250EDBCFEAFF320EE926000E1B
:1050E000EA22300EE926000EEA22EECF18F0EFCFCA
:1050F00019F01A6A1B6AD950080FE96E000EDA20FF
:10510000EA6EEE501826EE501922EE501A22EE509A
:105110001B22240EDBCFE9FF250EDBCFEAFF120EA8
:10512000E926000EEA2218C0EEFF19C0EEFF1AC0F1
:10513000EEFF1BC0EEFF010EE66E240EDBCFE9FF93
:10514000250EDBCFEAFF120EE926000EEA22EECF93
:10515000E6FFEECFE6FFEECFE6FFEFCFE6FF240E51
:10516000DBCFE9FF250EDBCFEAFF320EE926000E8A
:10517000EA22E9CF18F0EACF19F0E9CFE6FFEACF4B
:10518000E6FF240EDBCFE9FF250EDBCFEAFFEE5270
:10519000EF50E66EECEC4DF01A6E080EE15C02E2A8
:1051A000E16AE552E16E1A50000901E096D0240E42
:1051B000DBCFE9FF250EDBCFEAFF320EE926000E3A
:1051C000EA22FE0EE926010EEA22550EEE1801E053
:1051D00084D0AA0EED1801E080D0240EDBCFE9FFC9
:1051E000250EDBCFEAFF320EE926000EEA22520E30
:1051F000EE1873E1520EEE1870E1610EEE186DE1DB
:10520000410EEE186AE1240EDBCFE9FF250EDBCF5D
:10521000EAFF320EE926000EEA22E40EE926010E2C
:10522000EA22720EEE1859E1720EEE1856E1410EA6
:10523000EE1853E1610EEE1850E1240EDBCFE9FFCA
:10524000250EDBCFEAFF320EE926000EEA22EC0E35
:10525000E926010EEA22EECF18F0EECF19F0EECFDC
:105260001AF0EFCF1BF0240EDBCFE9FF250EDBCFCA
:10527000EAFF0A0EE926000EEA2218C0EEFF19C066
:10528000EEFF1AC0EEFF1BC0EEFF240EDBCFE9FFDE
:10529000250EDBCFEAFF320EE926000EEA22E80EE9
:1052A000E926010EEA22EECF18F0EECF19F0EECF8C
:1052B0001AF0EFCF1BF0240EDBCFE9FF250EDBCF7A
:1052C000EAFF0E0EE926000EEA2218C0EEFF19C012
:1052D000EEFF1AC0EEFF1BC0EEFF240EDBCFE9FF8E
:1052E000250EDBCFEAFFDFCFEFFF0001EC2B000E36
:1052F000ED23240EDBCFE9FF250EDBCFEAFF060E00
:10530000E926000EEA22ECC0EEFFEDC0EDFF240E10
:10531000DBCFE9FF250EDBCFEAFF2E0EE926000EDC
:10532000EA22EE6AEE6AEE6AEE6A240EDBCFE9FF4D
:10533000250EDBCFEAFF040EE926000EEA22EF6A13
:10534000186E260EE15C02E2E16AE552E16E185049
:10535000E552E5CFDAFFE7CFD9FF1200D9CFE6FF5C
:10536000DACFE6FFE1CFD9FFE2CFDAFFE652E6522D
:10537000FC0EDBCFDEFFDBCFDDFFD9CFE9FFDACFDD
:10538000EAFFEE50ED1033E0DECFE9FFDDCFEAFFBC
:10539000EE50ED102CE0DECFE9FFDDCFEAFFEE505E
:1053A000EFCFEAFFE96EEF5022E0DECFE9FFDDCF7D
:1053B000EAFFEE50EFCFEAFFE96E060EE926000E97
:1053C000EA22EECF18F0EFCF19F0DECFE9FFDDCF04
:1053D000EAFF020EE926000EEA22EECF1AF0EFCF26
:1053E0001BF01A50181802E11B50191802E0090EA0
:1053F00013D0DECFE9FFDDCFEAFFEE50EFCFEAFFBB
:10540000E96EEE52EF50E66ED7EC4DF0E552010B2F
:1054100002E0030E01D0000EE552E552E552E5CF61
:10542000DAFFE7CFD9FF1200D9CFE6FFDACFE6FFE8
:10543000E1CFD9FFE2CFDAFFE652E652010EF36E7A
:10544000FD0EDBCFF4FFF350F45C02E30B0E3BD018
:10545000FD0EEA6ADB34FE0BEA36E96EEA0EE92657
:10546000000EEA22EECFDEFFEDCFDDFFD9CFE9FF60
:10547000DACFEAFFEE50ED1005E0DECFE9FFDDCF39
:10548000EAFFEF6AD950FB0FE96EFF0EDA20EA6EF1
:10549000EE50ED1007E0FB0EDBCFE9FFFC0EDBCF9B
:1054A000EAFFEF6AFD0EEA6ADB34FE0BEA36E96ECC
:1054B000EA0EE926000EEA22FB0EDBCFEEFFFC0E21
:1054C000DBCFEDFF000EE552E552E552E5CFDAFF06
:1054D000E7CFD9FF1200D9CFE6FFDACFE6FFE1CF61
:1054E000D9FFE2CFDAFF2D0EE12402E3E168E652B4
:1054F000E16ED950FC0FE96EFF0EDA20EA6EEE5035
:10550000ED1002E1090EBFD2FC0EDBCFE9FFFD0E6C
:10551000DBCFEAFFEE6AED6AF90EDB9ADB9CDB9EDD
:10552000DB50FE0BE66ED950010FE66E000EDA205E
:10553000E66ED950FA0FE66EFF0EDA20E66E7BECCF
:1055400022F0186E050EE15C02E2E16AE552E16EBE
:105550001850DF6EDF5001E095D2D950190F186E48
:10556000000EDA20196E150E18C0DBFF160E19C0DA
:10557000DBFFFA0EDBCFE6FFFB0EDBCFE6FFD950F9
:10558000010FE66E000EDA20E66ED2EC20F0E55256
:10559000E552E552E552DF6E130EDBCF38F0140E04
:1055A000DBCF39F0170E38C0DBFF180E39C0DBFF38
:1055B000DF500BE1D950170FE96E000EDA20EA6ECA
:1055C000EE50ED1002E1060EDF6EF90EDB501C0B03
:1055D00001E149D1DF501DE0040EDF5C0BE1D95041
:1055E000010FE66E000EDA20E66E2BEC1DF0E552A0
:1055F000E552DF6EF90EDB86130EDBCF38F0140EAA
:10560000DBCF39F0170E38C0DBFF180E39C0DBFFD7
:1056100016D00B0EE76E170EDBCFE9FF180EDBCFAF
:10562000EAFFE750E926000EEA22EF50110B02E0F4
:10563000070E04D0F90EDBA402D0080EDF6EDF5097
:1056400001E039D1F90EDB50080B01E134D19DECBA
:1056500057F0250E36C0DBFF260E37C0DBFF270EC6
:1056600038C0DBFF280E39C0DBFF0E0EE76E170EC9
:10567000DBCFE9FF180EDBCFEAFFE750E926000E8B
:10568000EA22250EDBCFEEFF260EDBCFEEFF270E44
:10569000DBCFEEFF280EDBCFEEFF0B0EE76E170E13
:1056A000DBCFE9FF180EDBCFEAFFE750E926000E5B
:1056B000EA22EF6A1C0EE76E170EDBCFE9FF180E29
:1056C000DBCFEAFFE750E926000EEA22EE6AEE6A37
:1056D000EE6AEE6A170EDBCFE6FF180EDBCFE6FFB1
:1056E000010EDBCFE6FF020EDBCFE6FFECEC1AF09B
:1056F000E552E552E552E552290E36C0DBFF2A0E8F
:1057000037C0DBFF2B0E38C0DBFF2C0E39C0DBFFB0
:10571000E66AE66AE66AE66A170EDBCFE6FF180E6F
:10572000DBCFE6FF56EC1BF0186E060EE15C02E2E2
:10573000E16AE552E16E1850010EDBCFE9FF020E7F
:10574000DBCFEAFF040EE926000EEA22010EEF6E1F
:10575000290EDBCF18F02A0EDBCF19F02B0EDBCF92
:105760001AF02C0EDBCF1BF0185019101A101B105A
:1057700001E1A1D0010EDBCFE9FF020EDBCFEAFF92
:105780002E0EE926000EEA22250EEECFDBFF260EB6
:10579000EECFDBFF270EEECFDBFF280EEECFDBFFD9
:1057A000D950290FE96E000EDA20EA6EEECFE6FF3F
:1057B000EECFE6FFEECFE6FFEFCFE6FF010EDBCF49
:1057C000E6FF020EDBCFE6FFD0EC0FF0186E060E00
:1057D000E15C02E2E16AE552E16E1850DF6EDF50F3
:1057E0006AE1290EDBCF18F02A0EDBCF19F02B0E61
:1057F000DBCF1AF02C0EDBCF1BF01806000E195A67
:105800001A5A1B5A010EDBCFE9FF020EDBCFEAFF6B
:105810000A0EE926000EEA2218C0EEFF19C0EEFFBC
:105820001AC0EEFF1BC0EEFFD950250FE96E000E27
:10583000DA20EA6EEECFE6FFEECFE6FFEECFE6FF30
:10584000EFCFE6FF010EDBCFE6FF020EDBCFE6FF78
:10585000EAEC07F0186E060EE15C02E2E16AE5523E
:10586000E16E185027D0DF5026E10B0EE76E170EC1
:10587000DBCFE9FF180EDBCFEAFFE750E926000E89
:10588000EA22EF50100B02E0040E14D0F90EDB50A8
:10589000020B11E00B0EE76E170EDBCFE9FF180EBF
:1058A000DBCFEAFFE750E926000EEA22EF50010BBA
:1058B00002E0070EDF6EDF5037E1F90EDBB6DB8A60
:1058C000010EDBCFE9FF020EDBCFEAFF2E0EE92649
:1058D000000EEA22EECF18F0EECF19F0EECF1AF05C
:1058E000EFCF1BF0FC0EDBCFE9FFFD0EDBCFEAFFB5
:1058F0001A0EE926000EEA2218C0EEFF19C0EEFFCC
:105900001AC0EEFF1BC0EEFFFC0EDBCFE9FFFD0E61
:10591000DBCFEAFF1E0EE926000EEA22170EDBCFD0
:10592000EEFF180EDBCFEDFFDF5001E0ABD0FC0E39
:10593000DBCFE9FFFD0EDBCFEAFF040EE926000E08
:10594000EA22F90EDBCFEFFF170EDBCFE6FF180ED2
:10595000DBCFE6FF010EDBCFE6FF020EDBCFE6FF7B
:10596000ECEC1AF0E552E552E552E55237C019F079
:1059700038C01AF039C01BF0FC0EDBCFE9FFFD0E7A
:10598000DBCFEAFF0E0EE926000EEA2236C0EEFF5C
:1059900019C0EEFF1AC0EEFF1BC0EEFF1C0EE76E33
:1059A000170EDBCFE9FF180EDBCFEAFFE750E92641
:1059B000000EEA22EECF18F0EECF19F0EECF1AF07B
:1059C000EFCF1BF0FC0EDBCFE9FFFD0EDBCFEAFFD4
:1059D0000A0EE926000EEA2218C0EEFF19C0EEFFFB
:1059E0001AC0EEFF1BC0EEFFFC0EDBCFE9FFFD0E81
:1059F000DBCFEAFF060EE926000EEA22EE6AEE6A27
:105A0000EE6AEE6AFC0EDBCFE9FFFD0EDBCFEAFFAC
:105A1000160EE926000EEA22EE6AEE6AEE6AEE6AD9
:105A2000FC0EDBCFE9FFFD0EDBCFEAFF200EEB6AB9
:105A3000210EEB6AFC0EDBCFE9FFFD0EDBCFEAFFA8
:105A4000010EDBCFEEFF020EDBCFEDFF010EDBCF51
:105A5000E9FF020EDBCFEAFF060EE926000EEA227E
:105A6000EECF18F0EFCF19F0FC0EDBCFE9FFFD0E03
:105A7000DBCFEAFF020EE926000EEA2218C0EEFF95
:105A800019C0EDFFDF50186E2D0EE15C02E2E16AF5
:105A9000E552E16E1850E552E5CFDAFFE7CFD9FFC6
:105AA0001200D9CFE6FFDACFE6FFE1CFD9FFE2CF90
:105AB000DAFF140EE12402E3E168E652E16EFA0E29
:105AC000DBCF38F0FB0EDBCF39F0120E38C0DBFF36
:105AD000130E39C0DBFFF60EDBCFE9FFF70EDBCF8D
:105AE000EAFFEE6AED6AFC0EDBCFE6FFFD0EDBCFD0
:105AF000E6FF34DCE552E552DF6EDF5003E0DF50B5
:105B0000DEEF31F0FC0EDBCFE9FFFD0EDBCFEAFF6D
:105B1000040EE926000EEA22EF50800B01E0D6D1F8
:105B2000FC0EDBCFE9FFFD0EDBCFEAFF040EE9261A
:105B3000000EEA22EF50010B03E1070EDEEF31F019
:105B4000FC0EDBCFE9FFFD0EDBCFEAFF0A0EE926F4
:105B5000000EEA22EECF1CF0EECF1DF0EECF1EF0CD
:105B6000EFCF1FF0FC0EDBCFE9FFFD0EDBCFEAFF2E
:105B7000060EE926000EEA22EE501C5C186EEE506E
:105B80001D58196EEE501E581A6EEE501F581B6E9F
:105B9000090E18C0DBFF0A0E19C0DBFF0B0E1AC07E
:105BA000DBFF0C0E1BC0DBFFF80EDBCF18F0F90E8D
:105BB000DBCF19F01A6A1B6AD950090FE96E000E83
:105BC000DA20EA6E1850EE5C1950EE581A50EE5872
:105BD0001B50EE580CE2090EDBCF38F00A0EDBCF7B
:105BE00039F0F80E38C0DBFFF90E39C0DBFFD950B1
:105BF000F80FE96EFF0EDA20EA6EEE50ED1001E1CB
:105C0000DCD3FC0EDBCFE9FFFD0EDBCFEAFF060E97
:105C1000E926000EEA22EECF18F0EECF19F0010EC1
:105C200019161A6A1B6A185019101A101B1001E075
:105C3000C1D2FC0EDBCFE9FFFD0EDBCFEAFF060E83
:105C4000E926000EEA22EECF18F0EECF19F0EECFE3
:105C50001AF0EFCF1BF0090ED8901B321A3219320E
:105C60001832E806F9E1FC0EDBCFE9FFFD0EDBCFD1
:105C7000EAFFEE50EFCFEAFFE96E020EE926000ED2
:105C8000EA22EF041C6E1D6A1E6A1F6AE85018168D
:105C90001D5019161E501A161F501B16110E18C033
:105CA000DBFFDB5001E0C4D0FC0EDBCFE9FFFD0ED3
:105CB000DBCFEAFF060EE926000EEA22EECF18F04F
:105CC000EECF19F0EECF1AF0EFCF1BF018501910ED
:105CD0001A101B1017E1FC0EDBCFE9FFFD0EDBCF26
:105CE000EAFF0E0EE926000EEA22010EEECFDBFFE0
:105CF000020EEECFDBFF030EEECFDBFF040EEECF86
:105D0000DBFF5ED0FC0EDBCFE9FFFD0EDBCFEAFF51
:105D1000200EE926000EEA22EE50ED101FE0FC0EE8
:105D2000DBCFE9FFFD0EDBCFEAFF060EE926000E12
:105D3000EA22EECFE6FFEECFE6FFEECFE6FFEFCFB3
:105D4000E6FFFC0EDBCFE6FFFD0EDBCFE6FFBDEC92
:105D500013F0186E060EE15C25E222D0FC0EDBCFBC
:105D6000E9FFFD0EDBCFEAFF120EE926000EEA2264
:105D7000EECFE6FFEECFE6FFEECFE6FFEFCFE6FF9A
:105D8000FC0EDBCFE9FFFD0EDBCFEAFFEECFE6FF37
:105D9000EFCFE6FF4BEC0AF0186E060EE15C02E274
:105DA000E16AE552E16E1850010E36C0DBFF020ECB
:105DB00037C0DBFF030E38C0DBFF040E39C0DBFF4A
:105DC000D950010FE96E000EDA20EA6E020EEE5C89
:105DD000000EEE58000EEE58000EEE586CE3D9504F
:105DE000010FE96E000EDA20EA6EE868EE180AE1AB
:105DF000E868EE1807E1E868EE1804E1E868EE18D4
:105E000001E139D2FC0EDBCFE9FFFD0EDBCFEAFF6B
:105E1000120EE926000EEA22010EDBCFEEFF020E83
:105E2000DBCFEEFF030EDBCFEEFF040EDBCFEEFF8A
:105E3000FC0EDBCFE9FFFD0EDBCFEAFF120EE926F9
:105E4000000EEA22EECFE6FFEECFE6FFEECFE6FF52
:105E5000EFCFE6FFFC0EDBCFE9FFFD0EDBCFEAFF65
:105E6000EECFE6FFEFCFE6FFBBEC09F0186E060EB3
:105E7000E15C02E2E16AE552E16E1850050E36C0BF
:105E8000DBFF060E37C0DBFF070E38C0DBFF080E56
:105E900039C0DBFF050EDBCF18F0060EDBCF19F0A3
:105EA000070EDBCF1AF0080EDBCF1BF018501910CD
:105EB0001A101B100DE1FC0EDBCFE9FFFD0EDBCF4E
:105EC000EAFF040EE926000EEA22EF8E020E76D2D9
:105ED000110EDBCF18F0196A1A6A1B6AD950050F28
:105EE000E96E000EDA20EA6E1850EE261950EE2206
:105EF0001A50EE221B50EE22186A020E196EF80E8E
:105F0000DBCF38F0F90EDBCF39F018C03DF019C007
:105F10003EF049EC5FF00F0E38C0DBFF100E39C0C9
:105F2000DBFFD9500F0FE96E000EDA20EA6EEE505B
:105F3000ED1001E129D1110EDB501A6E1B6A0F0E14
:105F4000DB501A24186E100EDB501B20196EFC0E4D
