:020000040000FA
:0400000053EF00F0CA
:020006000102F5
:0400080006EF04F00B
:080018007F6603EF04F0F0A085
:100020002DD0F09080A80DD083CFDEFF80A603D026
:100030007E82800E29D88A8681A2FED795688A960C
:10004000110080500F0B04E1010E8C6E956AF3D7FE
:10005000080A04E1020E8C6E956AEDD70C0A04E1E1
:100060007DC08CFF956AE7D7080A04E17CC08CFF4D
:10007000956AE1D74F0E8C6E956ADDD7F2A403D056
:10008000F2947B667B061100C96EC7A0FED78B80F9
:10009000C9508B901200DF38DEBC8F0FDF24DEBC2E
:1000A000F90FCD0F12007F6A7E6A8EEC01F0FE0E12
:1000B000F66EFF0EF76EF86A0900F5507D627E8CD1
:1000C0000900F5507C627E8C7EBC26D0030EAA6EA1
:1000D000FE0EA96EA69EA69CA680A8507D627E8E6E
:1000E000A92AA69EA69CA680A8507C627E8E7EBE73
:1000F00013D07F6800EF04F0030EAA6EFE0EA96E07
:100100007DC0A8FF040EA66EC3D8A92A7CC0A8FF94
:10011000040EA66EBDD8FF0094900F0EC16E8A9695
:100120009396F086F09CF19A8A9E939E8A9C939C6B
:100130009496949A400EC76E210EC66E870ED56EA9
:10014000F194F28A120E7B6ED08E8A8E8A8C856B29
:10015000846B21EE00F0F28CF28E400E95DF7EB2C1
:1001600005D87EBCFCD77B66FAD7C6D77E9221EE37
:1001700000F0DE503A0A37E18EDF806F040F816FA6
:100180008ADF8027812FFCD7806726D021EE01F0FF
:1001900082DF816F80DF836F7EDF826F7CDF866F1F
:1001A000070B88EC01F0F5EF00F064EF01F0EAEFE7
:1001B00000F0EAEF00F05BEF01F0EAEF00F066EF2D
:1001C00001F0EAEF00F040095FDF21EE00F01200DD
:1001D000000EF9D7020EF7D7030EF5D77E84050E71
:1001E000F2D7010EF0D7040EEED77EB4F3D78551C7
:1001F000F1E1845105E033D88451F00A18E0EAD7E0
:100200008251F65C876F8351F75808E38713E6E164
:1002100042DF8107F56E7E8649D801D0F5680D0072
:10022000F6503F0BD8B424D88167EAD7D1D7A6B20D
:10023000FED78451F008876F8351FC0B871185111D
:10024000D0E18351AA6E8251A96E25DF8107A86E85
:10025000040EA66E1DD82AD88167E9D7B9D77EA625
:100260001200F5680D00F6503F0BFCE101D81200BA
:100270007EA60CD07E960A00FF0EF65C070EF7589D
:1002800004E37E8C840EA66E03D80900A66A1200D1
:10029000F29EF29C550EA76EAA0EA76EA682F28C55
:1002A000F28E0000A6B2FED7A6941200E86A822B56
:1002B0008323842312008105E82C95D7ECDE856F1B
:1002C000EADE846F000E7FD7CADFFF0083298BE14F
:1002D000825101E00FD07E8C000EF66E080EF76E94
:1002E000F86A940EA66ED4DF400EF626E86AF7226E
:1002F000F8E16ED7A868AA6AA96A040EA66EC8DFDC
:10030000A6B2FED7A93EF9D7AA2AAA50F6E160D72D
:10031000E844E844FD26000EFE221200000EF66EB0
:10032000080EF76EF86A7C6A7D6A0900F55007D8F6
:10033000F750FF08FAE1F650FE08F7E112007C18CA
:100340007D187D1A7D187C6E7D507D3A7D1A7D3238
:100350007DB0D8707DB2D8707DB4D8707D6E010E3E
:10036000D8B07C1A400E7D32D8B07C1A7D347D1A0C
:0A0370007D32800ED8B07C1A000C1C
:060800004BEF71F0120045
:0608060029EF6DF0120065
:04080C00F0900366FF
:100810005ED080501F0B1C6206D08338070B0F6E12
:10082000106A116A1F0F63EC04F06CEF04F072EFB2
:1008300004F017EF05F0A5EF04F08AEF04F0A2EF43
:1008400004F0B5EF04F0ABEF04F06FEF04F099EFB4
:1008500004F09CEF04F0A8EF04F096EF04F09FEF93
:1008600004F0B5EF04F006EF05F006EF05F0C6EF73
:1008700004F07FEF05F02DEF05F0E8EF04F027EF2F
:1008800005F08EEF05F034EF05F0B6EF04F006EF5B
:1008900005F08AEF05F030EF05F054EF05F02AEF90
:1008A00005F08EEF05F006EF05F05AEF05F060EF6A
:1008B00005F067EF05F074EF05F07BEF05F07BEFD7
:1008C00005F074EF05F0E844E844FD26120080B816
:1008D0009DD004C08CFF99D00EC08CFF96D006C06E
:1008E0008CFF93D0E9CF4DF0EACF4EF007EE52F0F7
:1008F0001050E9261150EA22EFCF8CFF104A112A3E
:100900001050135C7EE11150145C7BE1500EC96EF7
:10091000046E72D0E9CF4DF0EACF4EF00BEE00F04E
:1009200019C0E9FF192AEFCF8CFF6BD017C08CFFDD
:100930006CD007C08CFF69D016C08CFF66D009C090
:100940008CFF63D008C08CFF60D00AC08CFF5DD0E4
:100950000BC08CFF5AD01244E838206E0C44E84497
:10096000E8440D1020108C6E50D050D08350066E8D
:10097000E8B64CD0056606D0510EC96E046E100E56
:10098000076E4AD0500EC96E046E46D00F50030A4F
:100990003DE1E9CF4DF0EACF4EF007EE52F01050B6
:1009A000E9261150EA2283CFEFFF4DC0E9FF4EC088
:1009B000EAFF104A112A1050135C28E11150145C10
:1009C00025E1820EC96E046E030E016E008424D0F0
:1009D000E9CF4DF0EACF4EF00BEE00F019C0E9FF81
:1009E00083CFEFFF4DC0E9FF4EC0EAFF192A175031
:1009F00019620CD0400E87D0C7A0FED78B800000B4
:100A00008B904DC0E9FF4EC0EAFF956A8A8681A2AD
:100A1000FED795688A961100C7A0FED78B808A867C
:100A200081A2FED79568C9508B908A961100020E5C
:100A30001A6203D01BC08CFF08D01AC0A9FFAA6A93
:100A4000A69EA69CA680A8CF8CFF1A2ADED783CFAD
:100A500008F0DCD783CF09F0D9D783CF0AF0D6D7F7
:100A60008350030B0B6ED2D7500EC96E046E136AFF
:100A7000146A8340E838030B126E02E1142A0CD08A
:100A8000010A03E1020E146E07D0030A03E1040E0B
:100A9000146E02D0800E136E8344E838030B0C6E84
:100AA0008350070B0D6EB8D7186A8350176EAEE1EE
:100AB000182AACD7500EC96E046E0A6A0B6AACD7FE
:100AC000820EC96E046E020E016E0084A5D783509B
:100AD000040B04E1580EC96E046E9ED7510EC96E08
:100AE000046E040E076E98D7820EC96E046E010E56
:100AF000016E008491D7500EC96E046E8DD783CFDE
:100B000015F0196A800E1510016E820EC96E046E02
:0E0B1000008482D783CF1BF01A6A78D777D77C
:020B1E000100D4
:0C0B2000F4E20000050F000001000000DE
:040B2C00D9CFE6FF38
:100B3000DACFE6FFE1CFD9FFE2CFDAFFE652E652A5
:100B4000E652E652FC0EDBCFDEFFDBCFDDFFFA0E16
:100B5000DBCF41F0FB0EDBCF42F0020E41C0DBFFEA
:100B6000030E42C0DBFFF80EDBCF21F0F90EDBCF26
:100B700022F0020E215C000E22582BE3020EDBCF86
:100B8000E9FF030EDBCFEAFFEECF21F0EFCF22F03B
:100B9000DECFE9FFDDCFEAFF21C0EEFF22C0EDFF8F
:100BA000020EDE26000EDD22D950020FE96E000E85
:100BB000DA20EA6E020EEE26000EED22D950F80F72
:100BC000E96EFF0EDA20EA6E020EEE5E000EED5ABE
:100BD000CAD7F80EDBCF21F0DB06F90EDBCF22F00F
:100BE00001E2DB062150221017E0020EDBCFE9FF05
:100BF000DB2A030EDBCFEAFF01E3DB2AEF50E66ED0
:100C0000DFCFE9FFDF2A010EDBCFEAFF01E3DB2ABA
:100C1000E552E750EF6EDDD7040EE15C02E2E16AD7
:100C2000E552E16EE552E5CFDAFFE7CFD9FF1200DA
:100C3000D9CFE6FFDACFE6FFE1CFD9FFE2CFDAFF87
:100C4000E652E652FC0EDBCFDEFFDBCFDDFFF80E17
:100C5000DBCF21F0DB06F90EDBCF22F001E2DB0671
:100C6000215022100CE0DFCFE9FFDF2A010EDBCF9D
:100C7000EAFF01E3DB2AFA0EDBCFEFFFE8D7E5520C
:100C8000E552E552E5CFDAFFE7CFD9FF1200D9CF21
:100C9000E6FFDACFE6FFE1CFD9FFE2CFDAFF060EBB
:100CA000E12402E3E168E652E16EFC0EDBCFDEFFF9
:100CB000DBCFDDFFFA0EDBCF41F0FB0EDBCF42F0E6
:100CC000020E41C0DBFF030E42C0DBFF040EDB6AF5
:100CD000050EDB6AF80EDBCF21F0DB06F90EDBCF69
:100CE00022F001E2DB062150221020E0DFCFE9FFF5
:100CF000DF2A010EDBCFEAFF01E3DB2AEFCF25F08D
:100D0000020EDBCFE9FFDB2A030EDBCFEAFF01E3B4
:100D1000DB2AEF50255C236E246A040E23C0DBFF20
:100D2000050E24C0DBFF23502410D4E0040EDBCFDB
:100D300021F0050EDBCF22F021C0F3FF22C0F4FF2B
:100D4000060EE15C02E2E16AE552E16EE552E5CFB2
:100D5000DAFFE7CFD9FF1200D9CFE6FFDACFE6FFFF
:100D6000E1CFD9FFE2CFDAFFFC0EDBCFF6FFFD0EBD
:100D7000DBCFF7FF0800F5501AE0FC0EDBCFF6FFE3
:100D8000FD0EDBCFF7FF0800F5CF21F0226A21BE70
:100D90002268FA0EDB50211803E1FB0EDB5022180B
:100DA00006E0FC0EDB2AFD0EDFE3DB2ADDD7FC0EBE
:100DB000DBCFF6FFFD0EDBCFF7FF0800F5CF21F00C
:100DC000226A21BE226821C0F3FF22C0F4FFE5524F
:100DD000E5CFDAFFE7CFD9FF1200D9CFE6FFDACFB0
:100DE000E6FFE1CFD9FFE2CFDAFF060EE12402E30E
:100DF000E168E652E16EFC0EDBCFE9FFFD0EDBCFD2
:100E0000EAFF040EE926000EEA22EF5001E11ED1AE
:100E1000FC0EDBCFE9FFFD0EDBCFEAFF2E0EE9264D
:100E2000000EEA22EECFDFFF010EEECFDBFF020E57
:100E3000EECFDBFF030EEECFDBFF010EE66ED9CF68
:100E4000E9FFDACFEAFFEECFE6FFEECFE6FFEECF27
:100E5000E6FFEFCFE6FFFC0EDBCFE9FFFD0EDBCFB9
:100E6000EAFF320EE926000EEA22E9CF21F0EACFAE
:100E700022F0E9CFE6FFEACFE6FFFC0EDBCFE9FF89
:100E8000FD0EDBCFEAFFEE52EF50E66EF2EC5EF0C5
:100E9000236E080EE15C02E2E16AE552E16E235046
:100EA000000902E0010ED3D0FC0EDBCFE9FFFD0EFE
:100EB000DBCFEAFF040EE926000EEA22EF6AFC0E01
:100EC000DBCFE9FFFD0EDBCFEAFF220EE926000EA5
:100ED000EA22EECF21F0EECF22F0EECF23F0EFCFDB
:100EE00024F0D9CFE9FFDACFEAFF2150EE5C22509F
:100EF000EE582350EE582450EE5801E2A7D0FC0ED5
:100F0000DBCFE9FFFD0EDBCFEAFF1A0EE926000E6C
:100F1000EA22EECF25F0EECF26F0EECF27F0EFCF8E
:100F200028F0FC0EDBCFE9FFFD0EDBCFEAFF220E3F
:100F3000E926000EEA22EE502526EE502622EE503B
:100F40002722EE502822D9CFE9FFDACFEAFF255039
:100F5000EE5C2650EE582750EE582850EE5876E2B8
:100F6000FC0EDBCFE9FFFD0EDBCFEAFF030EE92627
:100F7000000EEA22EF50E66ED950040FE96E000E23
:100F8000DA20EA6EE552E750EE6EED6A040EDBCF32
:100F900021F0050EDBCF22F0020E215C000E22585C
:100FA00055E3FC0EDBCFE9FFFD0EDBCFEAFF1A0EA7
:100FB000E926000EEA22EECF21F0EECF22F0EECFAE
:100FC00023F0EFCF24F02150DE262250DE222350E2
:100FD000DE222450DD22DD52DD52010EE66ED9CF35
:100FE000E9FFDACFEAFFEECFE6FFEECFE6FFEECF86
:100FF000E6FFEFCFE6FFFC0EDBCFE9FFFD0EDBCF18
:10100000EAFF320EE926000EEA22E9CF21F0EACF0C
:1010100022F0E9CFE6FFEACFE6FFFC0EDBCFE9FFE7
:10102000FD0EDBCFEAFFEE52EF50E66EF2EC5EF023
:10103000236E080EE15C02E2E16AE552E16E2350A4
:10104000040EDB06050EA2E2DB06A0D7000E216E21
:10105000060EE15C02E2E16AE552E16E2150E552E2
:10106000E5CFDAFFE7CFD9FF1200D9CFE6FFDACF1D
:10107000E6FFE1CFD9FFE2CFDAFFF80EDBCF21F0B8
:10108000F90EDBCF22F0FA0EDBCF23F0FB0EDBCF25
:1010900024F0FC0EDBCFE9FFFD0EDBCFEAFF2E0EC6
:1010A000E926000EEA222150EE1808E12250EE183F
:1010B00005E12350EE1802E12450EE185AE0FC0E30
:1010C000DBCFE6FFFD0EDBCFE6FF87DEE552E55224
:1010D000000937E1010EE66ED950F80FE96EFF0EF8
:1010E000DA20EA6EEECFE6FFEECFE6FFEECFE6FFC8
:1010F000EFCFE6FFFC0EDBCFE9FFFD0EDBCFEAFF13
:10110000320EE926000EEA22E9CF21F0EACF22F0E2
:10111000E9CFE6FFEACFE6FFFC0EDBCFE9FFFD0EED
:10112000DBCFEAFFEE52EF50E66E82EC5EF0236E0C
:10113000080EE15C02E2E16AE552E16E235000092B
:1011400002E0010E17D0FC0EDBCFE9FFFD0EDBCF76
:10115000EAFF2E0EE926000EEA22F80EDBCFEEFFA4
:10116000F90EDBCFEEFFFA0EDBCFEEFFFB0EDBCF8F
:10117000EEFF000EE552E5CFDAFFE7CFD9FF120010
:10118000D9CFE6FFDACFE6FFE1CFD9FFE2CFDAFF32
:10119000E652FC0EDBCFE6FFFD0EDBCFE6FF1DDEE9
:1011A000E552E552DF6EDF5001E028D1FC0EDBCFC7
:1011B000E9FFFD0EDBCFEAFFEF50030801E007D1A6
:1011C000FC0EDBCFE9FFFD0EDBCFEAFF050EE926C3
:1011D000000EEA22EF5001E1FAD0FC0EDBCFE9FF6E
:1011E000FD0EDBCFEAFF2E0EE926000EEA22EE6AA4
:1011F000EE6AEE6AEE6AE66A020EE66E000EE66ED1
:10120000E66AFC0EDBCFE9FFFD0EDBCFEAFF320E14
:10121000E926000EEA22E9CF21F0EACF22F0E9CF59
:10122000E6FFEACFE6FF04DD236E060EE15C02E294
:10123000E16AE552E16E2350FC0EDBCFE9FFFD0EC3
:10124000DBCFEAFF320EE926000EEA22FE0EE92687
:10125000010EEA22550EEE6EAA0EED6EFC0EDBCFED
:10126000E9FFFD0EDBCFEAFF320EE926000EEA228F
:10127000520EEE6EEE6E610EEE6E410EEE6EFC0ED6
:10128000DBCFE9FFFD0EDBCFEAFF320EE926000ED1
:10129000EA22E40EE926010EEA22720EEE6EEE6EEE
:1012A000410EEE6E610EEE6EFC0EDBCFE9FFFD0E21
:1012B000DBCFEAFF0E0EE926000EEA22EECF21F088
:1012C000EECF22F0EECF23F0EFCF24F0FC0EDBCFF9
:1012D000E9FFFD0EDBCFEAFF320EE926000EEA221F
:1012E000E80EE926010EEA2221C0EEFF22C0EEFF41
:1012F00023C0EEFF24C0EEFFFC0EDBCFE9FFFD0EA6
:10130000DBCFEAFF0A0EE926000EEA22EECF21F03B
:10131000EECF22F0EECF23F0EFCF24F0FC0EDBCFA8
:10132000E9FFFD0EDBCFEAFF320EE926000EEA22CE
:10133000EC0EE926010EEA2221C0EEFF22C0EEFFEC
:1013400023C0EEFF24C0EEFFE66EFC0EDBCFE9FF0C
:10135000FD0EDBCFEAFF120EE926000EEA22EECFE9
:10136000E6FFEECFE6FFEECFE6FFEFCFE6FFFC0EA7
:10137000DBCFE9FFFD0EDBCFEAFF320EE926000EE0
:10138000EA22E9CF21F0EACF22F0E9CFE6FFEACF67
:10139000E6FFFC0EDBCFE9FFFD0EDBCFEAFFEE52EE
:1013A000EF50E66EF2EC5EF0236E080EE15C02E2B6
:1013B000E16AE552E16E2350FC0EDBCFE9FFFD0E42
:1013C000DBCFEAFF050EE926000EEA22EF6A000EE7
:1013D000E66EE66AE66AFC0EDBCFE9FFFD0EDBCFC8
:1013E000EAFFEE52EF50E66E64EC5FF0E552E55234
:1013F000E552E552000902E0010EDF6EDF50E552D2
:10140000E552E5CFDAFFE7CFD9FF1200D9CFE6FFEB
:10141000DACFE6FFE1CFD9FFE2CFDAFFE150F80FF4
:10142000E96EFF0EE220EA6E020EEE5E000EEE5A4C
:10143000EE5AEE5AFC0EDBCFE9FFFD0EDBCFEAFFE2
:10144000160EE926000EEA22EECF21F0EECF22F0B2
:10145000EECF23F0EFCF24F0020E215E000E225AD1
:10146000235A245AD950F80FE96EFF0EDA20EA6E9B
:101470002150EE5C2250EE582350EE582450EE5886
:1014800005E33F6A406A416A426A4AD0FC0EDBCFFC
:10149000E9FFFD0EDBCFEAFF2A0EE926000EEA2265
:1014A000EECF29F0EECF2AF0EECF2BF0EFCF2CF0DD
:1014B000FC0EDBCFE9FFFD0EDBCFEAFF020EE926D3
:1014C000000EEA22EFCF25F0266A276A286A25C097
:1014D0003FF026C040F027C041F028C042F0F80E8F
:1014E000DBCF44F0F90EDBCF45F0FA0EDBCF46F050
:1014F000FB0EDBCF47F05BEC70F03B502924216EF4
:101500003C502A20226E3D502B20236E3E502C2032
:10151000246E21C03FF022C040F023C041F0426E53
:10152000E552E5CFDAFFE7CFD9FF1200D9CFE6FFCA
:10153000DACFE6FFE1CFD9FFE2CFDAFF060EE124F2
:1015400002E3E168E652E16ED950F80FE96EFF0E52
:10155000DA20EA6E020EEE5C000EEE58000EEE5837
:10156000000EEE581FE3F80EDBCF21F0F90EDBCFB3
:1015700022F0FA0EDBCF23F0FB0EDBCF24F0FC0EC3
:10158000DBCFE9FFFD0EDBCFEAFF160EE926000EEA
:10159000EA22EE50215CEE502258EE502358EE50D5
:1015A000245806E3010E3F6E406A416A426A29D21E
:1015B000FC0EDBCFE9FFFD0EDBCFEAFFEF50030AA5
:1015C00001E18AD1010A01E108D1030A01E015D243
:1015D000F80EDBCF41F0F90EDBCF42F0020E41C036
:1015E000DBFF030E42C0DBFF020EDBCF21F0030E58
:1015F000DBCF22F0010E0F0B05E0D8902232213212
:10160000E806FBE1D950020FE96E000EDA20EA6E1F
:101610002150EE262250ED22020EDBCF21F0030EE8
:10162000DBCF22F0090E0F0B05E0D89022322132D9
:10163000E806FBE1236A246AFC0EDBCFE9FFFD0E1E
:10164000DBCFEAFF220EE926000EEA22EE50212629
:10165000EE502222EE502322EE50242221C0E6FF3B
:1016600022C0E6FF23C0E6FF24C0E6FFFC0EDBCF6E
:10167000E6FFFD0EDBCFE6FFF8DC256E060EE15C33
:1016800002E2E16AE552E16E2550000901E0B5D1C0
:10169000FC0EDBCFE9FFFD0EDBCFEAFF320EE926C1
:1016A000000EEA22020EDBCF23F0030EDBCF24F084
:1016B0000001010E2416E9502324E96EEA5024208B
:1016C000EA6EEF50DE6EDD6A020EDB2A030E01E3E6
:1016D000DB2A020EDBCF21F0030EDBCF22F0090E56
:1016E0000F0B05E0D89022322132E806FBE1236A95
:1016F000246AFC0EDBCFE9FFFD0EDBCFEAFF220EF2
:10170000E926000EEA22EE502126EE502222EE506B
:101710002322EE50242221C0E6FF22C0E6FF23C090
:10172000E6FF24C0E6FFFC0EDBCFE6FFFD0EDBCFBD
:10173000E6FF9BDC256E060EE15C02E2E16AE55203
:10174000E16E2550000901E058D1FC0EDBCFE9FF26
:10175000FD0EDBCFEAFF320EE926000EEA22020E72
:10176000DBCF23F0030EDBCF24F0010E2416E9506B
:101770002324E96EEA502420EA6EEF50000EF35065
:10178000DF12010E256E266A276A286AD950F80FE3
:10179000E96EFF0EDA20EA6EEE502516EE502616A0
:1017A000EE502716EE502816255026102710281028
:1017B0000BE0DECF21F0DDCF22F0040ED8902232F4
:1017C0002132E804FBE185D0DECF21F0DDCF22F02D
:1017D000FF0E21160F0E22167CD0F80EDBCF21F063
:1017E000F90EDBCF22F0FA0EDBCF23F0FB0EDBCFBE
:1017F00024F0080ED8902432233222322132E80617
:10180000F9E1FC0EDBCFE9FFFD0EDBCFEAFF220E94
:10181000E926000EEA22EE502126EE502222EE505A
:101820002322EE50242221C0E6FF22C0E6FF23C07F
:10183000E6FF24C0E6FFFC0EDBCFE6FFFD0EDBCFAC
:10184000E6FF13DC256E060EE15C02E2E16AE5527A
:10185000E16E2550000901E0D0D0FC0EDBCFE9FF9E
:10186000FD0EDBCFEAFF320EE926000EEA22E9CFB9
:1018700023F0EACF24F0F80EDBCF3FF0F90EDBCFF8
:1018800040F0FA0EDBCF41F0FB0EDBCF42F0D890F8
:101890003F36403641364236446A020E456E466A4D
:1018A000476AB8EC70F023503B24216E24503C2052
:1018B000226E040E21C0DBFF050E22C0DBFF040EEA
:1018C000DBCFE9FF050EDBCFEAFFEECF21F0EFCF54
:1018D00022F0236A246A88D0F80EDBCF21F0F90EBB
:1018E000DBCF22F0FA0EDBCF23F0FB0EDBCF24F0B0
:1018F000070ED8902432233222322132E806F9E151
:10190000FC0EDBCFE9FFFD0EDBCFEAFF220EE9265E
:10191000000EEA22EE502126EE502222EE50232223
:10192000EE50242221C0E6FF22C0E6FF23C0E6FFDE
:1019300024C0E6FFFC0EDBCFE6FFFD0EDBCFE6FFAB
:1019400035EC08F0256E060EE15C02E2E16AE55234
:10195000E16E2550000951E1FC0EDBCFE9FFFD0EE1
:10196000DBCFEAFF320EE926000EEA22E9CF23F0B0
:10197000EACF24F0F80EDBCF3FF0F90EDBCF40F0DA
:10198000FA0EDBCF41F0FB0EDBCF42F0020ED89017
:101990003F36403641364236E806F9E1446A020EE7
:1019A000456E466A476AB8EC70F023503B24216EBE
:1019B00024503C20226E040E21C0DBFF050E22C005
:1019C000DBFF2168226823680F0E246E040EDBCF34
:1019D000E9FF050EDBCFEAFFEE502116EE5022168E
:1019E000EE502316EE50241621C03FF022C040F0E6
:1019F00023C041F024C042F004D03F6840684168F1
:101A00004268060EE15C02E2E16AE552E16EE552EF
:101A1000E5CFDAFFE7CFD9FF1200D9CFE6FFDACF63
:101A2000E6FFE1CFD9FFE2CFDAFFE652E652E65217
:101A3000E652E652D950F80FE96EFF0EDA20EA6E50
:101A4000020EEE5C000EEE58000EEE58000EEE5840
:101A50001FE3F80EDBCF21F0F90EDBCF22F0FA0EF8
:101A6000DBCF23F0FB0EDBCF24F0FC0EDBCFE9FF56
:101A7000FD0EDBCFEAFF160EE926000EEA22EE503D
:101A8000215CEE502258EE502358EE50245806E3C5
:101A9000020EF36E040EF3CFDBFFBDD2FC0EDBCFE4
:101AA000E9FFFD0EDBCFEAFFEF50030A01E1F5D1BC
:101AB000010A01E16ED1030A01E09CD2F80EDBCFEE
:101AC000DEFFDBCFDDFFDECF21F0DDCF22F0010E28
:101AD0000F0B05E0D89022322132E806FBE1D9CF86
:101AE000E9FFDACFEAFF2150EE262250ED22DECFC9
:101AF00021F0DDCF22F0090E0F0B05E0D890223245
:101B00002132E806FBE1236A246AFC0EDBCFE9FF01
:101B1000FD0EDBCFEAFF220EE926000EEA22EE5090
:101B20002126EE502222EE502322EE50242221C004
:101B3000E6FF22C0E6FF23C0E6FF24C0E6FFFC0E5E
:101B4000DBCFE6FFFD0EDBCFE6FF35EC08F0256EC0
:101B5000060EE15C02E2E16AE552E16E2550E76EB5
:101B6000040EE7CFDBFFDB5001E049D2FC0EDBCFF8
:101B7000E9FFFD0EDBCFEAFF320EE926000EEA2276
:101B8000DECF25F0DDCF26F00001010E2616E9504C
:101B90002524216EEA502620226E020E21C0DBFF92
:101BA000030E22C0DBFF010E216E226A236A246A23
:101BB000D950F80FE96EFF0EDA20EA6EEE502116CA
:101BC000EE502216EE502316EE502416215022100D
:101BD000231024100EE0F40EDB38F00B256E020EFD
:101BE000DBCFE9FF030EDBCFEAFFEF500F0B251031
:101BF00002D0F40EDB50E66E020EDBCFE9FF030EDF
:101C0000DBCFEAFFE552E750EF6EDF2A010E01E37A
:101C1000DB2AFC0EDBCFE9FFFD0EDBCFEAFF040E73
:101C2000E926000EEA22010EEF6EDECF21F0DDCFB5
:101C300022F0090E0F0B05E0D89022322132E8067F
:101C4000FBE1236A246AFC0EDBCFE9FFFD0EDBCF4C
:101C5000EAFF220EE926000EEA22EE502126EE507F
:101C60002222EE502322EE50242221C0E6FF22C081
:101C7000E6FF23C0E6FF24C0E6FFFC0EDBCFE6FF55
:101C8000FD0EDBCFE6FF35EC08F0256E060EE15CBD
:101C900002E2E16AE552E16E2550E76E040EE7CFFD
:101CA000DBFFDB5001E0ABD1FC0EDBCFE9FFFD0E2B
:101CB000DBCFEAFF320EE926000EEA22DECF25F066
:101CC000DDCF26F0010E2616E9502524216EEA50BC
:101CD0002620226E020E21C0DBFF030E22C0DBFF96
:101CE000010E216E226A236A246AD950F80FE96E28
:101CF000FF0EDA20EA6EEE502116EE502216EE505C
:101D00002316EE502416215022102310241016E022
:101D1000F40EDBCF25F0F50EDBCF26F0F60EDBCF91
:101D200027F0F70EDBCF28F0040ED89028322732A8
:101D300026322532E806F9E1255020D0F40EDBCF1B
:101D40002AF0F50EDBCF2BF0F60EDBCF2CF0F70EE2
:101D5000DBCF2DF0080ED8902D322C322B322A32C8
:101D6000E806F9E10F0E2A14296E020EDBCFE9FF17
:101D7000030EDBCFEAFFEF50F00B2910E66E020EE8
:101D8000DBCFE9FF030EDBCFEAFFE552E750EF6E52
:101D900036D1F80EDBCF21F0F90EDBCF22F0FA0EB0
:101DA000DBCF23F0FB0EDBCF24F0080ED8902432DB
:101DB000233222322132E806F9E1FC0EDBCFE9FFC3
:101DC000FD0EDBCFEAFF220EE926000EEA22EE50DE
:101DD0002126EE502222EE502322EE50242221C052
:101DE000E6FF22C0E6FF23C0E6FF24C0E6FFFC0EAC
:101DF000DBCFE6FFFD0EDBCFE6FF35EC08F0256E0E
:101E0000060EE15C02E2E16AE552E16E2550E76E02
:101E1000040EE7CFDBFFDB5001E0F1D0FC0EDBCF9F
:101E2000E9FFFD0EDBCFEAFF320EE926000EEA22C3
:101E3000E9CF23F0EACF24F0F80EDBCF3FF0F90E24
:101E4000DBCF40F0FA0EDBCF41F0FB0EDBCF42F0F0
:101E5000D8903F36403641364236446A020E456ECF
:101E6000466A476AB8EC70F023503B24216E245038
:101E70003C20226E020E21C0DBFF030E22C0DBFFDE
:101E8000020EDBCFE9FF030EDBCFEAFFF40EDBCF60
:101E9000EEFFF50EDBCFEDFFB2D0F80EDBCF21F079
:101EA000F90EDBCF22F0FA0EDBCF23F0FB0EDBCFF7
:101EB00024F0070ED8902432233222322132E80651
:101EC000F9E1FC0EDBCFE9FFFD0EDBCFEAFF220ECE
:101ED000E926000EEA22EE502126EE502222EE5094
:101EE0002322EE50242221C0E6FF22C0E6FF23C0B9
:101EF000E6FF24C0E6FFFC0EDBCFE6FFFD0EDBCFE6
:101F0000E6FF35EC08F0256E060EE15C02E2E16AC0
:101F1000E552E16E2550E76E040EE7CFDBFFDB50A4
:101F20006EE1FC0EDBCFE9FFFD0EDBCFEAFF320EE8
:101F3000E926000EEA22E9CF23F0EACF24F0F80EDA
:101F4000DBCF3FF0F90EDBCF40F0FA0EDBCF41F0F4
:101F5000FB0EDBCF42F0020ED8903F3640364136C2
:101F60004236E806F9E1446A020E456E466A476A5F
:101F7000B8EC70F023503B24216E24503C20226E9C
:101F8000020E21C0DBFF030E22C0DBFF216A226AA2
:101F9000236AF00E246E020EDBCFE9FF030EDBCFC7
:101FA000EAFFEE502116EE502216EE502316EE50A8
:101FB0002416D950F40FE96EFF0EDA20EA6E215094
:101FC000EE122250EE122350EE122450EE12020EA8
:101FD000DBCFE9FF030EDBCFEAFFF40EDBCFEEFF32
:101FE000F50EDBCFEEFFF60EDBCFEEFFF70EDBCF0D
:101FF000EEFF05D0020EF36E040EF3CFDBFFFC0EF6
:10200000DBCFE9FFFD0EDBCFEAFF040EE926000E71
:10201000EA22010EEF6E040EDB50216E050EE15C2C
:1020200002E2E16AE552E16E2150E552E5CFDAFFC6
:10203000E7CFD9FF1200D9CFE6FFDACFE6FFE1CF35
:10204000D9FFE2CFDAFFE652E652E652E652E65216
:10205000D950F80FE96EFF0EDA20EA6E020EEE5C40
:10206000000EEE58000EEE58000EEE5801E28BD036
:10207000F80EDBCF21F0F90EDBCF22F0FA0EDBCF2A
:1020800023F0FB0EDBCF24F0FC0EDBCFE9FFFD0ECF
:10209000DBCFEAFF160EE926000EEA22EE50215CA5
:1020A000EE502258EE502358EE5024586CE2DF6A6E
:1020B000F80EDBCF21F0F90EDBCF22F0FA0EDBCFEA
:1020C00023F0FB0EDBCF24F0FC0EDBCFE9FFFD0E8F
:1020D000DBCFEAFF160EE926000EEA22EE50215C65
:1020E000EE502258EE502358EE50245801E3C9D048
:1020F000D950F80FE96EFF0EDA20EA6EEECFE6FF58
:10210000EECFE6FFEECFE6FFEFCFE6FFFC0EDBCF34
:10211000E6FFFD0EDBCFE6FF96EC0AF0216E060E21
:10212000E15C02E2E16AE552E16E2150010E3FC03E
:10213000DBFF020E40C0DBFF030E41C0DBFF040EDD
:1021400042C0DBFF010EDBCF21F0020EDBCF22F01D
:10215000030EDBCF23F0040EDBCF24F0215022103E
:102160002310241001E18DD0D950010FE96E000E2B
:10217000DA20EA6E010EEE1808E1EE5006E1EE50AC
:1021800004E1EE5002E1020E13D0D950010FE96EC6
:10219000000EDA20EA6EE868EE180CE1E868EE1846
:1021A00009E1E868EE1806E1E868EE1803E1010EBF
:1021B000DF6E67D0E66AE66AE66AE66AD950F80F2B
:1021C000E96EFF0EDA20EA6EEECFE6FFEECFE6FF15
:1021D000EECFE6FFEFCFE6FFFC0EDBCFE6FFFD0E16
:1021E000DBCFE6FF1ADC216E0A0EE15C02E2E16A57
:1021F000E552E16E2150DF6EDF5043E1FC0EDBCF94
:10220000E9FFFD0EDBCFEAFF0E0EE926000EEA2203
:10221000E868EE1808E1E868EE1805E1E868EE18ED
:1022200002E1E868EE181AE0FC0EDBCFE9FFFD0ED4
:10223000DBCFEAFF0E0EE926000EEA22EE2AEE229E
:10224000EE22EE22FC0EDBCFE9FFFD0EDBCFEAFF34
:10225000050EE926000EEA22010EEF6ED950010F9D
:10226000E96E000EDA20EA6EF80EEECFDBFFF90E13
:10227000EECFDBFFFA0EEECFDBFFFB0EEECFDBFF88
:1022800017D7DF50216E050EE15C02E2E16AE552EC
:10229000E16E2150E552E5CFDAFFE7CFD9FF12001A
:1022A000D9CFE6FFDACFE6FFE1CFD9FFE2CFDAFF01
:1022B0000D0EE12402E3E168E652E16EF80EDBCF99
:1022C00021F0F90EDBCF22F0FA0EDBCF23F0FB0E6C
:1022D000DBCF24F0215022102310241053E1FC0EF8
:1022E000DBCFE9FFFD0EDBCFEAFF0A0EE926000E89
:1022F000EA22080EEECFDBFF090EEECFDBFF0A0E5F
:10230000EECFDBFF0B0EEECFDBFF080EDBCF21F0B5
:10231000090EDBCF22F00A0EDBCF23F00B0EDBCF52
:1023200024F0215022102310241020E0080EDBCFCF
:1023300025F0090EDBCF26F00A0EDBCF27F00B0EBF
:10234000DBCF28F0FC0EDBCFE9FFFD0EDBCFEAFF91
:10235000160EE926000EEA22EE50255CEE502658B5
:10236000EE502758EE50285801E276D0010EF36E59
:10237000080EF3CFDBFF090EDB6A0A0EDB6A0B0ED9
:10238000DB6A6AD0D950F80FE96EFF0EDA20EA6EE8
:10239000EECFE6FFEECFE6FFEECFE6FFEFCFE6FFB4
:1023A000FC0EDBCFE6FFFD0EDBCFE6FF96EC0AF07E
:1023B000216E060EE15C02E2E16AE552E16E215017
:1023C0003FC0DEFF40C0DEFF41C0DEFF42C0DDFF98
:1023D000DD52DD52D9CFE9FFDACFEAFF020EEE5C23
:1023E000000EEE58000EEE58000EEE5803E2010EFD
:1023F0003F6E3CD1FC0EDBCFE9FFFD0EDBCFEAFFE9
:10240000160EE926000EEA22EECF21F0EECF22F0E2
:10241000EECF23F0EFCF24F0D9CFE9FFDACFEAFFF8
:102420002150EE5C2250EE582350EE582450EE58C6
:1024300001E2ECD0D950F80FE96EFF0EDA20EA6E17
:10244000080EEECFDBFF090EEECFDBFF0A0EEECF5C
:10245000DBFF0B0EEECFDBFFD950080FE96E000E4D
:10246000DA20EA6E040EEECFDBFF050EEECFDBFFC7
:10247000060EEECFDBFF070EEECFDBFFD950040FC9
:10248000E96E000EDA20EA6EEE2A000EEE22EE224F
:10249000EE22040EDBCF21F0050EDBCF22F0060E7C
:1024A000DBCF23F0070EDBCF24F0FC0EDBCFE9FF00
:1024B000FD0EDBCFEAFF160EE926000EEA22EE50F3
:1024C000215CEE502258EE502358EE50245828E359
:1024D000020EF36E040EF3CFDBFF050EDB6A060E71
:1024E000DB6A070EDB6A080EDBCF21F0090EDBCFBB
:1024F00022F00A0EDBCF23F00B0EDBCF24F0D950F5
:10250000040FE96E000EDA20EA6EEE50215CEE5008
:102510002258EE502358EE50245802E23F6AA6D0CB
:10252000D950040FE96E000EDA20EA6EEECFE6FF16
:10253000EECFE6FFEECFE6FFEFCFE6FFFC0EDBCF00
:10254000E6FFFD0EDBCFE6FF96EC0AF0216E060EED
:10255000E15C02E2E16AE552E16E21503FC0DEFF3C
:1025600040C0DEFF41C0DEFF42C0DDFFDD52DD5274
:10257000D9CFE9FFDACFEAFFEECF21F0EECF22F09C
:10258000EECF23F0EFCF24F021502210231024109F
:1025900020E1E668E668E6680F0EE66ED950040FA3
:1025A000E96E000EDA20EA6EEECFE6FFEECFE6FF30
:1025B000EECFE6FFEFCFE6FFFC0EDBCFE6FFFD0E32
:1025C000DBCFE6FF0DEC0DF0216E0A0EE15C54E26C
:1025D00051D0D9CFE9FFDACFEAFFE868EE1808E179
:1025E000E868EE1805E1E868EE1802E1E868EE1820
:1025F0000DE0D9CFE9FFDACFEAFF010EEE1811E1C5
:10260000EE500FE1EE500DE1EE500BE1DECF3FF06A
:10261000DECF40F0DECF41F0DDCF42F0DD52DD52C3
:10262000EBD0040EDBCF21F0050EDBCF22F0060E3F
:10263000DBCF23F0070EDBCF24F0D950080FE96E73
:10264000000EDA20EA6E2150EE1801E017D7225072
:10265000EE1801E013D72350EE1801E00FD72450F5
:10266000EE1801E00BD701E009D73F6A406A416AE2
:10267000426AC2D0E16AE552E16E2150E76E0C0E6B
:10268000E7CFDBFFDB5041E1F80EDBCF21F0F90EA5
:10269000DBCF22F0FA0EDBCF23F0FB0EDBCF24F0F2
:1026A000215022102310241030E0D950040FE96E7D
:1026B000000EDA20EA6EEECFE6FFEECFE6FFEECFB9
:1026C000E6FFEFCFE6FFD950F80FE96EFF0EDA20F4
:1026D000EA6EEECFE6FFEECFE6FFEECFE6FFEFCFFE
:1026E000E6FFFC0EDBCFE6FFFD0EDBCFE6FF0DECD9
:1026F0000DF0216E0A0EE15C02E2E16AE552E16E44
:102700002150E76E0C0EE7CFDBFF0C0EDB5047E1EC
:10271000FC0EDBCFE9FFFD0EDBCFEAFF0A0EE92658
:10272000000EEA22040EDBCFEEFF050EDBCFEEFF3C
:10273000060EDBCFEEFF070EDBCFEEFFFC0EDBCF8E
:10274000E9FFFD0EDBCFEAFF0E0EE926000EEA22BE
:10275000E868EE1808E1E868EE1805E1E868EE18A8
:1027600002E1E868EE1834E0FC0EDBCFE9FFFD0E75
:10277000DBCFEAFF0E0EE926000EEA22EE06EE5A45
:10278000EE5AEE5AFC0EDBCFE9FFFD0EDBCFEAFF7F
:10279000050EE926000EEA22010EEF6E19D00C0E8E
:1027A000DB0405E1216822682368246805D0010E56
:1027B000216E226A236A246A040E21C0DBFF050E03
:1027C00022C0DBFF060E23C0DBFF070E24C0DBFFA9
:1027D000040EDBCF21F0050EDBCF22F0060EDBCF9F
:1027E00023F0070EDBCF24F021C03FF022C040F0E1
:1027F00023C041F024C042F00D0EE15C02E2E16A28
:10280000E552E16EE552E5CFDAFFE7CFD9FF1200DE
:10281000D9CFE6FFDACFE6FFE1CFD9FFE2CFDAFF8B
:102820000A0EE12402E3E168E652E16EFC0EDBCF22
:10283000E9FFFD0EDBCFEAFF200EE926000EEA22BB
:10284000EECF21F0EFCF22F0040E2126000E22223F
:10285000080E21C0DBFF090E22C0DBFFFC0EDBCF20
:10286000E9FFFD0EDBCFEAFFEE50EFCFEAFFE96EA6
:10287000020EE926000EEA22EFCF21F0226A236A37
:10288000246AF80EDBCF3FF0F90EDBCF40F0FA0EF2
:10289000DBCF41F0FB0EDBCF42F0446A020E456E07
:1028A000466A476AB8EC70F021C044F022C045F097
:1028B00023C046F024C047F0B8EC70F03FC0DEFF04
:1028C00040C0DEFF41C0DEFF42C0DDFFDD52DD5211
:1028D000D950080FE96E000EDA20EA6EEECFF3FF52
:1028E000EDCFF4FF040EEE26000EEF22F3CFE9FF4A
:1028F000F4CFEAFF040EEECFDBFF050EEECFDBFFD9
:10290000060EEECFDBFF070EEECFDBFF040EDBCFB4
:1029100021F0050EDBCF22F0060EDBCF23F0070EF1
:10292000DBCF24F0215022102310241005E13F6A50
:10293000406A416A426A56D0040EDBCF21F0050E90
:10294000DBCF22F0060EDBCF23F0070EDBCF24F027
:10295000D9CFE9FFDACFEAFF2150EE5C2250EE58E2
:102960002350EE582450EE581BE3D9CFE9FFDACFBD
:10297000EAFF040EDB50EE5E050EDB50EE5A060E4B
:10298000DB50EE5A070EDB50EE5AD950080FE96EB5
:10299000000EDA20EA6E040EEE26000EEF2298D723
:1029A000080EDBCFE9FF090EDBCFEAFFEECF21F007
:1029B000EECF22F0EECF23F0EFCF24F0D9CFE9FF16
:1029C000DACFEAFFEE502126EE502222EE502322EB
:1029D000EE50242221C03FF022C040F023C041F03D
:1029E00024C042F00A0EE15C02E2E16AE552E16EC7
:1029F000E552E5CFDAFFE7CFD9FF1200D9CFE6FFE6
:102A0000DACFE6FFE1CFD9FFE2CFDAFF060EE1240D
:102A100002E3E168E652E16EFC0EDBCFE9FFFD0E5A
:102A2000DBCFEAFF040EE926000EEA22FA0EDBCF26
:102A3000EEFFFB0EDBCFEDFFFC0EDBCFE9FFFD0E63
:102A4000DBCFEAFF060EE926000EEA22EECFDFFF1B
:102A5000010EEECFDBFF020EEECFDBFF030EEECF5B
:102A6000DBFFD9CFE9FFDACFEAFF010EEE1805E16F
:102A7000EE5003E1EE5001E1EE5001E164D1FC0EB5
:102A8000DBCFE9FFFD0EDBCFEAFFEE50EFCFEAFF31
:102A9000E96E160EE926000EEA22EECF21F0EECF07
:102AA00022F0EECF23F0EFCF24F0D9CFE9FFDACF39
:102AB000EAFF2150EE5C2250EE582350EE5824508D
:102AC000EE5801E340D1D9CFE9FFDACFEAFFEECFEC
:102AD00021F0EECF22F0EECF23F0EFCF24F0215003
:102AE00022102310241026E1FC0EDBCFE9FFFD0E9F
:102AF000DBCFEAFFEE50EFCFEAFFE96EEF500308BD
:102B000019E1FC0EDBCFE9FFFD0EDBCFEAFFEE5053
:102B1000EFCFEAFFE96E260EE926000EEA22EECF9D
:102B2000DFFF010EEECFDBFF020EEECFDBFF030E69
:102B3000EECFDBFFD9CFE9FFDACFEAFFEECF21F00E
:102B4000EECF22F0EECF23F0EFCF24F02150221071
:102B5000231024105AE1FC0EDBCFE9FFFD0EDBCF82
:102B6000EAFF0A0EE926000EEA22DFCFEEFF010E91
:102B7000DBCFEEFF020EDBCFEEFF030EDBCFEEFF6F
:102B8000FA0EDBCF21F0FB0EDBCF22F0FC0EDBCF09
:102B9000E9FFFD0EDBCFEAFFEE50EFCFEAFFE96E73
:102BA000080EE926000EEA22EECF23F0EFCF24F044
:102BB0002350215C2450225801E3C5D0FA0EDBCF0C
:102BC00021F0FB0EDBCF22F0040E0F0B05E0D890B6
:102BD00022322132E806FBE1236A246AFC0EDBCFB5
:102BE000E9FFFD0EDBCFEAFFEE50EFCFEAFFE96E23
:102BF000260EE926000EEA22EE502126EE50222271
:102C0000EE502322EE50242216D1FC0EDBCFE9FF3A
:102C1000FD0EDBCFEAFFEE50EFCFEAFFE96E020ECA
:102C2000E926000EEA22EF50216E226A100E416E54
:102C3000426A21C046F022C047F0DCEC70F0040E7E
:102C40003FC0DBFF050E40C0DBFFFA0EDBCF21F0FB
:102C5000FB0EDBCF22F0040EDBCF23F0050EDBCF23
:102C600024F02350215C2450225801E27FD0D9CF98
:102C7000E9FFDACFEAFFEECFE6FFEECFE6FFEECFD9
:102C8000E6FFEFCFE6FFFC0EDBCFE9FFFD0EDBCF6B
:102C9000EAFFEECFE6FFEFCFE6FF96EC0AF0216EFB
:102CA000060EE15C02E2E16AE552E16E21503FC0AE
:102CB000DEFF40C0DEFF41C0DEFF42C0DDFFDD526F
:102CC000DD52D9CFE9FFDACFEAFFE868EE180BE171
:102CD000E868EE1808E1E868EE1805E1E868EE1823
:102CE00002E1010EEDD0D9CFE9FFDACFEAFF020E03
:102CF000EE5C000EEE58000EEE58000EEE5823E388
:102D0000FC0EDBCFE9FFFD0EDBCFEAFFEE50EFCF8D
:102D1000EAFFE96E160EE926000EEA22EECF21F058
:102D2000EECF22F0EECF23F0EFCF24F0D9CFE9FFA2
:102D3000DACFEAFF2150EE5C2250EE582350EE58D5
:102D40002450EE5802E3020EBBD0040EDBCF21F07C
:102D5000050EDBCF22F0D950FA0FE96EFF0EDA2014
:102D6000EA6E2150EE5E2250ED5A6FD7FC0EDBCF9B
:102D7000E9FFFD0EDBCFEAFF0A0EE926000EEA228C
:102D8000DFCFEEFF010EDBCFEEFF020EDBCFEEFF5B
:102D9000030EDBCFEEFFFA0EDBCF26F0FB0EDBCF10
:102DA00027F0040E0F0B05E0D89027322632E806F4
:102DB000FBE1286A296A26C0E6FF27C0E6FF28C093
:102DC000E6FF29C0E6FFD9CFE9FFDACFEAFFEECF71
:102DD000E6FFEECFE6FFEECFE6FFEFCFE6FFFC0E1D
:102DE000DBCFE9FFFD0EDBCFEAFFEECFE6FFEFCF53
:102DF000E6FF06EC0AF0256E060EE15C02E2E16AEF
:102E0000E552E16E2550E552E7CF29F0E552E7CFD4
:102E100028F0E552E7CF27F0E552E7CF26F03F5004
:102E20002624216E40502720226E41502820236EF8
:102E300042502920246EFC0EDBCFE9FFFD0EDBCFD4
:102E4000EAFF0E0EE926000EEA2221C0EEFF22C0A4
:102E5000EEFF23C0EEFF24C0EEFFFC0EDBCFE9FF48
:102E6000FD0EDBCFEAFFEE50EFCFEAFFE96E320E48
:102E7000E926000EEA22E9CF23F0EACF24F0FA0E89
:102E8000DBCF25F0FB0E266A0F0E2516050ED89017
:102E900025362636E806FBE123502524216E2450F2
:102EA0002620226EFC0EDBCFE9FFFD0EDBCFEAFF12
:102EB000120EE926000EEA2221C0EEFF22C0EDFF2D
:102EC000216E060EE15C02E2E16AE552E16E2150FC
:102ED000E552E5CFDAFFE7CFD9FF1200D9CFE6FF01
:102EE000DACFE6FFE1CFD9FFE2CFDAFF070EE12428
:102EF00002E3E168E652E16EFA0EDBCF41F0FB0E31
:102F0000DBCF42F0FA0E41C0DBFFFB0E42C0DBFF1D
:102F1000FC0EDBCFE9FFFD0EDBCFEAFF040EE92656
:102F2000000EEA22EECF21F0EFCF22F0010E212693
:102F3000000E2222040E21C0DBFF050E22C0DBFFA3
:102F4000D950040FE96E000EDA20EA6EEE50ED1053
:102F500001E109D1FC0EDBCFE9FFFD0EDBCFEAFF7B
:102F60000E0EE926000EEA22EECF21F0EECF22F07F
:102F7000EECF23F0EFCF24F02150221023102410A5
:102F800001E1F1D0040EDBCF21F0050E226A0F0E15
:102F900021162150221001E078D2FC0EDBCFE9FF90
:102FA000FD0EDBCFEAFF0E0EE926000EEA22EE2A26
:102FB000EE22EE22EE22FC0EDBCFE9FFFD0EDBCF90
:102FC000EAFF0A0EE926000EEA22EECF21F0EECF4C
:102FD00022F0EECF23F0EFCF24F021502210231067
:102FE00024101FE1040EDBCF21F0050EDBCF22F011
:102FF000FC0EDBCFE9FFFD0EDBCFEAFFEE50EFCF9B
:10300000EAFFE96E080EE926000EEA22EECF23F071
:10301000EFCF24F02350215C2450225801E235D216
:10302000A2D0040EDBCF23F0050EDBCF24F0040E7C
:103030000F0B05E0D89024322332E806FBE1FC0EAA
:10304000DBCFE9FFFD0EDBCFEAFFEE50EFCFEAFF6B
:10305000E96E020EE926000EEA22EF0400012314B5
:10306000216E226AE850221001E00FD2FC0EDBCF65
:10307000E9FFFD0EDBCFEAFF0A0EE926000EEA2289
:10308000EECFE6FFEECFE6FFEECFE6FFEFCFE6FFB7
:10309000FC0EDBCFE9FFFD0EDBCFEAFFEECFE6FF54
:1030A000EFCFE6FF96EC0AF0216E060EE15C02E23D
:1030B000E16AE552E16E21503FC0DEFF40C0DEFF15
:1030C00041C0DEFF42C0DDFFDD52DD52D9CFE9FF56
:1030D000DACFEAFFD880010EEE54000EEE54000E57
:1030E000EE54000EEE5401E390D0D9CFE9FFDACFD1
:1030F000EAFFE868EE180AE1E868EE1807E1E86818
:10310000EE1804E1E868EE1801E13FD1FC0EDBCFD8
:10311000E9FFFD0EDBCFEAFFEE50EFCFEAFFE96EED
:10312000160EE926000EEA22EECF21F0EECF22F0B5
:10313000EECF23F0EFCF24F0D9CFE9FFDACFEAFFCB
:103140002150EE5C2250EE582350EE582450EE5899
:1031500001E24ED1D950FA0FE96EFF0EDA20EA6E85
:10316000EE50ED1002E1040ED3D1FC0EDBCFE9FFEF
:10317000FD0EDBCFEAFF0A0EE926000EEA22EECFB3
:10318000E6FFEECFE6FFEECFE6FFEFCFE6FFFC0E69
:10319000DBCFE9FFFD0EDBCFEAFFEECFE6FFEFCF9F
:1031A000E6FF50EC11F0216E060EE15C02E2E16AEE
:1031B000E552E16E21503FC0DEFF40C0DEFF41C05E
:1031C000DEFF42C0DDFFDD52DD52D9CFE9FFDACFAD
:1031D000EAFFEECF21F0EECF22F0EECF23F0EFCFDB
:1031E00024F0215022102310241002E1070E90D168
:1031F000D9CFE9FFDACFEAFF010EEE1808E1EE5071
:1032000006E1EE5004E1EE5002E1020E81D1D9CF89
:10321000E9FFDACFEAFFE868EE180AE1E868EE189D
:1032200007E1E868EE1804E1E868EE1801E1ADD0C6
:10323000FC0EDBCFE9FFFD0EDBCFEAFFEECFE6FFB2
:10324000EFCFE6FFEDEC06F0E552E552000901E0B4
:103250009CD0E66A020EE66E000EE66EE66AFC0E92
:10326000DBCFE9FFFD0EDBCFEAFFEE50EFCFEAFF49
:10327000E96E320EE926000EEA22E9CF21F0EACF0C
:1032800022F0E9CFE6FFEACFE6FF18EC06F0236E66
:10329000060EE15C02E2E16AE552E16E2350D9CF0D
:1032A000E9FFDACFEAFFEECFE6FFEECFE6FFEECFA3
:1032B000E6FFEFCFE6FFFC0EDBCFE9FFFD0EDBCF35
:1032C000EAFFEECFE6FFEFCFE6FF06EC0AF0256E51
:1032D000060EE15C02E2E16AE552E16E25503FC074
:1032E00021F040C022F041C023F042C024F0FC0E87
:1032F000DBCFE9FFFD0EDBCFEAFFEE50EFCFEAFFB9
:10330000E96E2E0EE926000EEA223FC0EEFF22C033
:10331000EEFF23C0EEFF24C0EEFF060EDB6AFC0EBC
:10332000DBCFE9FFFD0EDBCFEAFFEE50EFCFEAFF88
:10333000E96E020EE926000EEA22EF50F36E060E49
:10334000DBCFF4FFF350F45C37E2FC0EDBCFE9FF98
:10335000FD0EDBCFEAFFEE50EFCFEAFFE96E040E81
:10336000E926000EEA22010EEF6EFC0EDBCFE9FF2C
:10337000FD0EDBCFEAFFEECFE6FFEFCFE6FFEDEC91
:1033800006F0E552E552000902E0010EC1D0FC0E44
:10339000DBCFE9FFFD0EDBCFEAFFEE50EFCFEAFF18
:1033A000E96E2E0EE926000EEA22EE2AEE22EE2229
:1033B000EE22060EDB2AB3D7060EDBCF21F0226AFF
:1033C000236A246AFC0EDBCFE9FFFD0EDBCFEAFFA8
:1033D000EE50EFCFEAFFE96E2E0EE926000EEA224C
:1033E0002150EE5E2250EE5A2350EE5A2450EE5AEF
:1033F000FC0EDBCFE9FFFD0EDBCFEAFF0A0EE9266C
:10340000000EEA22DFCFEEFF010EDBCFEEFF020E51
:10341000DBCFEEFF030EDBCFEEFFD9CFE9FFDACF34
:10342000EAFFEECFE6FFEECFE6FFEECFE6FFEFCF0F
:10343000E6FFFC0EDBCFE9FFFD0EDBCFEAFFEECFB0
:10344000E6FFEFCFE6FF06EC0AF0256E060EE15C24
:1034500002E2E16AE552E16E255040C022F041C02F
:1034600023F042C024F0FC0EDBCFE9FFFD0EDBCFE2
:10347000EAFF0E0EE926000EEA223FC0EEFF22C050
:10348000EEFF23C0EEFF24C0EEFFFC0EDBCFE9FF12
:10349000FD0EDBCFEAFF040EE926000EEA22040E41
:1034A000DBCFEEFF050EDBCFEDFFFC0EDBCFE9FF40
:1034B000FD0EDBCFEAFFEE50EFCFEAFFE96E320EF2
:1034C000E926000EEA22E9CF23F0EACF24F0040E29
:1034D000DBCF25F0050E266A0F0E2516050ED890B7
:1034E00025362636E806FBE123502524216E24509C
:1034F0002620226EFC0EDBCFE9FFFD0EDBCFEAFFBC
:10350000120EE926000EEA2221C0EEFF22C0EDFFD6
:10351000216E070EE15C02E2E16AE552E16E2150A4
:10352000E552E5CFDAFFE7CFD9FF1200D9CFE6FFAA
:10353000DACFE6FFE1CFD9FFE2CFDAFFE652E6527B
:10354000E652000EE66EE66AFC0EDBCFE6FFFD0EED
:10355000DBCFE6FFFEEC14F0E552E552E552E55212
:10356000DF6EDF5075E1010EDB6A020EDB6AFC0ED6
:10357000DBCFE9FFFD0EDBCFEAFF0E0EE926000EE2
:10358000EA22EECFE6FFEECFE6FFEECFE6FFEFCF8B
:10359000E6FFFC0EDBCFE9FFFD0EDBCFEAFFEECF4F
:1035A000E6FFEFCFE6FF35EC08F0216E060EE15C9A
:1035B00002E2E16AE552E16E2150DF6EDF5048E140
:1035C000FC0EDBCFE9FFFD0EDBCFEAFF120EE92692
:1035D000000EEA22EE50EFCFEAFFE96EEF50E50869
:1035E00010E0FC0EDBCFE9FFFD0EDBCFEAFF120E91
:1035F000E926000EEA22EE50EFCFEAFFE96EEF5027
:1036000012E1010EDB2ADBCF21F0020E01E3DB2AFF
:10361000DBCF22F0FA0EDB50211809E1FB0EDB5064
:10362000221805E115D0010EDB6A020EDB6A010EDD
:10363000E66EE66AFC0EDBCFE6FFFD0EDBCFE6FFB3
:103640004DDCE552E552E552E552DF6EDF508FE08A
:10365000040EDF5C02E1070EDF6EDF50E552E5523B
:10366000E552E552E5CFDAFFE7CFD9FF1200D9CF17
:10367000E6FFDACFE6FFE1CFD9FFE2CFDAFFE6528D
:10368000E652E652E6521A0EE76EFA0EDBCFE9FF7B
:10369000FB0EDBCFEAFFE750E926000EEA22EECF71
:1036A00021F0EFCF22F021C0DFFF010E22C0DBFFAF
:1036B000020EDB6A030EDB6AFC0EDBCFE9FFFD0EB8
:1036C000DBCFEAFFEF50030826E1140EE76EFA0E97
:1036D000DBCFE9FFFB0EDBCFEAFFE750E926000E68
:1036E000EA22EECF21F0EFCF22F0236A246A100EF7
:1036F0001F0B07E0D8902136223623362436E80601
:10370000F9E12150DE122250DE122350DE12245045
:10371000DD12DD52DD52DECF3FF0DECF40F0DECFF6
:1037200041F0DDCF42F0DD52DD52040EE15C02E2F9
:10373000E16AE552E16EE552E5CFDAFFE7CFD9FF66
:103740001200D9CFE6FFDACFE6FFE1CFD9FFE2CF13
:10375000DAFF1A0EE76EFC0EDBCFE9FFFD0EDBCFC2
:10376000EAFFE750E926000EEA22F80EDBCFEEFF73
:10377000F90EDBCFEDFFF80EDBCF21F0F90EDBCF3A
:1037800022F0FA0EDBCF23F0FB0EDBCF24F0100E7D
:10379000D8902432233222322132E806F9E1140E85
:1037A000E76EFC0EDBCFE9FFFD0EDBCFEAFFE75053
:1037B000E926000EEA2221C0EEFF22C0EDFFE5520D
:1037C000E5CFDAFFE7CFD9FF1200D9CFE6FFDACF96
:1037D000E6FFE1CFD9FFE2CFDAFFE652E652E6524A
:1037E000E652000EE66EE66AFC0EDBCFE6FFFD0E4B
:1037F000DBCFE6FFFEEC14F0E552E552E552E55270
:10380000DF6EDF5002E0DF5092D0FC0EDBCFE9FF2D
:10381000FD0EDBCFEAFF0E0EE926000EEA22EECF08
:10382000E6FFEECFE6FFEECFE6FFEFCFE6FFFC0EC2
:10383000DBCFE9FFFD0EDBCFEAFFEECFE6FFEFCFF8
:10384000E6FF35EC08F0216E060EE15C02E2E16A6B
:10385000E552E16E2150DF6EDF5068E1FC0EDBCFF8
:10386000E9FFFD0EDBCFEAFF120EE926000EEA2289
:10387000020EEECFDBFF030EEDCFDBFF020EDBCF40
:10388000E9FF030EDBCFEAFF010EEFCFDBFFDB50DA
:1038900003E1040EDF6E4AD00B0EE76E020EDBCFA3
:1038A000E9FF030EDBCFEAFFE750E926000EEA222C
:1038B000EF50080B28E10B0EE66EE66AFC0EDBCF3C
:1038C000E9FFFD0EDBCFEAFF140EE926000EEA2227
:1038D000EECFE6FFEFCFE6FF020EDBCFE6FF030EF3
:1038E000DBCFE6FF47EC06F0236E060EE15C02E25A
:1038F000E16AE552E16E2350F3CF21F0F4CF22F0DC
:10390000F350F41013E0000EE66EE66AFC0EDBCF17
:10391000E6FFFD0EDBCFE6FF6EEC17F0E552E55259
:10392000E552E552DF6EDF5001E16FD7DF50216EC7
:10393000040EE15C02E2E16AE552E16E2150E552DB
:10394000E5CFDAFFE7CFD9FF1200D9CFE6FFDACF14
:10395000E6FFE1CFD9FFE2CFDAFFE652E652E652C8
:10396000E652E652040EDF6EFC0EDBCFE9FFFD0EE1
:10397000DBCFEAFF0E0EE926000EEA22EECF21F0A1
:10398000EECF22F0EECF23F0EFCF24F02150221023
:103990002310241001E18BD0FC0EDBCFE9FFFD0EDC
:1039A000DBCFEAFF0E0EE926000EEA22EECFE6FF9D
:1039B000EECFE6FFEECFE6FFEFCFE6FFFC0EDBCF6C
:1039C000E9FFFD0EDBCFEAFFEECFE6FFEFCFE6FF2C
:1039D00035EC08F0216E060EE15C02E2E16AE55288
:1039E000E16E2150DF6EDF5062E1FC0EDBCFE9FFBC
:1039F000FD0EDBCFEAFF120EE926000EEA22030ECF
:103A0000EECFDBFF040EEDCFDBFF030EDBCFE9FFD4
:103A1000040EDBCFEAFF020EEFCFDBFFDB5003E14A
:103A2000040EDF6E44D00B0EE76E030EDBCFE9FF12
:103A3000040EDBCFEAFFE750E926000EEA22EF5042
:103A40003F0BE76E010EE7CFDBFF020EDB50E50810
:103A50001BE0020EDB502E0817E0010EDB500F08B2
:103A600013E0010EDB50080802E0000E01D0010E49
:103A7000216E226A21BE2268FA0EDB50211804E171
:103A8000FB0EDB50221813E0000EE66EE66AFC0E19
:103A9000DBCFE6FFFD0EDBCFE6FF6EEC17F0E55265
:103AA000E552E552E552DF6EDF5001E15DD7DF50B0
:103AB0000EE0FC0EDBCFE9FFFD0EDBCFEAFF0E0EC2
:103AC000E926000EEA22EE6AEE6AEE6AEE6ADF503E
:103AD000216E050EE15C02E2E16AE552E16E2150E1
:103AE000E552E5CFDAFFE7CFD9FF1200D9CFE6FFE5
:103AF000DACFE6FFE1CFD9FFE2CFDAFFE652010EDF
:103B0000E66EE66AFC0EDBCFE6FFFD0EDBCFE6FFDE
:103B10000DDDE552E552E552E552DF6EDF5001E082
:103B200080D0FC0EDBCFE9FFFD0EDBCFEAFF0E0EEF
:103B3000E926000EEA22EECFE6FFEECFE6FFEECF5B
:103B4000E6FFEFCFE6FFFC0EDBCFE9FFFD0EDBCF9C
:103B5000EAFFEECFE6FFEFCFE6FF35EC08F0216E8F
:103B6000060EE15C02E2E16AE552E16E2150DF6E91
:103B7000DF5057E1200EE66EE66A000EE66EE66A5A
:103B8000FC0EDBCFE9FFFD0EDBCFEAFF120EE926CC
:103B9000000EEA22EECFE6FFEFCFE6FF18EC06F0CC
:103BA000216E060EE15C02E2E16AE552E16E21500F
:103BB0000B0EE66EE66AFC0EDBCFE9FFFD0EDBCFF7
:103BC000EAFF140EE926000EEA22EECFE6FFEFCF61
:103BD000E6FFFC0EDBCFE9FFFD0EDBCFEAFF120EA6
:103BE000E926000EEA22EECFE6FFEFCFE6FF96ECE5
:103BF00005F0216E060EE15C02E2E16AE552E16E3B
:103C00002150FC0EDBCFE9FFFD0EDBCFEAFFEE50CB
:103C1000EFCFEAFFE96E040EE926000EEA22010E5C
:103C2000EF6EDF50E552E552E5CFDAFFE7CFD9FF7F
:103C30001200D9CFE6FFDACFE6FFE1CFD9FFE2CF1E
:103C4000DAFF0D0EE12402E3E168E652E16EFA0EBE
:103C5000DBCFE9FFFB0EDBCFEAFF0B0EEECFDBFF86
:103C60000C0EEDCFDBFF0B0EDBCFE9FF0C0EDBCF35
:103C7000EAFFEF502F0809E00B0EDBCFE9FF0C0E37
:103C8000DBCFEAFFEF505C0806E10B0EDB2A0C0EDF
:103C9000EAE3DB2AE8D7FC0EDBCFE9FFFD0EDBCF42
:103CA000EAFF140EE926000EEA22030EEECFDBFF38
:103CB000040EEDCFDBFF0B0EE66EE66A200EE66E1D
:103CC000E66A030EDBCFE6FF040EDBCFE6FF18EC5F
:103CD00006F0216E060EE15C02E2E16AE552E16E59
:103CE0002150000EDF6EE66ED950090FE96E000E0E
:103CF000DA20EA6EE552E750EE6EED6AE66ED950D4
:103D0000070FE96E000EDA20EA6EE552E750EE6E1C
:103D1000ED6A080EF36E050EF3CFDBFF060EDB6ACD
:103D2000070EDBCF21F0DB2A080EDBCF22F001E308
:103D3000DB2A0B0EDB502124E96E0C0EDB50222017
:103D4000EA6E010EEFCFDBFFDB50200801E39CD0D1
:103D5000010EDB502F0801E197D0010EDB505C080B
:103D600001E192D0010EDB502E0811E0090EDBCFED
:103D700021F00A0EDBCF22F0050EDBCF23F0060E7A
:103D8000DBCF24F02350215C2450225825E3D95066
:103D9000050FE96E000EDA20EA6E080EEE1801E05B
:103DA0009FD0ED5001E09CD0010EDB502E0801E0C9
:103DB00097D0080EF36E090EF3CFDBFF0A0EDB6A15
:103DC0000B0EF36E050EF3CFDBFF060EDB6A040E5F
:103DD000DF02F3CFDFFFA4D7800EF36E010EDBCF3F
:103DE000F4FFF350F45C04E3000EDF80DF8278D050
:103DF000010EDBCFE6FFE66A560EE66EE20EE66ED9
:103E0000ACEC06F0E552E552E552E552F350F41001
:103E100067E1410EF36E010EDBCFF4FFF350F45C6B
:103E200006E3010EDB505A0802E3DF8218D0610E70
:103E3000F36E010EDBCFF4FFF350F45C10E3010EE0
:103E4000DB507A080CE3000EDF80200E216E010E9D
:103E5000DBCFE7FF2150E75E010EE7CFDBFF090E66
:103E6000DBCF21F0DB2A0A0EDBCF22F001E3DB2AD5
:103E7000030EDB502124E96E040EDB502220EA6E93
:103E8000010EDBCFEFFF4CD7070EDBCF23F0080E80
:103E9000DBCF24F00B0EDB502324216E0C0EDB5005
:103EA0002420226EFA0EDBCFE9FFFB0EDBCFEAFF08
:103EB00021C0EEFF22C0EDFF010EDB50200802E31F
:103EC000040E01D0000EE76E010EE7CFDBFFD950E4
:103ED000090FE96E000EDA20EA6EEE50ED1002E1F5
:103EE000060E3CD0030EDBCFE9FF040EDBCFEAFF6A
:103EF000EF50E50808E1030EDBCFE9FF040EDBCF4E
:103F0000EAFF050EEF6ED950050FE96E000EDA20BC
:103F1000EA6E080EEE1806E1ED5004E1040EDF0231
:103F2000F3CFDFFF030EDF14010802E1010EDB888F
:103F30000C0EDF14040802E1010EDB860B0EE76EA7
:103F4000030EDBCFE9FF040EDBCFEAFFE750E926E3
:103F5000000EEA22010EDBCFEFFF000E216E0D0EE8
:103F6000E15C02E2E16AE552E16E2150E552E5CF03
:103F7000DAFFE7CFD9FF1200D9CFE6FFDACFE6FFAD
:103F8000E1CFD9FFE2CFDAFF080EE12402E3E168D6
:103F9000E652E16EFA0EDBCFE9FFFB0EDBCFEAFF64
:103FA000090EE926000EEA22050EE9CFDBFF060E18
:103FB000EACFDBFFFC0EDBCFE9FFFD0EDBCFEAFF34
:103FC0000E0EE926000EEA22EECF21F0EECF22F00F
:103FD000EECF23F0EFCF24F0215022102310241035
:103FE00001E118D1FC0EDBCFE9FFFD0EDBCFEAFFCC
:103FF000120EE926000EEA22030EEECFDBFF040EBE
:10400000EDCFDBFF0C0EE76E030EDBCFE9FF040EF6
:10401000DBCFEAFFE750E926000EEA22020EEFCFDF
:10402000DBFFDE6ADD6ADECF21F0DDCF22F0080E95
:10403000215C000E22582CE2030EDBCF21F0040E8F
:10404000DBCF22F0DE502124E96EDD502220EA6E23
:10405000070EEFCFDBFFDB5020081AE0070EDB5026
:10406000050805E1E50EF36E070EF3CFDBFF050E45
:10407000DBCFE9FFDB2A060EDBCFEAFF01E3DB2A19
:10408000070EDBCFEFFFDF2A010ECDE3DB2ACBD714
:10409000080EE76E030EDBCFE9FF040EDBCFEAFF6D
:1040A000E750E926000EEA22EF5020083AE0050E1C
:1040B000DBCFE9FFDB2A060EDBCFEAFF01E3DB2AD9
:1040C0002E0EEF6E080EDE6EDD6ADECF21F0DDCF44
:1040D00022F00B0E215C000E225823E2030EDBCFF0
:1040E00021F0040EDBCF22F0DE502124E96EDD50FA
:1040F0002220EA6E070EEFCFDBFFDB50200811E035
:10410000050EDBCFE9FFDB2A060EDBCFEAFF01E37A
:10411000DB2A070EDBCFEFFFDF2A010ED6E3DB2A17
:10412000D4D70B0EE76E030EDBCFE9FF040EDBCF17
:10413000EAFFE750E926000EEA22EF50E66EFA0E9B
:10414000DBCFE9FFFB0EDBCFEAFF080EE926000E0E
:10415000EA22E552E750EF6E1C0EE76E030EDBCF4E
:10416000E9FF040EDBCFEAFFE750E926000EEA2262
:10417000EECF21F0EECF22F0EECF23F0EFCF24F000
:10418000FA0EDBCFE9FFFB0EDBCFEAFF21C0EEFF2B
:1041900022C0EEFF23C0EEFF24C0EEFF180EE76E34
:1041A000030EDBCFE9FF040EDBCFEAFFE750E92681
:1041B000000EEA22EECF21F0EFCF22F0FA0EDBCF95
:1041C000E9FFFB0EDBCFEAFF040EE926000EEA2230
:1041D00021C0EEFF22C0EDFF160EE76E030EDBCF0F
:1041E000E9FF040EDBCFEAFFE750E926000EEA22E2
:1041F000EECF21F0EFCF22F0FA0EDBCFE9FFFB0E7E
:10420000DBCFEAFF060EE926000EEA2221C0EEFF10
:1042100022C0EDFF050EDBCFE9FF060EDBCFEAFF84
:10422000EF6A080EE15C02E2E16AE552E16EE552F6
:10423000E5CFDAFFE7CFD9FF1200D9CFE6FFDACF1B
:10424000E6FFE1CFD9FFE2CFDAFFE652E652E652CF
:10425000E652FA0EDBCFE9FFFB0EDBCFEAFFEF50B1
:104260002F0809E0FA0EDBCFE9FFFB0EDBCFEAFFF8
:10427000EF505C0805E1FA0EDB2AFB0E01E3DB2AB6
:10428000FC0EDBCFE9FFFD0EDBCFEAFF060EE926D1
:10429000000EEA22EE6AEE6AEE6AEE6AFA0EDBCFF2
:1042A000E9FFFB0EDBCFEAFFEFCF21F0226A21BE50
:1042B0002268200E215C000E22581BE2000EE66EE2
:1042C000E66AFC0EDBCFE6FFFD0EDBCFE6FFFEEC81
:1042D00014F0E552E552E552E552DF6EFC0EDBCFFD
:1042E000E9FFFD0EDBCFEAFF120EEB6A130EEB6A5D
:1042F00094D0D950FA0FE66EFF0EDA20E66EFC0E6F
:10430000DBCFE6FFFD0EDBCFE6FF93DCE552E552A7
:10431000E552E552DF6EDF5001E07FD0FC0EDBCFCF
:10432000E6FFFD0EDBCFE6FFE5EC1BF0E552E552C4
:10433000DF6EFC0EDBCFE9FFFD0EDBCFEAFF140ED4
:10434000E926000EEA22EE50EFCFEAFFE96E0B0EEF
:10435000E926000EEA22030EEFCFDBFFDF5007E075
:10436000040EDF5C5AE1030EDBB457D022D0030EFB
:10437000DBB453D0FC0EDBCFE9FFFD0EDBCFEAFF51
:10438000120EE926000EEA22010EEECFDBFF020E2E
:10439000EDCFDBFF0B0EE76E010EDBCFE9FF020E68
:1043A000DBCFEAFFE750E926000EEA22EF50100BC0
:1043B00003E1050EDF6E31D0010EDBCFE6FF020E0A
:1043C000DBCFE6FFFC0EDBCFE9FFFD0EDBCFEAFF24
:1043D000EECFE6FFEFCFE6FF37EC1BF0E552E552FC
:1043E000E552E5523FC021F040C022F041C023F029
:1043F00042C024F0FC0EDBCFE9FFFD0EDBCFEAFF6D
:10440000060EE926000EEA223FC0EEFF22C0EEFFB4
:1044100023C0EEFF24C0EEFF6CD7DF50216E040EE8
:10442000E15C02E2E16AE552E16E2150E552E5CF3E
:10443000DAFFE7CFD9FF1200D9CFE6FFDACFE6FFE8
:10444000E1CFD9FFE2CFDAFF010EE66ED950F80FC7
:10445000E96EFF0EDA20EA6EEECFE6FFEECFE6FF62
:10446000EECFE6FFEFCFE6FFFC0EDBCFE9FFFD0E60
:10447000DBCFEAFF320EE926000EEA22E9CF21F077
:10448000EACF22F0E9CFE6FFEACFE6FFFC0EDBCF72
:10449000E9FFFD0EDBCFEAFFEE52EF50E66E82EC55
:1044A0005EF0236E080EE15C02E2E16AE552E16E25
:1044B0002350000902E0030E63D0FC0EDBCFE9FFBE
:1044C000FD0EDBCFEAFF320EE926000EEA22FE0ED9
:1044D000E926010EEA22550EEE1802E1AA0EED18A9
:1044E00002E0020E4DD0216822682368246AFC0E87
:1044F000DBCFE9FFFD0EDBCFEAFF320EE926000E2F
:10450000EA22360EE926000EEA22EE502116EE507F
:104510002216EE502316EE502416460E211808E1FE
:10452000410E221805E1540E231802E1245025E023
:10453000216822682368246AFC0EDBCFE9FFFD0EA8
:10454000DBCFEAFF320EE926000EEA22520EE92600
:10455000000EEA22EE502116EE502216EE502316DF
:10456000EE502416460E21180AE1410E221807E1EA
:10457000540E231804E1245002E1000E01D0010E74
:10458000E552E5CFDAFFE7CFD9FF1200D9CFE6FF3A
:10459000DACFE6FFE1CFD9FFE2CFDAFF260EE12442
:1045A00002E3E168E652E16EFC0EDBCFE9FFFD0EAF
:1045B000DBCFEAFF220EEECFDBFF230EEDCFDBFFDA
:1045C000220EDBCFE9FF230EDBCFEAFFEF50D00F47
:1045D000E66ED950050FE96E000EDA20EA6EE5525C
:1045E000E750EE6EED6AD950050FE96E000EDA2045
:1045F000EA6E090ED880EE54000EED5426E3010E4B
:10460000E76E220EDBCFE9FF230EDBCFEAFFE75098
:10461000E926000EEA22EF503A0817E1D950220F9E
:10462000E96E000EDA20EA6E020EEE26000EED2292
:10463000FC0EDBCFE9FFFD0EDBCFEAFF220EDBCF66
:10464000EEFF230EDBCFEDFF04D0050EDB6A060E76
:10465000DB6AFA0EDBCFE9FFFB0EDBCFEAFFEE6A87
:10466000ED6A050EDBCF21F0060EDBCF22F0010E46
:10467000215C000E225803E30B0EEBEF29F0050E30
:10468000DBCFE9FF060EDBCFEAFF010ED890E9365B
:10469000EA36E806FBE1000EE9260F0EEA22240EB8
:1046A000EECFDBFF250EEDCFDBFFD950240FE96EF7
:1046B000000EDA20EA6EEE50ED1003E10C0EEBEF87
:1046C00029F0FA0EDBCFE9FFFB0EDBCFEAFF240E69
:1046D000DBCFEEFF250EDBCFEDFF240EDBCFE9FFB6
:1046E000250EDBCFEAFFEF501CE0240EDBCFE9FF05
:1046F000250EDBCFEAFFEE52EF50E66E6DEC5EF07A
:10470000E552E76E070EE7CFDBFFDBB00AD0F90E0C
:10471000DB5004E0070EDB50040B30E1000EEBEF42
:1047200029F0240EDBCFE9FF250EDBCFEAFFEF6A8D
:10473000240EDBCFE9FF250EDBCFEAFFEE52050E9C
:10474000DBCFEFFF240EDBCFE9FF250EDBCFEAFF47
:10475000EE52EF50E66E2CEC5DF0E552E76E070E80
:10476000E7CFDBFFDBA003D0030EEBEF29F0F90E60
:10477000DB5007E0070EDB50040B03E00A0EEBEF03
:1047800029F0080EDB6A090EDB6A0A0EDB6A0B0EE3
:10479000DB6AE66AE66AE66AE66A240EDBCFE6FFD3
:1047A000250EDBCFE6FF48DE216E060EE15C02E25D
:1047B000E16AE552E16E2150DF6EDF046CE1020E2A
:1047C000DB6ADB5002E0020EDB06240EDBCFE9FFE2
:1047D000250EDBCFEAFF320EE926000EEA22E9CFF2
:1047E00023F0EACF24F0020EDB50100DF350266ABE
:1047F000BE0F256E010E2622E9502524216EEA50B7
:104800002620226E030E21C0DBFF040E22C0DBFF38
:10481000E76E030EDBCFE9FF040EDBCFEAFFE750C4
:10482000E926000EEA22EF5036E0080EE76E030E8E
:10483000DBCFE9FF040EDBCFEAFFE750E926000EED
:10484000EA22080EEECFDBFF090EEECFDBFF0A0EE9
:10485000EECFDBFF0B0EEECFDBFFD950080FE96E7A
:10486000000EDA20EA6EEECFE6FFEECFE6FFEECFE7
:10487000E6FFEFCFE6FF240EDBCFE6FF250EDBCF12
:10488000E6FFDADD216E060EE15C02E2E16AE55246
:10489000E16E2150DF6E030EDF5C03E1010EEBEFF2
:1048A00029F0DF5002E085EF28F0240EDBCFE9FF8E
:1048B000250EDBCFEAFF320EE926000EEA220B0EB0
:1048C000E926000EEA22EE5002E085EF28F0020E03
:1048D000ED1802E085EF28F0240EDBCFE9FF250E6E
:1048E000DBCFEAFF320EE926000EEA22160EE92699
:1048F000000EEA22EECF21F0EFCF22F00C0E21C005
:10490000DBFF0D0E22C0DBFF0E0EDB6A0F0EDB6A33
:104910000C0EDBCF21F00D0EDBCF22F00E0EDBCF25
:1049200023F00F0EDBCF24F021502210231024108F
:104930001AE1240EDBCFE9FF250EDBCFEAFF320EB2
:10494000E926000EEA22240EE926000EEA220C0EC9
:10495000EECFDBFF0D0EEECFDBFF0E0EEECFDBFF5B
:104960000F0EEECFDBFF240EDBCFE9FF250EDBCFF2
:10497000EAFF1A0EE926000EEA220C0EDBCFEEFF4C
:104980000D0EDBCFEEFF0E0EDBCFEEFF0F0EDBCFFB
:10499000EEFF240EDBCFE9FF250EDBCFEAFF320E60
:1049A000E926000EEA22100EE926000EEA22010E88
:1049B000EFCFDBFF240EDBCFE9FF250EDBCFEAFFD5
:1049C000030EE926000EEA22010EDBCFEFFFDB0427
:1049D00005E0010EDB50020801E097D3010EDBCFAA
:1049E00021F0226A236A246AD9500C0FE96E000E66
:1049F000DA20EA6E21C044F022C045F023C046F020
:104A000024C047F0EECF3FF0EECF40F0EECF41F0C4
:104A1000EFCF42F05BEC70F03EC0EDFF3DC0EDFF2C
:104A20003CC0EDFF3BC0EFFF240EDBCFE9FF250EBE
:104A3000DBCFEAFF320EE926000EEA220D0EE92650
:104A4000000EEA22010EEFCFDBFF240EDBCFE9FFE1
:104A5000250EDBCFEAFF020EE926000EEA22010E48
:104A6000DBCFEFFFDB5001E150D3010EDBCFE6FFE0
:104A7000DB04E552E71401E048D3240EDBCFE9FF65
:104A8000250EDBCFEAFF320EE926000EEA22110ED8
:104A9000E926000EEA22EECF21F0EFCF22F0240E1D
:104AA000DBCFE9FF250EDBCFEAFF080EE926000E7B
:104AB000EA2221C0EEFF22C0EDFF240EDBCFE9FF8A
:104AC000250EDBCFEAFF080EE926000EEA22EECF24
:104AD00021F00001226A0F0E21162150221001E060
:104AE00014D3240EDBCFE9FF250EDBCFEAFF320E15
:104AF000E926000EEA22130EE926000EEA22EECF86
:104B000021F0EFCF22F0100E21C0DBFF110E22C0EA
:104B1000DBFF120EDB6A130EDB6A100EDBCF21F017
:104B2000110EDBCF22F0120EDBCF23F0130EDBCF02
:104B300024F021502210231024101AE1240EDBCF80
:104B4000E9FF250EDBCFEAFF320EE926000EEA224E
:104B5000200EE926000EEA22100EEECFDBFF110E2A
:104B6000EECFDBFF120EEECFDBFF130EEECFDBFF3F
:104B7000240EDBCFE9FF250EDBCFEAFF320EE9265C
:104B8000000EEA220E0EE926000EEA22200EEECFDB
:104B9000DBFF210EEDCFDBFFD950200FE96E000EB9
:104BA000DA20EA6EEE50ED1001E1AFD2200EDBCF3D
:104BB00025F0210EDBCF26F0276A286AD9500C0F8A
:104BC000E96E000EDA20EA6E2550EE24216E2650A2
:104BD000EE20226E2750EE20236E2850EE20246E09
:104BE000240EDBCFE9FF250EDBCFEAFF080EE92616
:104BF000000EEA22EECF29F0EFCF2AF0040E0F0BC1
:104C000005E0D8902A322932E806FBE12B6A2C6AAB
:104C1000295021262A5022222B5023222C50242294
:104C2000140E21C0DBFF150E22C0DBFF160E23C0C1
:104C3000DBFF170E24C0DBFF140EDBCF21F0150EB7
:104C4000DBCF22F0160EDBCF23F0170EDBCF24F0E4
:104C5000D950100FE96E000EDA20EA6E2150EE5C9A
:104C60002250EE582350EE582450EE5801E24DD217
:104C7000240EDBCFE9FF250EDBCFEAFF020EE9268B
:104C8000000EEA22EFCF29F02A6A2B6A2C6A100E56
:104C9000DBCF25F0110EDBCF26F0120EDBCF27F095
:104CA000130EDBCF28F0D950140FE96E000EDA2076
:104CB000EA6EEE50255C216EEE502658226EEE50C4
:104CC0002758236EEE502858246E21C03FF022C092
:104CD00040F023C041F0426E29C044F02AC045F0A4
:104CE0002BC046F02CC047F0B8EC70F0180E3FC057
:104CF000DBFF190E40C0DBFF1A0E41C0DBFF1B0EAD
:104D000042C0DBFF180EDBCF21F0190EDBCF22F003
:104D10001A0EDBCF23F01B0EDBCF24F02150221024
:104D20002310241001E1F1D1010EDF6ED950180FCC
:104D3000E96E000EDA20EA6EF60EEE5C0F0EEE580B
:104D4000000EEE58000EEE5802E3020EDF6ED95050
:104D5000180FE96E000EDA20EA6EF60EEE5CFF0E1A
:104D6000EE58000EEE58000EEE5802E3030EDF6E12
:104D7000020E216E226A236A246AD950180FE96E46
:104D8000000EDA20EA6EEE502126EE502222EE507E
:104D90002322EE502422240EDBCFE9FF250EDBCFA9
:104DA000EAFF160EE926000EEA2221C0EEFF22C01D
:104DB000EEFF23C0EEFF24C0EEFF240EDBCFE9FFA1
:104DC000250EDBCFEAFF1E0EE926000EEA22080EB2
:104DD000DBCFEEFF090EDBCFEEFF0A0EDBCFEEFFDF
:104DE0000B0EDBCFEEFF200EDBCF21F0210EDBCF51
:104DF00022F0236A246AD950080FE96E000EDA20E7
:104E0000EA6EEE502126EE502222EE502322EE5082
:104E10002422240EDBCFE9FF250EDBCFEAFF220E92
:104E2000E926000EEA2221C0EEFF22C0EEFF23C0D9
:104E3000EEFF24C0EEFF140EDBCF21F0150EDBCF0A
:104E400022F0160EDBCF23F0170EDBCF24F0D95063
:104E5000080FE96E000EDA20EA6EEE502126EE50C1
:104E60002222EE502322EE502422240EDBCFE9FF33
:104E7000250EDBCFEAFF2A0EE926000EEA2221C02A
:104E8000EEFF22C0EEFF23C0EEFF24C0EEFF030EB4
:104E9000DF5C5CE1240EDBCFE9FF250EDBCFEAFF10
:104EA000080EE926000EEA22EE50ED1001E02DD1A9
:104EB000240EDBCFE9FF250EDBCFEAFF320EE92619
:104EC000000EEA222C0EE926000EEA22EECF21F097
:104ED000EECF22F0EECF23F0EFCF24F0240EDBCF85
:104EE000E9FF250EDBCFEAFF260EE926000EEA22B7
:104EF00021C0EEFF22C0EEFF23C0EEFF24C0EEFF74
:104F0000240EDBCFE9FF250EDBCFEAFF160EE926E4
:104F1000000EEA22EECF3FF0EECF40F0EECF41F0B0
:104F2000EFCF42F0040E446E456A466A476A5BEC76
:104F300070F01C0E3BC0DBFF1D0E3CC0DBFF1E0EE5
:104F40003DC0DBFF1F0E3EC0DBFFB1D0240EDBCF28
:104F5000E9FF250EDBCFEAFF080EE926000EEA2264
:104F6000EE50ED1001E1D1D00C0EDBCF21F00D0E93
:104F7000DBCF22F00E0EDBCF23F00F0EDBCF24F0C1
:104F8000240EDBCFE9FF250EDBCFEAFF220EE92658
:104F9000000EEA22EE502126EE502222EE5023226D
:104FA000EE502422240EDBCFE9FF250EDBCFEAFFF3
:104FB000260EE926000EEA2221C0EEFF22C0EEFFF7
:104FC00023C0EEFF24C0EEFF020EDF5C18E1240ECA
:104FD000DBCFE9FF250EDBCFEAFF160EE926000E38
:104FE000EA22EECF21F0EECF22F0EECF23F0EFCF8A
:104FF00024F0D89021362236233624364CD0010EA8
:10500000256E266A276A286A240EDBCFE9FF250E63
:10501000DBCFEAFF160EE926000EEA22EE50251637
:10502000EE502616EE502716EE502816240EDBCF33
:10503000E9FF250EDBCFEAFF160EE926000EEA2275
:10504000EECF3FF0EECF40F0EECF41F0EFCF42F0A9
:10505000030E446E456A466A476A5BEC70F03BC0DB
:105060003FF03CC040F03DC041F03EC042F0020E77
:10507000446E456A466A476AB8EC70F03F500001DA
:105080002524216E40502620226E41502720236E79
:1050900042502820246E1C0E21C0DBFF1D0E22C0B2
:1050A000DBFF1E0E23C0DBFF1F0E24C0DBFF1C0E28
:1050B000DBCF21F01D0EDBCF22F01E0EDBCF23F065
:1050C0001F0EDBCF24F0FF0E2126010E2222000E40
:1050D00023222422090ED890243223322232213274
:1050E000E806F9E1240EDBCFE9FF250EDBCFEAFF6E
:1050F0001A0EE926000EEA222150EE5C2250EE58EC
:105100002350EE582450EE5802E20D0E64D1240EC6
:10511000DBCFE9FF250EDBCFEAFF0E0EE926000EFE
:10512000EA22EE68EE68EE68EE68240EDBCFE9FF57
:10513000250EDBCFEAFF0A0EE926000EEA22EE6A10
:10514000EE6AEE6AEE6A030EDF5C01E011D1240E16
:10515000DBCFE9FF250EDBCFEAFF050EE926000EC7
:10516000EA22EF6A240EDBCFE9FF250EDBCFEAFF50
:10517000320EE926000EEA22300EE926000EEA225F
:10518000EECF21F0EFCF22F0236A246AD950080F26
:10519000E96E000EDA20EA6EEE502126EE50222251
:1051A000EE502322EE502422240EDBCFE9FF250E01
:1051B000DBCFEAFF120EE926000EEA2221C0EEFF45
:1051C00022C0EEFF23C0EEFF24C0EEFF010EE66E0C
:1051D000240EDBCFE9FF250EDBCFEAFF120EE92616
:1051E000000EEA22EECFE6FFEECFE6FFEECFE6FFBF
:1051F000EFCFE6FF240EDBCFE9FF250EDBCFEAFF82
:10520000320EE926000EEA22E9CF21F0EACF22F0A1
:10521000E9CFE6FFEACFE6FF240EDBCFE9FF250E5C
:10522000DBCFEAFFEE52EF50E66E82EC5EF0236ECB
:10523000080EE15C02E2E16AE552E16E23500009EA
:1052400001E096D0240EDBCFE9FF250EDBCFEAFF8D
:10525000320EE926000EEA22FE0EE926010EEA22AF
:10526000550EEE1801E084D0AA0EED1801E080D0B2
:10527000240EDBCFE9FF250EDBCFEAFF320EE92655
:10528000000EEA22520EEE1873E1520EEE1870E193
:10529000610EEE186DE1410EEE186AE1240EDBCFCF
:1052A000E9FF250EDBCFEAFF320EE926000EEA22E7
:1052B000E40EE926010EEA22720EEE1859E1720E92
:1052C000EE1856E1410EEE1853E1610EEE1850E172
:1052D000240EDBCFE9FF250EDBCFEAFF320EE926F5
:1052E000000EEA22EC0EE926010EEA22EECF21F0B2
:1052F000EECF22F0EECF23F0EFCF24F0240EDBCF61
:10530000E9FF250EDBCFEAFF0A0EE926000EEA22AE
:1053100021C0EEFF22C0EEFF23C0EEFF24C0EEFF4F
:10532000240EDBCFE9FF250EDBCFEAFF320EE926A4
:10533000000EEA22E80EE926010EEA22EECF21F065
:10534000EECF22F0EECF23F0EFCF24F0240EDBCF10
:10535000E9FF250EDBCFEAFF0E0EE926000EEA225A
:1053600021C0EEFF22C0EEFF23C0EEFF24C0EEFFFF
:10537000240EDBCFE9FF250EDBCFEAFFDFCFEFFF07
:105380000F01022B000E0323240EDBCFE9FF250EB5
:10539000DBCFEAFF060EE926000EEA2202CFEEFF7F
:1053A00003CFEDFF240EDBCFE9FF250EDBCFEAFFB5
:1053B0002E0EE926000EEA22EE6AEE6AEE6AEE6A28
:1053C000240EDBCFE9FF250EDBCFEAFF040EE92632
:1053D000000EEA22EF6A216E260EE15C02E2E16A2B
:1053E000E552E16E2150E552E5CFDAFFE7CFD9FF74
:1053F0001200D9CFE6FFDACFE6FFE1CFD9FFE2CF47
:10540000DAFFE652E652FC0EDBCFDEFFDBCFDDFF3C
:10541000D9CFE9FFDACFEAFFEE50ED1033E0DECF6F
:10542000E9FFDDCFEAFFEE50ED102CE0DECFE9FF23
:10543000DDCFEAFFEE50EFCFEAFFE96EEF5022E05A
:10544000DECFE9FFDDCFEAFFEE50EFCFEAFFE96EF6
:10545000060EE926000EEA22EECF21F0EFCF22F071
:10546000DECFE9FFDDCFEAFF020EE926000EEA22D9
:10547000EECF23F0EFCF24F02350211802E1245087
:10548000221802E0090E13D0DECFE9FFDDCFEAFFDC
:10549000EE50EFCFEAFFE96EEE52EF50E66E6DECA4
:1054A0005EF0E552010B02E0030E01D0000EE55262
:1054B000E552E552E5CFDAFFE7CFD9FF1200D9CFA9
:1054C000E6FFDACFE6FFE1CFD9FFE2CFDAFFE6521F
:1054D000E652010EF36EFD0EDBCFF4FFF350F45CE9
:1054E00002E30B0E3BD0FD0EEA6ADB34FE0BEA361C
:1054F000E96E000EE9260F0EEA22EECFDEFFEDCFB9
:10550000DDFFD9CFE9FFDACFEAFFEE50ED1005E07D
:10551000DECFE9FFDDCFEAFFEF6AD950FB0FE96E7E
:10552000FF0EDA20EA6EEE50ED1007E0FB0EDBCF47
:10553000E9FFFC0EDBCFEAFFEF6AFD0EEA6ADB341F
:10554000FE0BEA36E96E000EE9260F0EEA22FB0E8C
:10555000DBCFEEFFFC0EDBCFEDFF000EE552E55298
:10556000E552E5CFDAFFE7CFD9FF1200D9CFE6FF4A
:10557000DACFE6FFE1CFD9FFE2CFDAFF2D0EE1244B
:1055800002E3E168E652E16ED950FC0FE96EFF0ECE
:10559000DA20EA6EEE50ED1002E1090EBFD2FC0EE9
:1055A000DBCFE9FFFD0EDBCFEAFFEE6AED6AF90E15
:1055B000DB9ADB9CDB9EDB50FE0BE66ED950010FC5
:1055C000E66E000EDA20E66ED950FA0FE66EFF0E98
:1055D000DA20E66EC6EC22F0216E050EE15C02E2F6
:1055E000E16AE552E16E2150DF6EDF5001E095D2B5
:1055F000D950190F216E000EDA20226E150E21C02F
:10560000DBFF160E22C0DBFFFA0EDBCFE6FFFB0E40
:10561000DBCFE6FFD950010FE66E000EDA20E66E12
:105620001DEC21F0E552E552E552E552DF6E130E16
:10563000DBCF41F0140EDBCF42F0170E41C0DBFF91
:10564000180E42C0DBFFDF500BE1D950170FE96E97
:10565000000EDA20EA6EEE50ED1002E1060EDF6E6B
:10566000F90EDB501C0B01E149D1DF501DE0040EA7
:10567000DF5C0BE1D950010FE66E000EDA20E66E1A
:1056800076EC1DF0E552E552DF6EF90EDB86130E67
:10569000DBCF41F0140EDBCF42F0170E41C0DBFF31
:1056A000180E42C0DBFF16D00B0EE76E170EDBCFD5
:1056B000E9FF180EDBCFEAFFE750E926000EEA22E9
:1056C000EF50110B02E0070E04D0F90EDBA402D05C
:1056D000080EDF6EDF5001E039D1F90EDB50080B08
:1056E00001E134D107EC69F0250E3FC0DBFF260E47
:1056F00040C0DBFF270E41C0DBFF280E42C0DBFFAE
:105700000E0EE76E170EDBCFE9FF180EDBCFEAFFB8
:10571000E750E926000EEA22250EDBCFEEFF260E2B
:10572000DBCFEEFF270EDBCFEEFF280EDBCFEEFF49
:105730000B0EE76E170EDBCFE9FF180EDBCFEAFF8B
:10574000E750E926000EEA22EF6A1C0EE76E170EFC
:10575000DBCFE9FF180EDBCFEAFFE750E926000EAA
:10576000EA22EE6AEE6AEE6AEE6A170EDBCFE6FF19
:10577000180EDBCFE6FF010EDBCFE6FF020EDBCF1C
:10578000E6FF37EC1BF0E552E552E552E552290EF3
:105790003FC0DBFF2A0E40C0DBFF2B0E41C0DBFF0A
:1057A0002C0E42C0DBFFE66AE66AE66AE66A170E7E
:1057B000DBCFE6FF180EDBCFE6FFA1EC1BF0216E7E
:1057C000060EE15C02E2E16AE552E16E2150010E53
:1057D000DBCFE9FF020EDBCFEAFF040EE926000E65
:1057E000EA22010EEF6E290EDBCF21F02A0EDBCF6D
:1057F00022F02B0EDBCF23F02C0EDBCF24F0215038
:1058000022102310241001E1A1D0010EDBCFE9FF0B
:10581000020EDBCFEAFF2E0EE926000EEA22250E4D
:10582000EECFDBFF260EEECFDBFF270EEECFDBFF4A
:10583000280EEECFDBFFD950290FE96E000EDA20DB
:10584000EA6EEECFE6FFEECFE6FFEECFE6FFEFCF5C
:10585000E6FF010EDBCFE6FF020EDBCFE6FF1BEC1F
:1058600010F0216E060EE15C02E2E16AE552E16EA3
:105870002150DF6EDF506AE1290EDBCF21F02A0EC6
:10588000DBCF22F02B0EDBCF23F02C0EDBCF24F06E
:105890002106000E225A235A245A010EDBCFE9FFBB
:1058A000020EDBCFEAFF0A0EE926000EEA2221C033
:1058B000EEFF22C0EEFF23C0EEFF24C0EEFFD95062
:1058C000250FE96E000EDA20EA6EEECFE6FFEECF8E
:1058D000E6FFEECFE6FFEFCFE6FF010EDBCFE6FF00
:1058E000020EDBCFE6FF35EC08F0216E060EE15C20
:1058F00002E2E16AE552E16E215027D0DF5026E155
:105900000B0EE76E170EDBCFE9FF180EDBCFEAFFB9
:10591000E750E926000EEA22EF50100B02E0040ED9
:1059200014D0F90EDB50020B11E00B0EE76E170ED0
:10593000DBCFE9FF180EDBCFEAFFE750E926000EC8
:10594000EA22EF50010B02E0070EDF6EDF5037E175
:10595000F90EDBB6DB8A010EDBCFE9FF020EDBCFEF
:10596000EAFF2E0EE926000EEA22EECF21F0EECF5E
:1059700022F0EECF23F0EFCF24F0FC0EDBCFE9FFD7
:10598000FD0EDBCFEAFF1A0EE926000EEA2221C047
:10599000EEFF22C0EEFF23C0EEFF24C0EEFFFC0EA0
:1059A000DBCFE9FFFD0EDBCFEAFF1E0EE926000E7E
:1059B000EA22170EDBCFEEFF180EDBCFEDFFDF5034
:1059C00001E0ABD0FC0EDBCFE9FFFD0EDBCFEAFF41
:1059D000040EE926000EEA22F90EDBCFEFFF170EC8
:1059E000DBCFE6FF180EDBCFE6FF010EDBCFE6FFD5
:1059F000020EDBCFE6FF37EC1BF0E552E552E55235
:105A0000E55240C022F041C023F042C024F0FC0E19
:105A1000DBCFE9FFFD0EDBCFEAFF0E0EE926000E1D
:105A2000EA223FC0EEFF22C0EEFF23C0EEFF24C0FB
:105A3000EEFF1C0EE76E170EDBCFE9FF180EDBCF73
:105A4000EAFFE750E926000EEA22EECF21F0EECF82
:105A500022F0EECF23F0EFCF24F0FC0EDBCFE9FFF6
:105A6000FD0EDBCFEAFF0A0EE926000EEA2221C076
:105A7000EEFF22C0EEFF23C0EEFF24C0EEFFFC0EBF
:105A8000DBCFE9FFFD0EDBCFEAFF060EE926000EB5
:105A9000EA22EE6AEE6AEE6AEE6AFC0EDBCFE9FFFE
:105AA000FD0EDBCFEAFF160EE926000EEA22EE6AB3
:105AB000EE6AEE6AEE6AFC0EDBCFE9FFFD0EDBCF8D
:105AC000EAFF200EEB6A210EEB6AFC0EDBCFE9FF4A
:105AD000FD0EDBCFEAFF010EDBCFEEFF020EDBCFC8
:105AE000EDFF010EDBCFE9FF020EDBCFEAFF060E72
:105AF000E926000EEA22EECF21F0EFCF22F0FC0ED5
:105B0000DBCFE9FFFD0EDBCFEAFF020EE926000E38
:105B1000EA2221C0EEFF22C0EDFFDF50216E2D0EE4
:105B2000E15C02E2E16AE552E16E2150E552E5CF27
:105B3000DAFFE7CFD9FF1200D9CFE6FFDACFE6FFD1
:105B4000E1CFD9FFE2CFDAFF140EE12402E3E168EE
:105B5000E652E16EFA0EDBCF41F0FB0EDBCF42F0F6
:105B6000120E41C0DBFF130E42C0DBFFF60EDBCF8F
:105B7000E9FFF70EDBCFEAFFEE6AED6AFC0EDBCF42
:105B8000E6FFFD0EDBCFE6FF34DCE552E552DF6ECB
:105B9000DF5003E0DF5029EF32F0FC0EDBCFE9FFEE
:105BA000FD0EDBCFEAFF040EE926000EEA22EF50DD
:105BB000800B01E0D6D1FC0EDBCFE9FFFD0EDBCF81
:105BC000EAFF040EE926000EEA22EF50010B03E182
:105BD000070E29EF32F0FC0EDBCFE9FFFD0EDBCF25
:105BE000EAFF0A0EE926000EEA22EECF25F0EECFFC
:105BF00026F0EECF27F0EFCF28F0FC0EDBCFE9FF49
:105C0000FD0EDBCFEAFF060EE926000EEA22EE507B
:105C1000255C216EEE502658226EEE502758236EDA
:105C2000EE502858246E090E21C0DBFF0A0E22C058
:105C3000DBFF0B0E23C0DBFF0C0E24C0DBFFF80ED6
:105C4000DBCF21F0F90EDBCF22F0236A246AD95092
:105C5000090FE96E000EDA20EA6E2150EE5C225048
:105C6000EE582350EE582450EE580CE2090EDBCFCC
:105C700041F00A0EDBCF42F0F80E41C0DBFFF90E17
:105C800042C0DBFFD950F80FE96EFF0EDA20EA6E52
:105C9000EE50ED1001E1DCD3FC0EDBCFE9FFFD0E91
:105CA000DBCFEAFF060EE926000EEA22EECF21F056
:105CB000EECF22F0010E2216236A246A2150221010
:105CC0002310241001E0C1D2FC0EDBCFE9FFFD0E52
:105CD000DBCFEAFF060EE926000EEA22EECF21F026
:105CE000EECF22F0EECF23F0EFCF24F0090ED890C4
:105CF0002432233222322132E806F9E1FC0EDBCFD6
:105D0000E9FFFD0EDBCFEAFFEE50EFCFEAFFE96ED1
:105D1000020EE926000EEA22EF04256E266A276AA3
:105D2000286AE8502116265022162750231628509C
:105D30002416110E21C0DBFFDB5001E0C4D0FC0EA5
:105D4000DBCFE9FFFD0EDBCFEAFF060EE926000EF2
:105D5000EA22EECF21F0EECF22F0EECF23F0EFCF0C
:105D600024F0215022102310241017E1FC0EDBCF69
:105D7000E9FFFD0EDBCFEAFF0E0EE926000EEA2258
:105D8000010EEECFDBFF020EEECFDBFF030EEECFF8
:105D9000DBFF040EEECFDBFF5ED0FC0EDBCFE9FFB6
:105DA000FD0EDBCFEAFF200EE926000EEA22EE50C0
:105DB000ED101FE0FC0EDBCFE9FFFD0EDBCFEAFFAD
:105DC000060EE926000EEA22EECFE6FFEECFE6FF52
:105DD000EECFE6FFEFCFE6FFFC0EDBCFE6FFFD0EDA
:105DE000DBCFE6FF08EC14F0216E060EE15C25E245
:105DF00022D0FC0EDBCFE9FFFD0EDBCFEAFF120E57
:105E0000E926000EEA22EECFE6FFEECFE6FFEECF68
:105E1000E6FFEFCFE6FFFC0EDBCFE9FFFD0EDBCFA9
:105E2000EAFFEECFE6FFEFCFE6FF96EC0AF0216E39
:105E3000060EE15C02E2E16AE552E16E2150010EDC
:105E40003FC0DBFF020E40C0DBFF030E41C0DBFFA3
:105E5000040E42C0DBFFD950010FE96E000EDA20BC
:105E6000EA6E020EEE5C000EEE58000EEE58000ECA
:105E7000EE586CE3D950010FE96E000EDA20EA6E9D
:105E8000E868EE180AE1E868EE1807E1E868EE183D
:105E900004E1E868EE1801E139D2FC0EDBCFE9FF3E
:105EA000FD0EDBCFEAFF120EE926000EEA22010EFC
:105EB000DBCFEEFF020EDBCFEEFF030EDBCFEEFFFC
:105EC000040EDBCFEEFFFC0EDBCFE9FFFD0EDBCFD8
:105ED000EAFF120EE926000EEA22EECFE6FFEECF31
:105EE000E6FFEECFE6FFEFCFE6FFFC0EDBCFE9FFEC
:105EF000FD0EDBCFEAFFEECFE6FFEFCFE6FF06ECCD
:105F00000AF0216E060EE15C02E2E16AE552E16E02
:105F10002150050E3FC0DBFF060E40C0DBFF070E21
:105F200041C0DBFF080E42C0DBFF050EDBCF21F0D6
:105F3000060EDBCF22F0070EDBCF23F0080EDBCFFF
:105F400024F021502210231024100DE1FC0EDBCF91
