:020000040000FA
:0400000053EF00F0CA
:020006000102F5
:0400080006EF04F00B
:080018007F6603EF04F0F0A085
:100020002DD0F09080A80DD083CFDEFF80A603D026
:100030007E82800E29D88A8681A2FED795688A960C
:10004000110080500F0B04E1010E8C6E956AF3D7FE
:10005000080A04E1020E8C6E956AEDD70C0A04E1E1
:100060007DC08CFF956AE7D7080A04E17CC08CFF4D
:10007000956AE1D74F0E8C6E956ADDD7F2A403D056
:10008000F2947B667B061100C96EC7A0FED78B80F9
:10009000C9508B901200DF38DEBC8F0FDF24DEBC2E
:1000A000F90FCD0F12007F6A7E6A8EEC01F0FE0E12
:1000B000F66EFF0EF76EF86A0900F5507D627E8CD1
:1000C0000900F5507C627E8C7EBC26D0030EAA6EA1
:1000D000FE0EA96EA69EA69CA680A8507D627E8E6E
:1000E000A92AA69EA69CA680A8507C627E8E7EBE73
:1000F00013D07F6800EF04F0030EAA6EFE0EA96E07
:100100007DC0A8FF040EA66EC3D8A92A7CC0A8FF94
:10011000040EA66EBDD8FF0094900F0EC16E8A9695
:100120009396F086F09CF19A8A9E939E8A9C939C6B
:100130009496949A400EC76E210EC66E870ED56EA9
:10014000F194F28A120E7B6ED08E8A8E8A8C856B29
:10015000846B21EE00F0F28CF28E400E95DF7EB2C1
:1001600005D87EBCFCD77B66FAD7C6D77E9221EE37
:1001700000F0DE503A0A37E18EDF806F040F816FA6
:100180008ADF8027812FFCD7806726D021EE01F0FF
:1001900082DF816F80DF836F7EDF826F7CDF866F1F
:1001A000070B88EC01F0F5EF00F064EF01F0EAEFE7
:1001B00000F0EAEF00F05BEF01F0EAEF00F066EF2D
:1001C00001F0EAEF00F040095FDF21EE00F01200DD
:1001D000000EF9D7020EF7D7030EF5D77E84050E71
:1001E000F2D7010EF0D7040EEED77EB4F3D78551C7
:1001F000F1E1845105E033D88451F00A18E0EAD7E0
:100200008251F65C876F8351F75808E38713E6E164
:1002100042DF8107F56E7E8649D801D0F5680D0072
:10022000F6503F0BD8B424D88167EAD7D1D7A6B20D
:10023000FED78451F008876F8351FC0B871185111D
:10024000D0E18351AA6E8251A96E25DF8107A86E85
:10025000040EA66E1DD82AD88167E9D7B9D77EA625
:100260001200F5680D00F6503F0BFCE101D81200BA
:100270007EA60CD07E960A00FF0EF65C070EF7589D
:1002800004E37E8C840EA66E03D80900A66A1200D1
:10029000F29EF29C550EA76EAA0EA76EA682F28C55
:1002A000F28E0000A6B2FED7A6941200E86A822B56
:1002B0008323842312008105E82C95D7ECDE856F1B
:1002C000EADE846F000E7FD7CADFFF0083298BE14F
:1002D000825101E00FD07E8C000EF66E080EF76E94
:1002E000F86A940EA66ED4DF400EF626E86AF7226E
:1002F000F8E16ED7A868AA6AA96A040EA66EC8DFDC
:10030000A6B2FED7A93EF9D7AA2AAA50F6E160D72D
:10031000E844E844FD26000EFE221200000EF66EB0
:10032000080EF76EF86A7C6A7D6A0900F55007D8F6
:10033000F750FF08FAE1F650FE08F7E112007C18CA
:100340007D187D1A7D187C6E7D507D3A7D1A7D3238
:100350007DB0D8707DB2D8707DB4D8707D6E010E3E
:10036000D8B07C1A400E7D32D8B07C1A7D347D1A0C
:0A0370007D32800ED8B07C1A000C1C
:06080000BEEF70F01200D3
:060806009CEF6CF01200F3
:04080C00F0900366FF
:100810005DD080501F0B186205D08338070B0F6E18
:10082000106A1F0F62EC04F06BEF04F071EF04F03C
:10083000A8EF04F09CEF04F081EF04F099EF04F0CE
:10084000B8EF04F0A2EF04F06EEF04F090EF04F0C4
:1008500093EF04F09FEF04F08DEF04F096EF04F0B7
:10086000B8EF04F001EF05F001EF05F0C9EF04F077
:1008700055EF05F018EF05F0E3EF04F012EF05F087
:1008800064EF05F01FEF05F0B9EF04F001EF05F09C
:1008900060EF05F01BEF05F02AEF05F015EF05F00E
:1008A00064EF05F001EF05F030EF05F036EF05F0ED
:1008B0003DEF05F04AEF05F051EF05F051EF05F07F
:1008C0004AEF05F0E844E844FD26120080B899D0CC
:1008D00004C08CFF95D00EC08CFF92D006C08CFF58
:1008E0008FD0E9CF49F0EACF4AF009EE00F010C00E
:1008F000E9FFEFCF8CFF103E7FD0500EC96E046E23
:1009000076D0E9CF49F0EACF4AF00AEE00F015C000
:10091000E9FF152AEFCF8CFF6FD013C08CFF70D08A
:1009200007C08CFF6DD012C08CFF6AD009C08CFF4D
:1009300067D008C08CFF64D00AC08CFF61D00BC0A8
:100940008CFF5ED00C44E844E8440D108C6E58D007
:10095000020E166203D017C08CFF08D016C0A9FF84
:10096000AA6AA69EA69CA680A8CF8CFF162A48D06D
:1009700048D08350066EE8B644D0056606D0510EC6
:10098000C96E046E100E076E42D0500EC96E046E12
:100990003ED00F50030A35E1E9CF49F0EACF4AF0E3
:1009A00009EE00F010C0E9FF83CFEFFF49C0E9FF77
:1009B0004AC0EAFF103E25D0820EC96E046E030EB7
:1009C000016E008424D0E9CF49F0EACF4AF00AEE64
:1009D00000F015C0E9FF83CFEFFF49C0E9FF4AC02F
:1009E000EAFF152A135015620CD0400E62D0C7A042
:1009F000FED78B8000008B9049C0E9FF4AC0EAFF18
:100A0000956A8A8681A2FED795688A961100C7A04A
:100A1000FED78B808A8681A2FED79568C9508B90BD
:100A20008A96110083CF08F0ECD783CF09F0E9D77D
:100A300083CF0AF0E6D78350030B0B6EE2D78344D3
:100A4000E838030B0C6E8350070B0D6E500EC96E09
:100A5000046EDDD7146A8350136ED3E1142AD1D704
:100A6000500EC96E046E0A6A0B6AD1D7820EC96E27
:100A7000046E020E016E0084CAD78350040B04E199
:100A8000580EC96E046EC3D7510EC96E046E040EA3
:100A9000076EBDD7820EC96E046E010E016E008412
:100AA000B6D7500EC96E046EB2D783CF11F0156A57
:100AB000800E1110016E820EC96E046E0084A7D7DD
:0A0AC00083CF17F0166A9DD79CD76C
:060ACA000100DAE100006A
:080AD000CD0000000100000050
:080AD800D9CFE6FFDACFE6FFFB
:100AE000E1CFD9FFE2CFDAFFE652E652E652E65214
:100AF000FC0EDBCFDEFFDBCFDDFFFA0EDBCF3DF000
:100B0000FB0EDBCF3EF0020E3DC0DBFF030E3EC00E
:100B1000DBFFF80EDBCF1DF0F90EDBCF1EF0020E6F
:100B20001D5C000E1E582BE3020EDBCFE9FF030E07
:100B3000DBCFEAFFEECF1DF0EFCF1EF0DECFE9FFF7
:100B4000DDCFEAFF1DC0EEFF1EC0EDFF020EDE2668
:100B5000000EDD22D950020FE96E000EDA20EA6E97
:100B6000020EEE26000EED22D950F80FE96EFF0EB0
:100B7000DA20EA6E020EEE5E000EED5ACAD7F80ECB
:100B8000DBCF1DF0DB06F90EDBCF1EF001E2DB064A
:100B90001D501E1017E0020EDBCFE9FFDB2A030E0B
:100BA000DBCFEAFF01E3DB2AEF50E66EDFCFE9FFA0
:100BB000DF2A010EDBCFEAFF01E3DB2AE552E75033
:100BC000EF6EDDD7040EE15C02E2E16AE552E16E10
:100BD000E552E5CFDAFFE7CFD9FF1200D9CFE6FF24
:100BE000DACFE6FFE1CFD9FFE2CFDAFFE652E652F5
:100BF000FC0EDBCFDEFFDBCFDDFFF80EDBCF1DF021
:100C0000DB06F90EDBCF1EF001E2DB061D501E10E5
:100C10000CE0DFCFE9FFDF2A010EDBCFEAFF01E3C3
:100C2000DB2AFA0EDBCFEFFFE8D7E552E552E552BB
:100C3000E5CFDAFFE7CFD9FF1200D9CFE6FFDACF51
:100C4000E6FFE1CFD9FFE2CFDAFF060EE12402E3AF
:100C5000E168E652E16EFC0EDBCFDEFFDBCFDDFFAD
:100C6000FA0EDBCF3DF0FB0EDBCF3EF0020E3DC0B7
:100C7000DBFF030E3EC0DBFF040EDB6A050EDB6A02
:100C8000F80EDBCF1DF0DB06F90EDBCF1EF001E224
:100C9000DB061D501E1020E0DFCFE9FFDF2A010E2A
:100CA000DBCFEAFF01E3DB2AEFCF21F0020EDBCF3F
:100CB000E9FFDB2A030EDBCFEAFF01E3DB2AEF507B
:100CC000215C1F6E206A040E1FC0DBFF050E20C0D2
:100CD000DBFF1F502010D4E0040EDBCF1DF0050E0B
:100CE000DBCF1EF01DC0F3FF1EC0F4FF060EE15C5B
:100CF00002E2E16AE552E16EE552E5CFDAFFE7CFC5
:100D0000D9FF1200D9CFE6FFDACFE6FFE1CFD9FF56
:100D1000E2CFDAFFFC0EDBCFF6FFFD0EDBCFF7FFF5
:100D20000800F5501AE0FC0EDBCFF6FFFD0EDBCF1E
:100D3000F7FF0800F5CF1DF01E6A1DBE1E68FA0EF3
:100D4000DB501D1803E1FB0EDB501E1806E0FC0E05
:100D5000DB2AFD0EDFE3DB2ADDD7FC0EDBCFF6FF5F
:100D6000FD0EDBCFF7FF0800F5CF1DF01E6A1DBE9C
:100D70001E681DC0F3FF1EC0F4FFE552E5CFDAFF89
:100D8000E7CFD9FF1200D9CFE6FFDACFE6FFE1CFF8
:100D9000D9FFE2CFDAFF060EE12402E3E168E65272
:100DA000E16EFC0EDBCFE9FFFD0EDBCFEAFF040EA8
:100DB000E926000EEA22EF5001E11ED1FC0EDBCF46
:100DC000E9FFFD0EDBCFEAFF2E0EE926000EEA2238
:100DD000EECFDFFF010EEECFDBFF020EEECFDBFF2B
:100DE000030EEECFDBFF010EE66ED9CFE9FFDACFBF
:100DF000EAFFEECFE6FFEECFE6FFEECFE6FFEFCF66
:100E0000E6FFFC0EDBCFE9FFFD0EDBCFEAFF320E83
:100E1000E926000EEA22E9CF1DF0EACF1EF0E9CF65
:100E2000E6FFEACFE6FFFC0EDBCFE9FFFD0EDBCFEE
:100E3000EAFFEE52EF50E66E65EC5EF01F6E080EB4
:100E4000E15C02E2E16AE552E16E1F50000902E056
:100E5000010ED3D0FC0EDBCFE9FFFD0EDBCFEAFFA6
:100E6000040EE926000EEA22EF6AFC0EDBCFE9FF52
:100E7000FD0EDBCFEAFF220EE926000EEA22EECFBE
:100E80001DF0EECF1EF0EECF1FF0EFCF20F0D9CF48
:100E9000E9FFDACFEAFF1D50EE5C1E50EE581F50FE
:100EA000EE582050EE5801E2A7D0FC0EDBCFE9FF50
:100EB000FD0EDBCFEAFF1A0EE926000EEA22EECF86
:100EC00021F0EECF22F0EECF23F0EFCF24F0FC0E96
:100ED000DBCFE9FFFD0EDBCFEAFF220EE926000E95
:100EE000EA22EE502126EE502222EE502322EE502E
:100EF0002422D9CFE9FFDACFEAFF2150EE5C22505D
:100F0000EE582350EE582450EE5876E2FC0EDBCF1C
:100F1000E9FFFD0EDBCFEAFF030EE926000EEA2211
:100F2000EF50E66ED950040FE96E000EDA20EA6E3B
:100F3000E552E750EE6EED6A040EDBCF1DF0050EB4
:100F4000DBCF1EF0020E1D5C000E1E5855E3FC0E9A
:100F5000DBCFE9FFFD0EDBCFEAFF1A0EE926000E1C
:100F6000EA22EECF1DF0EECF1EF0EECF1FF0EFCF56
:100F700020F01D50DE261E50DE221F50DE222050A3
:100F8000DD22DD52DD52010EE66ED9CFE9FFDACF68
:100F9000EAFFEECFE6FFEECFE6FFEECFE6FFEFCFC4
:100FA000E6FFFC0EDBCFE9FFFD0EDBCFEAFF320EE2
:100FB000E926000EEA22E9CF1DF0EACF1EF0E9CFC4
:100FC000E6FFEACFE6FFFC0EDBCFE9FFFD0EDBCF4D
:100FD000EAFFEE52EF50E66E65EC5EF01F6E080E13
:100FE000E15C02E2E16AE552E16E1F50040EDB06AD
:100FF000050EA2E2DB06A0D7000E1D6E060EE15C18
:1010000002E2E16AE552E16E1D50E552E5CFDAFFFA
:10101000E7CFD9FF1200D9CFE6FFDACFE6FFE1CF65
:10102000D9FFE2CFDAFFF80EDBCF1DF0F90EDBCFF0
:101030001EF0FA0EDBCF1FF0FB0EDBCF20F0FC0E14
:10104000DBCFE9FFFD0EDBCFEAFF2E0EE926000E17
:10105000EA221D50EE1808E11E50EE1805E11F505F
:10106000EE1802E12050EE185AE0FC0EDBCFE6FF4E
:10107000FD0EDBCFE6FF87DEE552E552000937E1E2
:10108000010EE66ED950F80FE96EFF0EDA20EA6E17
:10109000EECFE6FFEECFE6FFEECFE6FFEFCFE6FFC7
:1010A000FC0EDBCFE9FFFD0EDBCFEAFF320EE926B7
:1010B000000EEA22E9CF1DF0EACF1EF0E9CFE6FFED
:1010C000EACFE6FFFC0EDBCFE9FFFD0EDBCFEAFF48
:1010D000EE52EF50E66EF5EC5DF01F6E080EE15C2F
:1010E00002E2E16AE552E16E1F50000902E0010EE2
:1010F00017D0FC0EDBCFE9FFFD0EDBCFEAFF2E0E93
:10110000E926000EEA22F80EDBCFEEFFF90EDBCF68
:10111000EEFFFA0EDBCFEEFFFB0EDBCFEEFF000E95
:10112000E552E5CFDAFFE7CFD9FF1200D9CFE6FFCE
:10113000DACFE6FFE1CFD9FFE2CFDAFFE652FC0ECD
:10114000DBCFE6FFFD0EDBCFE6FF1DDEE552E5520D
:10115000DF6EDF5001E028D1FC0EDBCFE9FFFD0E92
:10116000DBCFEAFFEF50030801E007D1FC0EDBCF35
:10117000E9FFFD0EDBCFEAFF050EE926000EEA22AD
:10118000EF5001E1FAD0FC0EDBCFE9FFFD0EDBCF23
:10119000EAFF2E0EE926000EEA22EE6AEE6AEE6AF9
:1011A000EE6AE66A020EE66E000EE66EE66AFC0E77
:1011B000DBCFE9FFFD0EDBCFEAFF320EE926000EA2
:1011C000EA22E9CF1DF0EACF1EF0E9CFE6FFEACF31
:1011D000E6FF04DD1F6E060EE15C02E2E16AE55205
:1011E000E16E1F50FC0EDBCFE9FFFD0EDBCFEAFF07
:1011F000320EE926000EEA22FE0EE926010EEA2250
:10120000550EEE6EAA0EED6EFC0EDBCFE9FFFD0E65
:10121000DBCFEAFF320EE926000EEA22520EEE6E16
:10122000EE6E610EEE6E410EEE6EFC0EDBCFE9FF50
:10123000FD0EDBCFEAFF320EE926000EEA22E40EB5
:10124000E926010EEA22720EEE6EEE6E410EEE6E91
:10125000610EEE6EFC0EDBCFE9FFFD0EDBCFEAFF89
:101260000E0EE926000EEA22EECF1DF0EECF1EF0A4
:10127000EECF1FF0EFCF20F0FC0EDBCFE9FFFD0E2D
:10128000DBCFEAFF320EE926000EEA22E80EE9265D
:10129000010EEA221DC0EEFF1EC0EEFF1FC0EEFFD2
:1012A00020C0EEFFFC0EDBCFE9FFFD0EDBCFEAFF37
:1012B0000A0EE926000EEA22EECF1DF0EECF1EF058
:1012C000EECF1FF0EFCF20F0FC0EDBCFE9FFFD0EDD
:1012D000DBCFEAFF320EE926000EEA22EC0EE92609
:1012E000010EEA221DC0EEFF1EC0EEFF1FC0EEFF82
:1012F00020C0EEFFE66EFC0EDBCFE9FFFD0EDBCF7C
:10130000EAFF120EE926000EEA22EECFE6FFEECF4C
:10131000E6FFEECFE6FFEFCFE6FFFC0EDBCFE9FF07
:10132000FD0EDBCFEAFF320EE926000EEA22E9CFFE
:101330001DF0EACF1EF0E9CFE6FFEACFE6FFFC0E94
:10134000DBCFE9FFFD0EDBCFEAFFEE52EF50E66E9A
:1013500065EC5EF01F6E080EE15C02E2E16AE552A8
:10136000E16E1F50FC0EDBCFE9FFFD0EDBCFEAFF85
:10137000050EE926000EEA22EF6A000EE66EE66A26
:10138000E66AFC0EDBCFE9FFFD0EDBCFEAFFEE5293
:10139000EF50E66ED7EC5EF0E552E552E552E552CD
:1013A000000902E0010EDF6EDF50E552E552E5CFA5
:1013B000DAFFE7CFD9FF1200D9CFE6FFDACFE6FF99
:1013C000E1CFD9FFE2CFDAFFE150F80FE96EFF0E6F
:1013D000E220EA6E020EEE5E000EEE5AEE5AEE5A71
:1013E000FC0EDBCFE9FFFD0EDBCFEAFF160EE92690
:1013F000000EEA22EECF1DF0EECF1EF0EECF1FF072
:10140000EFCF20F0020E1D5E000E1E5A1F5A205A0A
:10141000D950F80FE96EFF0EDA20EA6E1D50EE5C2F
:101420001E50EE581F50EE582050EE5805E33B6A10
:101430003C6A3D6A3E6A4AD0FC0EDBCFE9FFFD0EF6
:10144000DBCFEAFF2A0EE926000EEA22EECF25F0D6
:10145000EECF26F0EECF27F0EFCF28F0FC0EDBCF5B
:10146000E9FFFD0EDBCFEAFF020EE926000EEA22BD
:10147000EFCF21F0226A236A246A21C03BF022C008
:101480003CF023C03DF024C03EF0F80EDBCF40F02E
:10149000F90EDBCF41F0FA0EDBCF42F0FB0EDBCFD3
:1014A00043F0CEEC6FF0375025241D6E38502620C7
:1014B0001E6E395027201F6E3A502820206E1DC006
:1014C0003BF01EC03CF01FC03DF03E6EE552E5CF44
:1014D000DAFFE7CFD9FF1200D9CFE6FFDACFE6FF78
:1014E000E1CFD9FFE2CFDAFF060EE12402E3E168A3
:1014F000E652E16ED950F80FE96EFF0EDA20EA6E7F
:10150000020EEE5C000EEE58000EEE58000EEE5885
:101510001FE3F80EDBCF1DF0F90EDBCF1EF0FA0E45
:10152000DBCF1FF0FB0EDBCF20F0FC0EDBCFE9FFA3
:10153000FD0EDBCFEAFF160EE926000EEA22EE5082
:101540001D5CEE501E58EE501F58EE50205806E31A
:10155000010E3B6E3C6A3D6A3E6A29D2FC0EDBCF2F
:10156000E9FFFD0EDBCFEAFFEF50030A01E18AD16C
:10157000010A01E108D1030A01E015D2F80EDBCF20
:101580003DF0F90EDBCF3EF0020E3DC0DBFF030E57
:101590003EC0DBFF020EDBCF1DF0030EDBCF1EF0E3
:1015A000010E0F0B05E0D8901E321D32E806FBE15C
:1015B000D950020FE96E000EDA20EA6E1D50EE26B9
:1015C0001E50ED22020EDBCF1DF0030EDBCF1EF00E
:1015D000090E0F0B05E0D8901E321D32E806FBE124
:1015E0001F6A206AFC0EDBCFE9FFFD0EDBCFEAFFAE
:1015F000220EE926000EEA22EE501D26EE501E2293
:10160000EE501F22EE5020221DC0E6FF1EC0E6FF56
:101610001FC0E6FF20C0E6FFFC0EDBCFE6FFFD0E9D
:10162000DBCFE6FFF8DC216E060EE15C02E2E16A48
:10163000E552E16E2150000901E0B5D1FC0EDBCF8F
:10164000E9FFFD0EDBCFEAFF320EE926000EEA22AB
:10165000020EDBCF1FF0030EDBCF20F00001010EE6
:101660002016E9501F24E96EEA502020EA6EEF5060
:10167000DE6EDD6A020EDB2A030E01E3DB2A020EB8
:10168000DBCF1DF0030EDBCF1EF0090E0F0B05E0C4
:10169000D8901E321D32E806FBE11F6A206AFC0E5C
:1016A000DBCFE9FFFD0EDBCFEAFF220EE926000EBD
:1016B000EA22EE501D26EE501E22EE501F22EE5062
:1016C00020221DC0E6FF1EC0E6FF1FC0E6FF20C0AF
:1016D000E6FFFC0EDBCFE6FFFD0EDBCFE6FF9BDC7B
:1016E000216E060EE15C02E2E16AE552E16E2150F4
:1016F000000901E058D1FC0EDBCFE9FFFD0EDBCF86
:10170000EAFF320EE926000EEA22020EDBCF1FF0BE
:10171000030EDBCF20F0010E2016E9501F24E96EE6
:10172000EA502020EA6EEF50000EF350DF12010E57
:10173000216E226A236A246AD950F80FE96EFF0EDF
:10174000DA20EA6EEE502116EE502216EE502316E5
:10175000EE50241621502210231024100BE0DECF6F
:101760001DF0DDCF1EF0040ED8901E321D32E804AD
:10177000FBE185D0DECF1DF0DDCF1EF0FF0E1D1684
:101780000F0E1E167CD0F80EDBCF1DF0F90EDBCF4E
:101790001EF0FA0EDBCF1FF0FB0EDBCF20F0080EA1
:1017A000D89020321F321E321D32E806F9E1FC0EBD
:1017B000DBCFE9FFFD0EDBCFEAFF220EE926000EAC
:1017C000EA22EE501D26EE501E22EE501F22EE5051
:1017D00020221DC0E6FF1EC0E6FF1FC0E6FF20C09E
:1017E000E6FFFC0EDBCFE6FFFD0EDBCFE6FF13DCF2
:1017F000216E060EE15C02E2E16AE552E16E2150E3
:10180000000901E0D0D0FC0EDBCFE9FFFD0EDBCFFD
:10181000EAFF320EE926000EEA22E9CF1FF0EACFF6
:1018200020F0F80EDBCF3BF0F90EDBCF3CF0FA0EE8
:10183000DBCF3DF0FB0EDBCF3EF0D8903B363C36A5
:101840003D363E36406A020E416E426A436A2BECD8
:1018500070F01F5037241D6E205038201E6E040E6D
:101860001DC0DBFF050E1EC0DBFF040EDBCFE9FF52
:10187000050EDBCFEAFFEECF1DF0EFCF1EF01F6AA3
:10188000206A88D0F80EDBCF1DF0F90EDBCF1EF0FA
:10189000FA0EDBCF1FF0FB0EDBCF20F0070ED89047
:1018A00020321F321E321D32E806F9E1FC0EDBCF7A
:1018B000E9FFFD0EDBCFEAFF220EE926000EEA2249
:1018C000EE501D26EE501E22EE501F22EE5020221A
:1018D0001DC0E6FF1EC0E6FF1FC0E6FF20C0E6FFFA
:1018E000FC0EDBCFE6FFFD0EDBCFE6FF0BEC08F0D6
:1018F000216E060EE15C02E2E16AE552E16E2150E2
:10190000000951E1FC0EDBCFE9FFFD0EDBCFEAFF62
:10191000320EE926000EEA22E9CF1FF0EACF20F0CE
:10192000F80EDBCF3BF0F90EDBCF3CF0FA0EDBCF4D
:101930003DF0FB0EDBCF3EF0020ED8903B363C363E
:101940003D363E36E806F9E1406A020E416E426AD3
:10195000436A2BEC70F01F5037241D6E2050382046
:101960001E6E040E1DC0DBFF050E1EC0DBFF1D68D2
:101970001E681F680F0E206E040EDBCFE9FF050EF8
:10198000DBCFEAFFEE501D16EE501E16EE501F166E
:10199000EE5020161DC03BF01EC03CF01FC03DF0B5
:1019A00020C03EF004D03B683C683D683E68060EAF
:1019B000E15C02E2E16AE552E16EE552E5CFDAFF71
:1019C000E7CFD9FF1200D9CFE6FFDACFE6FFE1CFAC
:1019D000D9FFE2CFDAFFE652E652E652E652E6528D
:1019E000D950F80FE96EFF0EDA20EA6E020EEE5CB7
:1019F000000EEE58000EEE58000EEE581FE3F80EE3
:101A0000DBCF1DF0F90EDBCF1EF0FA0EDBCF1FF09F
:101A1000FB0EDBCF20F0FC0EDBCFE9FFFD0EDBCFB2
:101A2000EAFF160EE926000EEA22EE501D5CEE508B
:101A30001E58EE501F58EE50205806E3020EF36E6B
:101A4000040EF3CFDBFFBDD2FC0EDBCFE9FFFD0EB2
:101A5000DBCFEAFFEF50030A01E1F5D1010A01E112
:101A60006ED1030A01E09CD2F80EDBCFDEFFDBCFA4
:101A7000DDFFDECF1DF0DDCF1EF0010E0F0B05E008
:101A8000D8901E321D32E806FBE1D9CFE9FFDACF4C
:101A9000EAFF1D50EE261E50ED22DECF1DF0DDCFF9
:101AA0001EF0090E0F0B05E0D8901E321D32E8061D
:101AB000FBE11F6A206AFC0EDBCFE9FFFD0EDBCFE6
:101AC000EAFF220EE926000EEA22EE501D26EE5015
:101AD0001E22EE501F22EE5020221DC0E6FF1EC027
:101AE000E6FF1FC0E6FF20C0E6FFFC0EDBCFE6FFEF
:101AF000FD0EDBCFE6FF0BEC08F0216E060EE15C7D
:101B000002E2E16AE552E16E2150E76E040EE7CF92
:101B1000DBFFDB5001E049D2FC0EDBCFE9FFFD0E1D
:101B2000DBCFEAFF320EE926000EEA22DECF21F0FB
:101B3000DDCF22F00001010E2216E95021241D6E96
:101B4000EA5022201E6E020E1DC0DBFF030E1EC0D7
:101B5000DBFF010E1D6E1E6A1F6A206AD950F80F46
:101B6000E96EFF0EDA20EA6EEE501D16EE501E16DC
:101B7000EE501F16EE5020161D501E101F10201084
:101B80000EE0F40EDB38F00B216E020EDBCFE9FF26
:101B9000030EDBCFEAFFEF500F0B211002D0F40E43
:101BA000DB50E66E020EDBCFE9FF030EDBCFEAFF70
:101BB000E552E750EF6EDF2A010E01E3DB2AFC0E4F
:101BC000DBCFE9FFFD0EDBCFEAFF040EE926000EB6
:101BD000EA22010EEF6EDECF1DF0DDCF1EF0090E02
:101BE0000F0B05E0D8901E321D32E806FBE11F6A9C
:101BF000206AFC0EDBCFE9FFFD0EDBCFEAFF220EF1
:101C0000E926000EEA22EE501D26EE501E22EE506E
:101C10001F22EE5020221DC0E6FF1EC0E6FF1FC09F
:101C2000E6FF20C0E6FFFC0EDBCFE6FFFD0EDBCFBC
:101C3000E6FF0BEC08F0216E060EE15C02E2E16AC1
:101C4000E552E16E2150E76E040EE7CFDBFFDB507B
:101C500001E0ABD1FC0EDBCFE9FFFD0EDBCFEAFFED
:101C6000320EE926000EEA22DECF21F0DDCF22F08F
:101C7000010E2216E95021241D6EEA5022201E6E0C
:101C8000020E1DC0DBFF030E1EC0DBFF010E1D6E2A
:101C90001E6A1F6A206AD950F80FE96EFF0EDA201B
:101CA000EA6EEE501D16EE501E16EE501F16EE5048
:101CB00020161D501E101F10201016E0F40EDBCF52
:101CC00021F0F50EDBCF22F0F60EDBCF23F0F70E7E
:101CD000DBCF24F0040ED89024322332223221327A
:101CE000E806F9E1215020D0F40EDBCF26F0F50E06
:101CF000DBCF27F0F60EDBCF28F0F70EDBCF29F095
:101D0000080ED8902932283227322632E806F9E127
:101D10000F0E2614256E020EDBCFE9FF030EDBCF7C
:101D2000EAFFEF50F00B2510E66E020EDBCFE9FF65
:101D3000030EDBCFEAFFE552E750EF6E36D1F80E27
:101D4000DBCF1DF0F90EDBCF1EF0FA0EDBCF1FF05C
:101D5000FB0EDBCF20F0080ED89020321F321E324F
:101D60001D32E806F9E1FC0EDBCFE9FFFD0EDBCF0B
:101D7000EAFF220EE926000EEA22EE501D26EE5062
:101D80001E22EE501F22EE5020221DC0E6FF1EC074
:101D9000E6FF1FC0E6FF20C0E6FFFC0EDBCFE6FF3C
:101DA000FD0EDBCFE6FF0BEC08F0216E060EE15CCA
:101DB00002E2E16AE552E16E2150E76E040EE7CFE0
:101DC000DBFFDB5001E0F1D0FC0EDBCFE9FFFD0EC5
:101DD000DBCFEAFF320EE926000EEA22E9CF1FF040
:101DE000EACF20F0F80EDBCF3BF0F90EDBCF3CF072
:101DF000FA0EDBCF3DF0FB0EDBCF3EF0D8903B364A
:101E00003C363D363E36406A020E416E426A436AB7
:101E10002BEC70F01F5037241D6E205038201E6EA2
:101E2000020E1DC0DBFF030E1EC0DBFF020EDBCF68
:101E3000E9FF030EDBCFEAFFF40EDBCFEEFFF50E7A
:101E4000DBCFEDFFB2D0F80EDBCF1DF0F90EDBCF0C
:101E50001EF0FA0EDBCF1FF0FB0EDBCF20F0070EDB
:101E6000D89020321F321E321D32E806F9E1FC0EF6
:101E7000DBCFE9FFFD0EDBCFEAFF220EE926000EE5
:101E8000EA22EE501D26EE501E22EE501F22EE508A
:101E900020221DC0E6FF1EC0E6FF1FC0E6FF20C0D7
:101EA000E6FFFC0EDBCFE6FFFD0EDBCFE6FF0BEC23
:101EB00008F0216E060EE15C02E2E16AE552E16E95
:101EC0002150E76E040EE7CFDBFFDB506EE1FC0E26
:101ED000DBCFE9FFFD0EDBCFEAFF320EE926000E75
:101EE000EA22E9CF1FF0EACF20F0F80EDBCF3BF07B
:101EF000F90EDBCF3CF0FA0EDBCF3DF0FB0EDBCF73
:101F00003EF0020ED8903B363C363D363E36E80673
:101F1000F9E1406A020E416E426A436A2BEC70F0AE
:101F20001F5037241D6E205038201E6E020E1DC01B
:101F3000DBFF030E1EC0DBFF1D6A1E6A1F6AF00E68
:101F4000206E020EDBCFE9FF030EDBCFEAFFEE507F
:101F50001D16EE501E16EE501F16EE502016D950CC
:101F6000F40FE96EFF0EDA20EA6E1D50EE121E50DD
:101F7000EE121F50EE122050EE12020EDBCFE9FFE0
:101F8000030EDBCFEAFFF40EDBCFEEFFF50EDBCF67
:101F9000EEFFF60EDBCFEEFFF70EDBCFEEFF05D048
:101FA000020EF36E040EF3CFDBFFFC0EDBCFE9FF76
:101FB000FD0EDBCFEAFF040EE926000EEA22010E39
:101FC000EF6E040EDB501D6E050EE15C02E2E16A6D
:101FD000E552E16E1D50E552E5CFDAFFE7CFD9FFBC
:101FE0001200D9CFE6FFDACFE6FFE1CFD9FFE2CF8B
:101FF000DAFFE652E652E652E652E652D950F80FC0
:10200000E96EFF0EDA20EA6E020EEE5C000EEE586C
:10201000000EEE58000EEE5801E28BD0F80EDBCF2A
:102020001DF0F90EDBCF1EF0FA0EDBCF1FF0FB0E1A
:10203000DBCF20F0FC0EDBCFE9FFFD0EDBCFEAFFAC
:10204000160EE926000EEA22EE501D5CEE501E58D8
:10205000EE501F58EE5020586CE2DF6AF80EDBCFCE
:102060001DF0F90EDBCF1EF0FA0EDBCF1FF0FB0EDA
:10207000DBCF20F0FC0EDBCFE9FFFD0EDBCFEAFF6C
:10208000160EE926000EEA22EE501D5CEE501E5898
:10209000EE501F58EE50205801E3C9D0D950F80F28
:1020A000E96EFF0EDA20EA6EEECFE6FFEECFE6FF36
:1020B000EECFE6FFEFCFE6FFFC0EDBCFE6FFFD0E37
:1020C000DBCFE6FF6CEC0AF01D6E060EE15C02E26F
:1020D000E16AE552E16E1D50010E3BC0DBFF020ECE
:1020E0003CC0DBFF030E3DC0DBFF040E3EC0DBFF48
:1020F000010EDBCF1DF0020EDBCF1EF0030EDBCF97
:102100001FF0040EDBCF20F01D501E101F102010FA
:1021100001E18DD0D950010FE96E000EDA20EA6E90
:10212000010EEE1808E1EE5006E1EE5004E1EE502B
:1021300002E1020E13D0D950010FE96E000EDA2031
:10214000EA6EE868EE180CE1E868EE1809E1E86864
:10215000EE1806E1E868EE1803E1010EDF6E67D0C5
:10216000E66AE66AE66AE66AD950F80FE96EFF0E9B
:10217000DA20EA6EEECFE6FFEECFE6FFEECFE6FF27
:10218000EFCFE6FFFC0EDBCFE6FFFD0EDBCFE6FF79
:102190001ADC1D6E0A0EE15C02E2E16AE552E16EB4
:1021A0001D50DF6EDF5043E1FC0EDBCFE9FFFD0E7B
:1021B000DBCFEAFF0E0EE926000EEA22E868EE18F1
:1021C00008E1E868EE1805E1E868EE1802E1E86861
:1021D000EE181AE0FC0EDBCFE9FFFD0EDBCFEAFFC5
:1021E0000E0EE926000EEA22EE2AEE22EE22EE2262
:1021F000FC0EDBCFE9FFFD0EDBCFEAFF050EE92683
:10220000000EEA22010EEF6ED950010FE96E000EAA
:10221000DA20EA6EF80EEECFDBFFF90EEECFDBFF31
:10222000FA0EEECFDBFFFB0EEECFDBFF17D7DF5052
:102230001D6E050EE15C02E2E16AE552E16E1D50A1
:10224000E552E5CFDAFFE7CFD9FF1200D9CFE6FF9D
:10225000DACFE6FFE1CFD9FFE2CFDAFF0D0EE124BE
:1022600002E3E168E652E16EF80EDBCF1DF0F90EF5
:10227000DBCF1EF0FA0EDBCF1FF0FB0EDBCF20F022
:102280001D501E101F10201053E1FC0EDBCFE9FF84
:10229000FD0EDBCFEAFF0A0EE926000EEA22080E49
:1022A000EECFDBFF090EEECFDBFF0A0EEECFDBFF3A
:1022B0000B0EEECFDBFF080EDBCF1DF0090EDBCFE0
:1022C0001EF00A0EDBCF1FF00B0EDBCF20F01D50EF
:1022D0001E101F10201020E0080EDBCF21F0090E89
:1022E000DBCF22F00A0EDBCF23F00B0EDBCF24F086
:1022F000FC0EDBCFE9FFFD0EDBCFEAFF160EE92671
:10230000000EEA22EE50215CEE502258EE50235887
:10231000EE50245801E276D0010EF36E080EF3CF92
:10232000DBFF090EDB6A0A0EDB6A0B0EDB6A6AD082
:10233000D950F80FE96EFF0EDA20EA6EEECFE6FF15
:10234000EECFE6FFEECFE6FFEFCFE6FFFC0EDBCFF2
:10235000E6FFFD0EDBCFE6FF6CEC0AF01D6E060E0D
:10236000E15C02E2E16AE552E16E1D503BC0DEFF36
:102370003CC0DEFF3DC0DEFF3EC0DDFFDD52DD5272
:10238000D9CFE9FFDACFEAFF020EEE5C000EEE587D
:10239000000EEE58000EEE5803E2010E3B6E3CD1EB
:1023A000FC0EDBCFE9FFFD0EDBCFEAFF160EE926C0
:1023B000000EEA22EECF1DF0EECF1EF0EECF1FF0A2
:1023C000EFCF20F0D9CFE9FFDACFEAFF1D50EE5C66
:1023D0001E50EE581F50EE582050EE5801E2ECD03F
:1023E000D950F80FE96EFF0EDA20EA6E080EEECF34
:1023F000DBFF090EEECFDBFF0A0EEECFDBFF0B0E8D
:10240000EECFDBFFD950080FE96E000EDA20EA6E3E
:10241000040EEECFDBFF050EEECFDBFF060EEECF98
:10242000DBFF070EEECFDBFFD950040FE96E000E85
:10243000DA20EA6EEE2A000EEE22EE22EE22040EE2
:10244000DBCF1DF0050EDBCF1EF0060EDBCF1FF03D
:10245000070EDBCF20F0FC0EDBCFE9FFFD0EDBCF5C
:10246000EAFF160EE926000EEA22EE501D5CEE5041
:102470001E58EE501F58EE50205828E3020EF36EFF
:10248000040EF3CFDBFF050EDB6A060EDB6A070ED8
:10249000DB6A080EDBCF1DF0090EDBCF1EF00A0E43
:1024A000DBCF1FF00B0EDBCF20F0D950040FE96E0D
:1024B000000EDA20EA6EEE501D5CEE501E58EE5013
:1024C0001F58EE50205802E23B6AA6D0D950040FA4
:1024D000E96E000EDA20EA6EEECFE6FFEECFE6FF01
:1024E000EECFE6FFEFCFE6FFFC0EDBCFE6FFFD0E03
:1024F000DBCFE6FF6CEC0AF01D6E060EE15C02E23B
:10250000E16AE552E16E1D503BC0DEFF3CC0DEFFDC
:102510003DC0DEFF3EC0DDFFDD52DD52D9CFE9FF19
:10252000DACFEAFFEECF1DF0EECF1EF0EECF1FF0B8
:10253000EFCF20F01D501E101F10201020E1E66884
:10254000E668E6680F0EE66ED950040FE96E000EDD
:10255000DA20EA6EEECFE6FFEECFE6FFEECFE6FF43
:10256000EFCFE6FFFC0EDBCFE6FFFD0EDBCFE6FF95
:10257000E3EC0CF01D6E0A0EE15C54E251D0D9CFB1
:10258000E9FFDACFEAFFE868EE1808E1E868EE183C
:1025900005E1E868EE1802E1E868EE180DE0D9CF31
:1025A000E9FFDACFEAFF010EEE1811E1EE500FE17C
:1025B000EE500DE1EE500BE1DECF3BF0DECF3CF014
:1025C000DECF3DF0DDCF3EF0DD52DD52EBD0040E2C
:1025D000DBCF1DF0050EDBCF1EF0060EDBCF1FF0AC
:1025E000070EDBCF20F0D950080FE96E000EDA207D
:1025F000EA6E1D50EE1801E017D71E50EE1801E0EC
:1026000013D71F50EE1801E00FD72050EE1801E04D
:102610000BD701E009D73B6A3C6A3D6A3E6AC2D0EB
:10262000E16AE552E16E1D50E76E0C0EE7CFDBFF6D
:10263000DB5041E1F80EDBCF1DF0F90EDBCF1EF0D1
:10264000FA0EDBCF1FF0FB0EDBCF20F01D501E106B
:102650001F10201030E0D950040FE96E000EDA2070
:10266000EA6EEECFE6FFEECFE6FFEECFE6FFEFCF6E
:10267000E6FFD950F80FE96EFF0EDA20EA6EEECFD2
:10268000E6FFEECFE6FFEECFE6FFEFCFE6FFFC0E74
:10269000DBCFE6FFFD0EDBCFE6FFE3EC0CF01D6EBB
:1026A0000A0EE15C02E2E16AE552E16E1D50E76E5E
:1026B0000C0EE7CFDBFF0C0EDB5047E1FC0EDBCF4F
:1026C000E9FFFD0EDBCFEAFF0A0EE926000EEA2243
:1026D000040EDBCFEEFF050EDBCFEEFF060EDBCFE9
:1026E000EEFF070EDBCFEEFFFC0EDBCFE9FFFD0EAA
:1026F000DBCFEAFF0E0EE926000EEA22E868EE18AC
:1027000008E1E868EE1805E1E868EE1802E1E8681B
:10271000EE1834E0FC0EDBCFE9FFFD0EDBCFEAFF65
:102720000E0EE926000EEA22EE06EE5AEE5AEE5A98
:10273000FC0EDBCFE9FFFD0EDBCFEAFF050EE9263D
:10274000000EEA22010EEF6E19D00C0EDB0405E13B
:102750001D681E681F68206805D0010E1D6E1E6A68
:102760001F6A206A040E1DC0DBFF050E1EC0DBFFC2
:10277000060E1FC0DBFF070E20C0DBFF040EDBCF01
:102780001DF0050EDBCF1EF0060EDBCF1FF0070E8F
:10279000DBCF20F01DC03BF01EC03CF01FC03DF061
:1027A00020C03EF00D0EE15C02E2E16AE552E16E0E
:1027B000E552E5CFDAFFE7CFD9FF1200D9CFE6FF28
:1027C000DACFE6FFE1CFD9FFE2CFDAFF0A0EE1244C
:1027D00002E3E168E652E16EFC0EDBCFE9FFFD0E9D
:1027E000DBCFEAFF200EE926000EEA22EECF1DF035
:1027F000EFCF1EF0040E1D26000E1E22080E1DC077
:10280000DBFF090E1EC0DBFFFC0EDBCFE9FFFD0E78
:10281000DBCFEAFFEE50EFCFEAFFE96E020EE926CA
:10282000000EEA22EFCF1DF01E6A1F6A206AF80E22
:10283000DBCF3BF0F90EDBCF3CF0FA0EDBCF3DF007
:10284000FB0EDBCF3EF0406A020E416E426A436AE5
:102850002BEC70F01DC040F01EC041F01FC042F0D4
:1028600020C043F02BEC70F03BC0DEFF3CC0DEFF2D
:102870003DC0DEFF3EC0DDFFDD52DD52D950080F06
:10288000E96E000EDA20EA6EEECFF3FFEDCFF4FF33
:10289000040EEE26000EEF22F3CFE9FFF4CFEAFF9D
:1028A000040EEECFDBFF050EEECFDBFF060EEECF04
:1028B000DBFF070EEECFDBFF040EDBCF1DF0050EB6
:1028C000DBCF1EF0060EDBCF1FF0070EDBCF20F0B4
:1028D0001D501E101F10201005E13B6A3C6A3D6A26
:1028E0003E6A56D0040EDBCF1DF0050EDBCF1EF086
:1028F000060EDBCF1FF0070EDBCF20F0D9CFE9FFAC
:10290000DACFEAFF1D50EE5C1E50EE581F50EE5815
:102910002050EE581BE3D9CFE9FFDACFEAFF040ECF
:10292000DB50EE5E050EDB50EE5A060EDB50EE5A23
:10293000070EDB50EE5AD950080FE96E000EDA2070
:10294000EA6E040EEE26000EEF2298D7080EDBCFBB
:10295000E9FF090EDBCFEAFFEECF1DF0EECF1EF050
:10296000EECF1FF0EFCF20F0D9CFE9FFDACFEAFFAB
:10297000EE501D26EE501E22EE501F22EE50202259
:102980001DC03BF01EC03CF01FC03DF020C03EF01B
:102990000A0EE15C02E2E16AE552E16EE552E5CF42
:1029A000DAFFE7CFD9FF1200D9CFE6FFDACFE6FF93
:1029B000E1CFD9FFE2CFDAFF060EE12402E3E168BE
:1029C000E652E16EFC0EDBCFE9FFFD0EDBCFEAFF46
:1029D000040EE926000EEA22FA0EDBCFEEFFFB0E14
:1029E000DBCFEDFFFC0EDBCFE9FFFD0EDBCFEAFF17
:1029F000060EE926000EEA22EECFDFFF010EEECF33
:102A0000DBFF020EEECFDBFF030EEECFDBFFD9CFF5
:102A1000E9FFDACFEAFF010EEE1805E1EE5003E11F
:102A2000EE5001E1EE5001E164D1FC0EDBCFE9FF95
:102A3000FD0EDBCFEAFFEE50EFCFEAFFE96E160E98
:102A4000E926000EEA22EECF1DF0EECF1EF0EECF0B
:102A50001FF0EFCF20F0D9CFE9FFDACFEAFF1D500A
:102A6000EE5C1E50EE581F50EE582050EE5801E319
:102A700040D1D9CFE9FFDACFEAFFEECF1DF0EECF9C
:102A80001EF0EECF1FF0EFCF20F01D501E101F10D4
:102A9000201026E1FC0EDBCFE9FFFD0EDBCFEAFFC5
:102AA000EE50EFCFEAFFE96EEF50030819E1FC0E9C
:102AB000DBCFE9FFFD0EDBCFEAFFEE50EFCFEAFF01
:102AC000E96E260EE926000EEA22EECFDFFF010EA8
:102AD000EECFDBFF020EEECFDBFF030EEECFDBFF10
:102AE000D9CFE9FFDACFEAFFEECF1DF0EECF1EF02F
:102AF000EECF1FF0EFCF20F01D501E101F10201042
:102B00005AE1FC0EDBCFE9FFFD0EDBCFEAFF0A0E38
:102B1000E926000EEA22DFCFEEFF010EDBCFEEFF4B
:102B2000020EDBCFEEFF030EDBCFEEFFFA0EDBCFA4
:102B30001DF0FB0EDBCF1EF0FC0EDBCFE9FFFD0E20
:102B4000DBCFEAFFEE50EFCFEAFFE96E080EE92691
:102B5000000EEA22EECF1FF0EFCF20F01F501D5CD9
:102B600020501E5801E3C5D0FA0EDBCF1DF0FB0E3E
:102B7000DBCF1EF0040E0F0B05E0D8901E321D3285
:102B8000E806FBE11F6A206AFC0EDBCFE9FFFD0EC1
:102B9000DBCFEAFFEE50EFCFEAFFE96E260EE92623
:102BA000000EEA22EE501D26EE501E22EE501F228D
:102BB000EE50202216D1FC0EDBCFE9FFFD0EDBCF5D
:102BC000EAFFEE50EFCFEAFFE96E020EE926000EB3
:102BD000EA22EF501D6E1E6A100E3D6E3E6A1DC049
:102BE00042F01EC043F04FEC70F0040E3BC0DBFF20
:102BF000050E3CC0DBFFFA0EDBCF1DF0FB0EDBCF7A
:102C00001EF0040EDBCF1FF0050EDBCF20F01F50AF
:102C10001D5C20501E5801E27FD0D9CFE9FFDACFEA
:102C2000EAFFEECFE6FFEECFE6FFEECFE6FFEFCF17
:102C3000E6FFFC0EDBCFE9FFFD0EDBCFEAFFEECFB8
:102C4000E6FFEFCFE6FF6CEC0AF01D6E060EE15CCE
:102C500002E2E16AE552E16E1D503BC0DEFF3CC07E
:102C6000DEFF3DC0DEFF3EC0DDFFDD52DD52D9CFCD
:102C7000E9FFDACFEAFFE868EE180BE1E868EE1842
:102C800008E1E868EE1805E1E868EE1802E1010ED7
:102C9000EDD0D9CFE9FFDACFEAFF020EEE5C000EED
:102CA000EE58000EEE58000EEE5823E3FC0EDBCF7C
:102CB000E9FFFD0EDBCFEAFFEE50EFCFEAFFE96E52
:102CC000160EE926000EEA22EECF1DF0EECF1EF022
:102CD000EECF1FF0EFCF20F0D9CFE9FFDACFEAFF38
:102CE0001D50EE5C1E50EE581F50EE582050EE580E
:102CF00002E3020EBBD0040EDBCF1DF0050EDBCFCE
:102D00001EF0D950FA0FE96EFF0EDA20EA6E1D5060
:102D1000EE5E1E50ED5A6FD7FC0EDBCFE9FFFD0EC5
:102D2000DBCFEAFF0A0EE926000EEA22DFCFEEFF34
:102D3000010EDBCFEEFF020EDBCFEEFF030EDBCF8B
:102D4000EEFFFA0EDBCF22F0FB0EDBCF23F0040EFA
:102D50000F0B05E0D89023322232E806FBE1246A0B
:102D6000256A22C0E6FF23C0E6FF24C0E6FF25C097
:102D7000E6FFD9CFE9FFDACFEAFFEECFE6FFEECFED
:102D8000E6FFEECFE6FFEFCFE6FFFC0EDBCFE9FF7D
:102D9000FD0EDBCFEAFFEECFE6FFEFCFE6FFDCEC88
:102DA00009F0216E060EE15C02E2E16AE552E16E95
:102DB0002150E552E7CF25F0E552E7CF24F0E55268
:102DC000E7CF23F0E552E7CF22F03B5022241D6EDF
:102DD0003C5023201E6E3D5024201F6E3E50252067
:102DE000206EFC0EDBCFE9FFFD0EDBCFEAFF0E0EFF
:102DF000E926000EEA221DC0EEFF1EC0EEFF1FC036
:102E0000EEFF20C0EEFFFC0EDBCFE9FFFD0EDBCFB7
:102E1000EAFFEE50EFCFEAFFE96E320EE926000E30
:102E2000EA22E9CF1FF0EACF20F0FA0EDBCF21F043
:102E3000FB0E226A0F0E2116050ED890213622367F
:102E4000E806FBE11F5021241D6E205022201E6E3B
:102E5000FC0EDBCFE9FFFD0EDBCFEAFF120EE92609
:102E6000000EEA221DC0EEFF1EC0EDFF1D6E060E15
:102E7000E15C02E2E16AE552E16E1D50E552E5CF08
:102E8000DAFFE7CFD9FF1200D9CFE6FFDACFE6FFAE
:102E9000E1CFD9FFE2CFDAFF070EE12402E3E168D8
:102EA000E652E16EFA0EDBCF3DF0FB0EDBCF3EF0DB
:102EB000FA0E3DC0DBFFFB0E3EC0DBFFFC0EDBCF9E
:102EC000E9FFFD0EDBCFEAFF040EE926000EEA2241
:102ED000EECF1DF0EFCF1EF0010E1D26000E1E22BC
:102EE000040E1DC0DBFF050E1EC0DBFFD950040F12
:102EF000E96E000EDA20EA6EEE50ED1001E109D124
:102F0000FC0EDBCFE9FFFD0EDBCFEAFF0E0EE9265C
:102F1000000EEA22EECF1DF0EECF1EF0EECF1FF036
:102F2000EFCF20F01D501E101F10201001E1F1D036
:102F3000040EDBCF1DF0050E1E6A0F0E1D161D5070
:102F40001E1001E078D2FC0EDBCFE9FFFD0EDBCFD7
:102F5000EAFF0E0EE926000EEA22EE2AEE22EE220B
:102F6000EE22FC0EDBCFE9FFFD0EDBCFEAFF0A0EFF
:102F7000E926000EEA22EECF1DF0EECF1EF0EECFD6
:102F80001FF0EFCF20F01D501E101F1020101FE16A
:102F9000040EDBCF1DF0050EDBCF1EF0FC0EDBCFE9
:102FA000E9FFFD0EDBCFEAFFEE50EFCFEAFFE96E5F
:102FB000080EE926000EEA22EECF1FF0EFCF20F038
:102FC0001F501D5C20501E5801E235D2A2D0040EC5
:102FD000DBCF1FF0050EDBCF20F0040E0F0B05E05A
:102FE000D89020321F32E806FBE1FC0EDBCFE9FF70
:102FF000FD0EDBCFEAFFEE50EFCFEAFFE96E020EE7
:10300000E926000EEA22EF0400011F141D6E1E6A5D
:10301000E8501E1001E00FD2FC0EDBCFE9FFFD0EE1
:10302000DBCFEAFF0A0EE926000EEA22EECFE6FF2A
:10303000EECFE6FFEECFE6FFEFCFE6FFFC0EDBCFF5
:10304000E9FFFD0EDBCFEAFFEECFE6FFEFCFE6FFB5
:103050006CEC0AF01D6E060EE15C02E2E16AE552DC
:10306000E16E1D503BC0DEFF3CC0DEFF3DC0DEFF19
:103070003EC0DDFFDD52DD52D9CFE9FFDACFEAFFF6
:10308000D880010EEE54000EEE54000EEE54000EE9
:10309000EE5401E390D0D9CFE9FFDACFEAFFE86838
:1030A000EE180AE1E868EE1807E1E868EE1804E1B6
:1030B000E868EE1801E13FD1FC0EDBCFE9FFFD0E21
:1030C000DBCFEAFFEE50EFCFEAFFE96E160EE926FE
:1030D000000EEA22EECF1DF0EECF1EF0EECF1FF075
:1030E000EFCF20F0D9CFE9FFDACFEAFF1D50EE5C39
:1030F0001E50EE581F50EE582050EE5801E24ED1AF
:10310000D950FA0FE96EFF0EDA20EA6EEE50ED109C
:1031100002E1040ED3D1FC0EDBCFE9FFFD0EDBCFC5
:10312000EAFF0A0EE926000EEA22EECFE6FFEECF16
:10313000E6FFEECFE6FFEFCFE6FFFC0EDBCFE9FFC9
:10314000FD0EDBCFEAFFEECFE6FFEFCFE6FF26EC8A
:1031500011F01D6E060EE15C02E2E16AE552E16EDD
:103160001D503BC0DEFF3CC0DEFF3DC0DEFF3EC069
:10317000DDFFDD52DD52D9CFE9FFDACFEAFFEECF36
:103180001DF0EECF1EF0EECF1FF0EFCF20F01D5060
:103190001E101F10201002E1070E90D1D9CFE9FFB9
:1031A000DACFEAFF010EEE1808E1EE5006E1EE502C
:1031B00004E1EE5002E1020E81D1D9CFE9FFDACF6E
:1031C000EAFFE868EE180AE1E868EE1807E1E86847
:1031D000EE1804E1E868EE1801E1ADD0FC0EDBCF9B
:1031E000E9FFFD0EDBCFEAFFEECFE6FFEFCFE6FF14
:1031F000C3EC06F0E552E552000901E09CD0E66A16
:10320000020EE66E000EE66EE66AFC0EDBCFE9FF0C
:10321000FD0EDBCFEAFFEE50EFCFEAFFE96E320E94
:10322000E926000EEA22E9CF1DF0EACF1EF0E9CF31
:10323000E6FFEACFE6FFEEEC05F01F6E060EE15C5E
:1032400002E2E16AE552E16E1F50D9CFE9FFDACF21
:10325000EAFFEECFE6FFEECFE6FFEECFE6FFEFCFE1
:10326000E6FFFC0EDBCFE9FFFD0EDBCFEAFFEECF82
:10327000E6FFEFCFE6FFDCEC09F0216E060EE15C25
:1032800002E2E16AE552E16E21503BC01DF03CC014
:103290001EF03DC01FF03EC020F0FC0EDBCFE9FF6A
:1032A000FD0EDBCFEAFFEE50EFCFEAFFE96E2E0E08
:1032B000E926000EEA223BC0EEFF1EC0EEFF1FC053
:1032C000EEFF20C0EEFF060EDB6AFC0EDBCFE9FF4F
:1032D000FD0EDBCFEAFFEE50EFCFEAFFE96E020E04
:1032E000E926000EEA22EF50F36E060EDBCFF4FF64
:1032F000F350F45C37E2FC0EDBCFE9FFFD0EDBCFD1
:10330000EAFFEE50EFCFEAFFE96E040EE926000E69
:10331000EA22010EEF6EFC0EDBCFE9FFFD0EDBCFE4
:10332000EAFFEECFE6FFEFCFE6FFC3EC06F0E55293
:10333000E552000902E0010EC1D0FC0EDBCFE9FF2F
:10334000FD0EDBCFEAFFEE50EFCFEAFFE96E2E0E67
:10335000E926000EEA22EE2AEE22EE22EE22060EE8
:10336000DB2AB3D7060EDBCF1DF01E6A1F6A206A68
:10337000FC0EDBCFE9FFFD0EDBCFEAFFEE50EFCF17
:10338000EAFFE96E2E0EE926000EEA221D50EE5EDF
:103390001E50EE5A1F50EE5A2050EE5AFC0EDBCF54
:1033A000E9FFFD0EDBCFEAFF0A0EE926000EEA2256
:1033B000DFCFEEFF010EDBCFEEFF020EDBCFEEFF25
:1033C000030EDBCFEEFFD9CFE9FFDACFEAFFEECF76
:1033D000E6FFEECFE6FFEECFE6FFEFCFE6FFFC0E17
:1033E000DBCFE9FFFD0EDBCFEAFFEECFE6FFEFCF4D
:1033F000E6FFDCEC09F0216E060EE15C02E2E16A18
:10340000E552E16E21503CC01EF03DC01FF03EC0B1
:1034100020F0FC0EDBCFE9FFFD0EDBCFEAFF0E0E46
:10342000E926000EEA223BC0EEFF1EC0EEFF1FC0E1
:10343000EEFF20C0EEFFFC0EDBCFE9FFFD0EDBCF81
:10344000EAFF040EE926000EEA22040EDBCFEEFFAF
:10345000050EDBCFEDFFFC0EDBCFE9FFFD0EDBCF72
:10346000EAFFEE50EFCFEAFFE96E320EE926000EDA
:10347000EA22E9CF1FF0EACF20F0040EDBCF21F0E3
:10348000050E226A0F0E2116050ED890213622361F
:10349000E806FBE11F5021241D6E205022201E6EE5
:1034A000FC0EDBCFE9FFFD0EDBCFEAFF120EE926B3
:1034B000000EEA221DC0EEFF1EC0EDFF1D6E070EBE
:1034C000E15C02E2E16AE552E16E1D50E552E5CFB2
:1034D000DAFFE7CFD9FF1200D9CFE6FFDACFE6FF58
:1034E000E1CFD9FFE2CFDAFFE652E652E652000E14
:1034F000E66EE66AFC0EDBCFE6FFFD0EDBCFE6FFF5
:10350000D4EC14F0E552E552E552E552DF6EDF509F
:1035100075E1010EDB6A020EDB6AFC0EDBCFE9FF10
:10352000FD0EDBCFEAFF0E0EE926000EEA22EECFFB
:10353000E6FFEECFE6FFEECFE6FFEFCFE6FFFC0EB5
:10354000DBCFE9FFFD0EDBCFEAFFEECFE6FFEFCFEB
:10355000E6FF0BEC08F01D6E060EE15C02E2E16A8C
:10356000E552E16E1D50DF6EDF5048E1FC0EDBCF0F
:10357000E9FFFD0EDBCFEAFF120EE926000EEA227C
:10358000EE50EFCFEAFFE96EEF50E50810E0FC0ED9
:10359000DBCFE9FFFD0EDBCFEAFF120EE926000EBE
:1035A000EA22EE50EFCFEAFFE96EEF5012E1010E92
:1035B000DB2ADBCF1DF0020E01E3DB2ADBCF1EF09E
:1035C000FA0EDB501D1809E1FB0EDB501E1805E159
:1035D00015D0010EDB6A020EDB6A010EE66EE66AAA
:1035E000FC0EDBCFE6FFFD0EDBCFE6FF4DDCE55248
:1035F000E552E552E552DF6EDF508FE0040EDF5CEE
:1036000002E1070EDF6EDF50E552E552E552E5526A
:10361000E5CFDAFFE7CFD9FF1200D9CFE6FFDACF47
:10362000E6FFE1CFD9FFE2CFDAFFE652E652E652FB
:10363000E6521A0EE76EFA0EDBCFE9FFFB0EDBCF88
:10364000EAFFE750E926000EEA22EECF1DF0EFCFA9
:103650001EF01DC0DFFF010E1EC0DBFF020EDB6A85
:10366000030EDB6AFC0EDBCFE9FFFD0EDBCFEAFFCA
:10367000EF50030826E1140EE76EFA0EDBCFE9FFE8
:10368000FB0EDBCFEAFFE750E926000EEA22EECF81
:103690001DF0EFCF1EF01F6A206A100E1F0B07E00F
:1036A000D8901D361E361F362036E806F9E11D502B
:1036B000DE121E50DE121F50DE122050DD12DD52CF
:1036C000DD52DECF3BF0DECF3CF0DECF3DF0DDCF94
:1036D0003EF0DD52DD52040EE15C02E2E16AE552A9
:1036E000E16EE552E5CFDAFFE7CFD9FF1200D9CF7F
:1036F000E6FFDACFE6FFE1CFD9FFE2CFDAFF1A0E1D
:10370000E76EFC0EDBCFE9FFFD0EDBCFEAFFE750F3
:10371000E926000EEA22F80EDBCFEEFFF90EDBCF32
:10372000EDFFF80EDBCF1DF0F90EDBCF1EF0FA0E29
:10373000DBCF1FF0FB0EDBCF20F0100ED890203235
:103740001F321E321D32E806F9E1140EE76EFC0E40
:10375000DBCFE9FFFD0EDBCFEAFFE750E926000EE5
:10376000EA221DC0EEFF1EC0EDFFE552E5CFDAFFF5
:10377000E7CFD9FF1200D9CFE6FFDACFE6FFE1CFDE
:10378000D9FFE2CFDAFFE652E652E652E652000EE9
:10379000E66EE66AFC0EDBCFE6FFFD0EDBCFE6FF52
:1037A000D4EC14F0E552E552E552E552DF6EDF50FD
:1037B00002E0DF5092D0FC0EDBCFE9FFFD0EDBCF45
:1037C000EAFF0E0EE926000EEA22EECFE6FFEECF6C
:1037D000E6FFEECFE6FFEFCFE6FFFC0EDBCFE9FF23
:1037E000FD0EDBCFEAFFEECFE6FFEFCFE6FF0BECFF
:1037F00008F01D6E060EE15C02E2E16AE552E16E40
:103800001D50DF6EDF5068E1FC0EDBCFE9FFFD0EDF
:10381000DBCFEAFF120EE926000EEA22020EEECFFF
:10382000DBFF030EEDCFDBFF020EDBCFE9FF030E64
:10383000DBCFEAFF010EEFCFDBFFDB5003E1040E2D
:10384000DF6E4AD00B0EE76E020EDBCFE9FF030EF0
:10385000DBCFEAFFE750E926000EEA22EF50080B23
:1038600028E10B0EE66EE66AFC0EDBCFE9FFFD0EEB
:10387000DBCFEAFF140EE926000EEA22EECFE6FFC8
:10388000EFCFE6FF020EDBCFE6FF030EDBCFE6FF56
:103890001DEC06F01F6E060EE15C02E2E16AE552E5
:1038A000E16E1F50F3CF1DF0F4CF1EF0F350F41073
:1038B00013E0000EE66EE66AFC0EDBCFE6FFFD0EBF
:1038C000DBCFE6FF44EC17F0E552E552E552E55256
:1038D000DF6EDF5001E16FD7DF501D6E040EE15C3B
:1038E00002E2E16AE552E16E1D50E552E5CFDAFFF2
:1038F000E7CFD9FF1200D9CFE6FFDACFE6FFE1CF5D
:10390000D9FFE2CFDAFFE652E652E652E652E6523D
:10391000040EDF6EFC0EDBCFE9FFFD0EDBCFEAFF0E
:103920000E0EE926000EEA22EECF1DF0EECF1EF0BD
:10393000EECF1FF0EFCF20F01D501E101F102010F3
:1039400001E18BD0FC0EDBCFE9FFFD0EDBCFEAFF00
:103950000E0EE926000EEA22EECFE6FFEECFE6FFDE
:10396000EECFE6FFEFCFE6FFFC0EDBCFE9FFFD0E6B
:10397000DBCFEAFFEECFE6FFEFCFE6FF0BEC08F080
:103980001D6E060EE15C02E2E16AE552E16E1D5039
:10399000DF6EDF5062E1FC0EDBCFE9FFFD0EDBCF17
:1039A000EAFF120EE926000EEA22030EEECFDBFF3D
:1039B000040EEDCFDBFF030EDBCFE9FF040EDBCF00
:1039C000EAFF020EEFCFDBFFDB5003E1040EDF6EF8
:1039D00044D00B0EE76E030EDBCFE9FF040EDBCF06
:1039E000EAFFE750E926000EEA22EF503F0BE76EB0
:1039F000010EE7CFDBFF020EDB50E5081BE0020EF5
:103A0000DB502E0817E0010EDB500F0813E0010E0B
:103A1000DB50080802E0000E01D0010E1D6E1E6A88
:103A20001DBE1E68FA0EDB501D1804E1FB0EDB50B4
:103A30001E1813E0000EE66EE66AFC0EDBCFE6FF12
:103A4000FD0EDBCFE6FF44EC17F0E552E552E55200
:103A5000E552DF6EDF5001E15DD7DF500EE0FC0E76
:103A6000DBCFE9FFFD0EDBCFEAFF0E0EE926000EED
:103A7000EA22EE6AEE6AEE6AEE6ADF501D6E050E0D
:103A8000E15C02E2E16AE552E16E1D50E552E5CFEC
:103A9000DAFFE7CFD9FF1200D9CFE6FFDACFE6FF92
:103AA000E1CFD9FFE2CFDAFFE652010EE66EE66A19
:103AB000FC0EDBCFE6FFFD0EDBCFE6FF0DDDE552B2
:103AC000E552E552E552DF6EDF5001E080D0FC0E9A
:103AD000DBCFE9FFFD0EDBCFEAFF0E0EE926000E7D
:103AE000EA22EECFE6FFEECFE6FFEECFE6FFEFCF26
:103AF000E6FFFC0EDBCFE9FFFD0EDBCFEAFFEECFEA
:103B0000E6FFEFCFE6FF0BEC08F01D6E060EE15C62
:103B100002E2E16AE552E16E1D50DF6EDF5057E1CF
:103B2000200EE66EE66A000EE66EE66AFC0EDBCF5D
:103B3000E9FFFD0EDBCFEAFF120EE926000EEA22B6
:103B4000EECFE6FFEFCFE6FFEEEC05F01D6E060EC2
:103B5000E15C02E2E16AE552E16E1D500B0EE66E99
:103B6000E66AFC0EDBCFE9FFFD0EDBCFEAFF140EA9
:103B7000E926000EEA22EECFE6FFEFCFE6FFFC0ECD
:103B8000DBCFE9FFFD0EDBCFEAFF120EE926000EC8
:103B9000EA22EECFE6FFEFCFE6FF6CEC05F01D6EFC
:103BA000060EE15C02E2E16AE552E16E1D50FC0E98
:103BB000DBCFE9FFFD0EDBCFEAFFEE50EFCFEAFFF0
:103BC000E96E040EE926000EEA22010EEF6EDF50C8
:103BD000E552E552E5CFDAFFE7CFD9FF1200D9CFA2
:103BE000E6FFDACFE6FFE1CFD9FFE2CFDAFF0D0E35
:103BF000E12402E3E168E652E16EFA0EDBCFE9FF71
:103C0000FB0EDBCFEAFF0B0EEECFDBFF0C0EEDCF92
:103C1000DBFF0B0EDBCFE9FF0C0EDBCFEAFFEF5033
:103C20002F0809E00B0EDBCFE9FF0C0EDBCFEAFF1C
:103C3000EF505C0806E10B0EDB2A0C0EEAE3DB2AF0
:103C4000E8D7FC0EDBCFE9FFFD0EDBCFEAFF140E59
:103C5000E926000EEA22030EEECFDBFF040EEDCFC5
:103C6000DBFF0B0EE66EE66A200EE66EE66A030EDA
:103C7000DBCFE6FF040EDBCFE6FFEEEC05F01D6EBA
:103C8000060EE15C02E2E16AE552E16E1D50000EB3
:103C9000DF6EE66ED950090FE96E000EDA20EA6E8B
:103CA000E552E750EE6EED6AE66ED950070FE96E09
:103CB000000EDA20EA6EE552E750EE6EED6A080E6D
:103CC000F36E050EF3CFDBFF060EDB6A070EDBCFCC
:103CD0001DF0DB2A080EDBCF1EF001E3DB2A0B0E02
:103CE000DB501D24E96E0C0EDB501E20EA6E010E27
:103CF000EFCFDBFFDB50200801E39CD0010EDB504F
:103D00002F0801E197D0010EDB505C0801E192D051
:103D1000010EDB502E0811E0090EDBCF1DF00A0E5C
:103D2000DBCF1EF0050EDBCF1FF0060EDBCF20F041
:103D30001F501D5C20501E5825E3D950050FE96E19
:103D4000000EDA20EA6E080EEE1801E09FD0ED506A
:103D500001E09CD0010EDB502E0801E097D0080E48
:103D6000F36E090EF3CFDBFF0A0EDB6A0B0EF36E68
:103D7000050EF3CFDBFF060EDB6A040EDF02F3CF86
:103D8000DFFFA4D7800EF36E010EDBCFF4FFF350FC
:103D9000F45C04E3000EDF80DF8278D0010EDBCF1D
:103DA000E6FFE66A3C0EE66EE10EE66E82EC06F099
:103DB000E552E552E552E552F350F41067E1410E49
:103DC000F36E010EDBCFF4FFF350F45C06E3010E5B
:103DD000DB505A0802E3DF8218D0610EF36E010E49
:103DE000DBCFF4FFF350F45C10E3010EDB507A08F4
:103DF0000CE3000EDF80200E1D6E010EDBCFE7FF0F
:103E00001D50E75E010EE7CFDBFF090EDBCF1DF093
:103E1000DB2A0A0EDBCF1EF001E3DB2A030EDB50A8
:103E20001D24E96E040EDB501E20EA6E010EDBCF6E
:103E3000EFFF4CD7070EDBCF1FF0080EDBCF20F0D3
:103E40000B0EDB501F241D6E0C0EDB5020201E6E4F
:103E5000FA0EDBCFE9FFFB0EDBCFEAFF1DC0EEFF62
:103E60001EC0EDFF010EDB50200802E3040E01D05E
:103E7000000EE76E010EE7CFDBFFD950090FE96EA8
:103E8000000EDA20EA6EEE50ED1002E1060E3CD094
:103E9000030EDBCFE9FF040EDBCFEAFFEF50E508AE
:103EA00008E1030EDBCFE9FF040EDBCFEAFF050ECE
:103EB000EF6ED950050FE96E000EDA20EA6E080E9B
:103EC000EE1806E1ED5004E1040EDF02F3CFDFFF50
:103ED000030EDF14010802E1010EDB880C0EDF1473
:103EE000040802E1010EDB860B0EE76E030EDBCF4A
:103EF000E9FF040EDBCFEAFFE750E926000EEA22D5
:103F0000010EDBCFEFFF000E1D6E0D0EE15C02E235
:103F1000E16AE552E16E1D50E552E5CFDAFFE7CFE9
:103F2000D9FF1200D9CFE6FFDACFE6FFE1CFD9FF04
:103F3000E2CFDAFF080EE12402E3E168E652E16E27
:103F4000FA0EDBCFE9FFFB0EDBCFEAFF090EE92615
:103F5000000EEA22050EE9CFDBFF060EEACFDBFFFB
:103F6000FC0EDBCFE9FFFD0EDBCFEAFF0E0EE926EC
:103F7000000EEA22EECF1DF0EECF1EF0EECF1FF0C6
:103F8000EFCF20F01D501E101F10201001E118D19E
:103F9000FC0EDBCFE9FFFD0EDBCFEAFF120EE926B8
:103FA000000EEA22030EEECFDBFF040EEDCFDBFFA7
:103FB0000C0EE76E030EDBCFE9FF040EDBCFEAFF4A
:103FC000E750E926000EEA22020EEFCFDBFFDE6AA1
:103FD000DD6ADECF1DF0DDCF1EF0080E1D5C000E89
:103FE0001E582CE2030EDBCF1DF0040EDBCF1EF0BB
:103FF000DE501D24E96EDD501E20EA6E070EEFCF65
:10400000DBFFDB5020081AE0070EDB50050805E156
:10401000E50EF36E070EF3CFDBFF050EDBCFE9FFF6
:10402000DB2A060EDBCFEAFF01E3DB2A070EDBCF3C
:10403000EFFFDF2A010ECDE3DB2ACBD7080EE76EB8
:10404000030EDBCFE9FF040EDBCFEAFFE750E926E2
:10405000000EEA22EF5020083AE0050EDBCFE9FF20
:10406000DB2A060EDBCFEAFF01E3DB2A2E0EEF6E22
:10407000080EDE6EDD6ADECF1DF0DDCF1EF00B0E0A
:104080001D5C000E1E5823E2030EDBCF1DF0040E54
:10409000DBCF1EF0DE501D24E96EDD501E20EA6EDF
:1040A000070EEFCFDBFFDB50200811E0050EDBCF62
:1040B000E9FFDB2A060EDBCFEAFF01E3DB2A070E6E
:1040C000DBCFEFFFDF2A010ED6E3DB2AD4D70B0EBE
:1040D000E76E030EDBCFE9FF040EDBCFEAFFE7500C
:1040E000E926000EEA22EF50E66EFA0EDBCFE9FF7A
:1040F000FB0EDBCFEAFF080EE926000EEA22E552AE
:10410000E750EF6E1C0EE76E030EDBCFE9FF040EE7
:10411000DBCFEAFFE750E926000EEA22EECF1DF0E2
:10412000EECF1EF0EECF1FF0EFCF20F0FA0EDBCF78
:10413000E9FFFB0EDBCFEAFF1DC0EEFF1EC0EEFF66
:104140001FC0EEFF20C0EEFF180EE76E030EDBCFA0
:10415000E9FF040EDBCFEAFFE750E926000EEA2272
:10416000EECF1DF0EFCF1EF0FA0EDBCFE9FFFB0E16
:10417000DBCFEAFF040EE926000EEA221DC0EEFFA7
:104180001EC0EDFF160EE76E030EDBCFE9FF040E37
:10419000DBCFEAFFE750E926000EEA22EECF1DF062
:1041A000EFCF1EF0FA0EDBCFE9FFFB0EDBCFEAFF0D
:1041B000060EE926000EEA221DC0EEFF1EC0EDFF2E
:1041C000050EDBCFE9FF060EDBCFEAFFEF6A080E34
:1041D000E15C02E2E16AE552E16EE552E5CFDAFF29
:1041E000E7CFD9FF1200D9CFE6FFDACFE6FFE1CF64
:1041F000D9FFE2CFDAFFE652E652E652E652FA0E75
:10420000DBCFE9FFFB0EDBCFEAFFEF502F0809E021
:10421000FA0EDBCFE9FFFB0EDBCFEAFFEF505C08C5
:1042200005E1FA0EDB2AFB0E01E3DB2AFC0EDBCFF5
:10423000E9FFFD0EDBCFEAFF060EE926000EEA22BB
:10424000EE6AEE6AEE6AEE6AFA0EDBCFE9FFFB0E6B
:10425000DBCFEAFFEFCF1DF01E6A1DBE1E68200EE9
:104260001D5C000E1E581BE2000EE66EE66AFC0E98
:10427000DBCFE6FFFD0EDBCFE6FFD4EC14F0E5521A
:10428000E552E552E552DF6EFC0EDBCFE9FFFD0E95
:10429000DBCFEAFF120EEB6A130EEB6A94D0D95013
:1042A000FA0FE66EFF0EDA20E66EFC0EDBCFE6FFBD
:1042B000FD0EDBCFE6FF93DCE552E552E552E55219
:1042C000DF6EDF5001E07FD0FC0EDBCFE6FFFD0E9E
:1042D000DBCFE6FFBBEC1BF0E552E552DF6EFC0ED8
:1042E000DBCFE9FFFD0EDBCFEAFF140EE926000E5F
:1042F000EA22EE50EFCFEAFFE96E0B0EE926000E40
:10430000EA22030EEFCFDBFFDF5007E0040EDF5C95
:104310005AE1030EDBB457D022D0030EDBB453D0E6
:10432000FC0EDBCFE9FFFD0EDBCFEAFF120EE92624
:10433000000EEA22010EEECFDBFF020EEDCFDBFF17
:104340000B0EE76E010EDBCFE9FF020EDBCFEAFFBB
:10435000E750E926000EEA22EF50100B03E1050EAC
:10436000DF6E31D0010EDBCFE6FF020EDBCFE6FFC2
:10437000FC0EDBCFE9FFFD0EDBCFEAFFEECFE6FF61
:10438000EFCFE6FF0DEC1BF0E552E552E552E552AA
:104390003BC01DF03CC01EF03DC01FF03EC020F0F1
:1043A000FC0EDBCFE9FFFD0EDBCFEAFF060EE926B0
:1043B000000EEA223BC0EEFF1EC0EEFF1FC0EEFF64
:1043C00020C0EEFF6CD7DF501D6E040EE15C02E2F0
:1043D000E16AE552E16E1D50E552E5CFDAFFE7CF25
:1043E000D9FF1200D9CFE6FFDACFE6FFE1CFD9FF40
:1043F000E2CFDAFF010EE66ED950F80FE96EFF0E3C
:10440000DA20EA6EEECFE6FFEECFE6FFEECFE6FF74
:10441000EFCFE6FFFC0EDBCFE9FFFD0EDBCFEAFFBF
:10442000320EE926000EEA22E9CF1DF0EACF1EF097
:10443000E9CFE6FFEACFE6FFFC0EDBCFE9FFFD0E9A
:10444000DBCFEAFFEE52EF50E66EF5EC5DF01F6E4B
:10445000080EE15C02E2E16AE552E16E1F500009DC
:1044600002E0030E63D0FC0EDBCFE9FFFD0EDBCFD5
:10447000EAFF320EE926000EEA22FE0EE926010EC0
:10448000EA22550EEE1802E1AA0EED1802E0020E25
:104490004DD01D681E681F68206AFC0EDBCFE9FF47
:1044A000FD0EDBCFEAFF320EE926000EEA22360EC1
:1044B000E926000EEA22EE501D16EE501E16EE50B2
:1044C0001F16EE502016460E1D1808E1410E1E184C
:1044D00005E1540E1F1802E1205025E01D681E68FA
:1044E0001F68206AFC0EDBCFE9FFFD0EDBCFEAFF81
:1044F000320EE926000EEA22520EE926000EEA22CA
:10450000EE501D16EE501E16EE501F16EE502016E1
:10451000460E1D180AE1410E1E1807E1540E1F1821
:1045200004E1205002E1000E01D0010EE552E5CF7A
:10453000DAFFE7CFD9FF1200D9CFE6FFDACFE6FFE7
:10454000E1CFD9FFE2CFDAFF260EE12402E3E168F2
:10455000E652E16EFC0EDBCFE9FFFD0EDBCFEAFF9A
:10456000220EEECFDBFF230EEDCFDBFF220EDBCFE3
:10457000E9FF230EDBCFEAFFEF50D00FE66ED950F4
:10458000050FE96E000EDA20EA6EE552E750EE6E96
:10459000ED6AD950050FE96E000EDA20EA6E090EB9
:1045A000D880EE54000EED5426E3010EE76E220E85
:1045B000DBCFE9FF230EDBCFEAFFE750E926000E51
:1045C000EA22EF503A0817E1D950220FE96E000EA7
:1045D000DA20EA6E020EEE26000EED22FC0EDBCF94
:1045E000E9FFFD0EDBCFEAFF220EDBCFEEFF230E4D
:1045F000DBCFEDFF04D0050EDB6A060EDB6AFA0E98
:10460000DBCFE9FFFB0EDBCFEAFFEE6AED6A050EBA
:10461000DBCF1DF0060EDBCF1EF0010E1D5C000E81
:104620001E5803E30B0EC1EF29F0050EDBCFE9FFA7
:10463000060EDBCFEAFF010ED890E936EA36E8062F
:10464000FBE1C60EE926000EEA22240EEECFDBFFC8
:10465000250EEDCFDBFFD950240FE96E000EDA20D6
:10466000EA6EEE50ED1003E10C0EC1EF29F0FA0EE8
:10467000DBCFE9FFFB0EDBCFEAFF240EDBCFEEFF43
:10468000250EDBCFEDFF240EDBCFE9FF250EDBCFC0
:10469000EAFFEF501CE0240EDBCFE9FF250EDBCF55
:1046A000EAFFEE52EF50E66EE0EC5DF0E552E76EA9
:1046B000070EE7CFDBFFDBB00AD0F90EDB5004E0DA
:1046C000070EDB50040B30E1000EC1EF29F0240E81
:1046D000DBCFE9FF250EDBCFEAFFEF6A240EDBCF4D
:1046E000E9FF250EDBCFEAFFEE52050EDBCFEFFF31
:1046F000240EDBCFE9FF250EDBCFEAFFEE52EF50B1
:10470000E66E9FEC5CF0E552E76E070EE7CFDBFF4D
:10471000DBA003D0030EC1EF29F0F90EDB5007E058
:10472000070EDB50040B03E00A0EC1EF29F0080E60
:10473000DB6A090EDB6A0A0EDB6A0B0EDB6AE66ACD
:10474000E66AE66AE66A240EDBCFE6FF250EDBCFDB
:10475000E6FF48DE1D6E060EE15C02E2E16AE5520C
:10476000E16E1D50DF6EDF046CE1020EDB6ADB5090
:1047700002E0020EDB06240EDBCFE9FF250EDBCFC5
:10478000EAFF320EE926000EEA22E9CF1FF0EACF57
:1047900020F0020EDB50100DF350226ABE0F216E86
:1047A000010E2222E95021241D6EEA5022201E6EA5
:1047B000030E1DC0DBFF040E1EC0DBFFE76E030E01
:1047C000DBCFE9FF040EDBCFEAFFE750E926000E5E
:1047D000EA22EF5036E0080EE76E030EDBCFE9FF6A
:1047E000040EDBCFEAFFE750E926000EEA22080EAE
:1047F000EECFDBFF090EEECFDBFF0A0EEECFDBFFC5
:104800000B0EEECFDBFFD950080FE96E000EDA2059
:10481000EA6EEECFE6FFEECFE6FFEECFE6FFEFCF9C
:10482000E6FF240EDBCFE6FF250EDBCFE6FFDADD69
:104830001D6E060EE15C02E2E16AE552E16E1D507A
:10484000DF6E030EDF5C03E1010EC1EF29F0DF50E4
:1048500002E05BEF28F0240EDBCFE9FF250EDBCF73
:10486000EAFF320EE926000EEA220B0EE926000EC0
:10487000EA22EE5002E05BEF28F0020EED1802E0B3
:104880005BEF28F0240EDBCFE9FF250EDBCFEAFF3C
:10489000320EE926000EEA22160EE926000EEA2262
:1048A000EECF1DF0EFCF1EF00C0E1DC0DBFF0D0E86
:1048B0001EC0DBFF0E0EDB6A0F0EDB6A0C0EDBCFB9
:1048C0001DF00D0EDBCF1EF00E0EDBCF1FF00F0E16
:1048D000DBCF20F01D501E101F1020101AE1240EF7
:1048E000DBCFE9FF250EDBCFEAFF320EE926000E13
:1048F000EA22240EE926000EEA220C0EEECFDBFFA0
:104900000D0EEECFDBFF0E0EEECFDBFF0F0EEECF68
:10491000DBFF240EDBCFE9FF250EDBCFEAFF1A0E0B
:10492000E926000EEA220C0EDBCFEEFF0D0EDBCFE8
:10493000EEFF0E0EDBCFEEFF0F0EDBCFEEFF240EF1
:10494000DBCFE9FF250EDBCFEAFF320EE926000EB2
:10495000EA22100EE926000EEA22010EEFCFDBFF5D
:10496000240EDBCFE9FF250EDBCFEAFF030EE9269D
:10497000000EEA22010EDBCFEFFFDB0405E0010EA3
:10498000DB50020801E097D3010EDBCF1DF01E6A59
:104990001F6A206AD9500C0FE96E000EDA20EA6E09
:1049A0001DC040F01EC041F01FC042F020C043F0C7
:1049B000EECF3BF0EECF3CF0EECF3DF0EFCF3EF050
:1049C000CEEC6FF03AC0EDFF39C0EDFF38C0EDFF1F
:1049D00037C0EFFF240EDBCFE9FF250EDBCFEAFF68
:1049E000320EE926000EEA220D0EE926000EEA221A
:1049F000010EEFCFDBFF240EDBCFE9FF250EDBCF6F
:104A0000EAFF020EE926000EEA22010EDBCFEFFFDD
:104A1000DB5001E150D3010EDBCFE6FFDB04E552B2
:104A2000E71401E048D3240EDBCFE9FF250EDBCFEE
:104A3000EAFF320EE926000EEA22110EE926000EE8
:104A4000EA22EECF1DF0EFCF1EF0240EDBCFE9FF00
:104A5000250EDBCFEAFF080EE926000EEA221DC074
:104A6000EEFF1EC0EDFF240EDBCFE9FF250EDBCFEE
:104A7000EAFF080EE926000EEA22EECF1DF0000143
:104A80001E6A0F0E1D161D501E1001E014D3240EB9
:104A9000DBCFE9FF250EDBCFEAFF320EE926000E61
:104AA000EA22130EE926000EEA22EECF1DF0EFCF28
:104AB0001EF0100E1DC0DBFF110E1EC0DBFF120E1C
:104AC000DB6A130EDB6A100EDBCF1DF0110EDBCF9D
:104AD0001EF0120EDBCF1FF0130EDBCF20F01D50A7
:104AE0001E101F1020101AE1240EDBCFE9FF250E47
:104AF000DBCFEAFF320EE926000EEA22200EE9267D
:104B0000000EEA22100EEECFDBFF110EEECFDBFF20
:104B1000120EEECFDBFF130EEECFDBFF240EDBCF4A
:104B2000E9FF250EDBCFEAFF320EE926000EEA226E
:104B30000E0EE926000EEA22200EEECFDBFF210E3C
:104B4000EDCFDBFFD950200FE96E000EDA20EA6EC0
:104B5000EE50ED1001E1AFD2200EDBCF21F0210E9F
:104B6000DBCF22F0236A246AD9500C0FE96E000EC5
:104B7000DA20EA6E2150EE241D6E2250EE201E6EC9
:104B80002350EE201F6E2450EE20206E240EDBCF2B
:104B9000E9FF250EDBCFEAFF080EE926000EEA2228
:104BA000EECF25F0EFCF26F0040E0F0B05E0D890E6
:104BB00026322532E806FBE1276A286A25501D26A1
:104BC00026501E2227501F2228502022140E1DC0BE
:104BD000DBFF150E1EC0DBFF160E1FC0DBFF170E1E
:104BE00020C0DBFF140EDBCF1DF0150EDBCF1EF057
:104BF000160EDBCF1FF0170EDBCF20F0D950100FB1
:104C0000E96E000EDA20EA6E1D50EE5C1E50EE5882
:104C10001F50EE582050EE5801E24DD2240EDBCF4B
:104C2000E9FF250EDBCFEAFF020EE926000EEA229D
:104C3000EFCF25F0266A276A286A100EDBCF21F015
:104C4000110EDBCF22F0120EDBCF23F0130EDBCFE1
:104C500024F0D950140FE96E000EDA20EA6EEE50FF
:104C6000215C1D6EEE5022581E6EEE5023581F6EB2
:104C7000EE502458206E1DC03BF01EC03CF01FC0FB
:104C80003DF03E6E25C040F026C041F027C042F006
:104C900028C043F02BEC70F0180E3BC0DBFF190E60
:104CA0003CC0DBFF1A0E3DC0DBFF1B0E3EC0DBFF2E
:104CB000180EDBCF1DF0190EDBCF1EF01A0EDBCF66
:104CC0001FF01B0EDBCF20F01D501E101F102010F8
:104CD00001E1F1D1010EDF6ED950180FE96E000E1F
:104CE000DA20EA6EF60EEE5C0F0EEE58000EEE586D
:104CF000000EEE5802E3020EDF6ED950180FE96E77
:104D0000000EDA20EA6EF60EEE5CFF0EEE58000E94
:104D1000EE58000EEE5802E3030EDF6E020E1D6E1B
:104D20001E6A1F6A206AD950180FE96E000EDA2039
:104D3000EA6EEE501D26EE501E22EE501F22EE505F
:104D40002022240EDBCFE9FF250EDBCFEAFF160E73
:104D5000E926000EEA221DC0EEFF1EC0EEFF1FC0B6
:104D6000EEFF20C0EEFF240EDBCFE9FF250EDBCFE8
:104D7000EAFF1E0EE926000EEA22080EDBCFEEFF48
:104D8000090EDBCFEEFF0A0EDBCFEEFF0B0EDBCF03
:104D9000EEFF200EDBCF1DF0210EDBCF1EF01F6AD1
:104DA000206AD950080FE96E000EDA20EA6EEE5044
:104DB0001D26EE501E22EE501F22EE502022240E01
:104DC000DBCFE9FF250EDBCFEAFF220EE926000E3E
:104DD000EA221DC0EEFF1EC0EEFF1FC0EEFF20C086
:104DE000EEFF140EDBCF1DF0150EDBCF1EF0160EFE
:104DF000DBCF1FF0170EDBCF20F0D950080FE96E84
:104E0000000EDA20EA6EEE501D26EE501E22EE5005
:104E10001F22EE502022240EDBCFE9FF250EDBCF30
:104E2000EAFF2A0EE926000EEA221DC0EEFF1EC090
:104E3000EEFF1FC0EEFF20C0EEFF030EDF5C5CE163
:104E4000240EDBCFE9FF250EDBCFEAFF080EE926B3
:104E5000000EEA22EE50ED1001E02DD1240EDBCF42
:104E6000E9FF250EDBCFEAFF320EE926000EEA222B
:104E70002C0EE926000EEA22EECF1DF0EECF1EF03A
:104E8000EECF1FF0EFCF20F0240EDBCFE9FF250E91
:104E9000DBCFEAFF260EE926000EEA221DC0EEFF58
:104EA0001EC0EEFF1FC0EEFF20C0EEFF240EDBCFC2
:104EB000E9FF250EDBCFEAFF160EE926000EEA22F7
:104EC000EECF3BF0EECF3CF0EECF3DF0EFCF3EF03B
:104ED000040E406E416A426A436ACEEC6FF01C0ECB
:104EE00037C0DBFF1D0E38C0DBFF1E0E39C0DBFFF5
:104EF0001F0E3AC0DBFFB1D0240EDBCFE9FF250E39
:104F0000DBCFEAFF080EE926000EEA22EE50ED1094
:104F100001E1D1D00C0EDBCF1DF00D0EDBCF1EF06A
:104F20000E0EDBCF1FF00F0EDBCF20F0240EDBCFF9
:104F3000E9FF250EDBCFEAFF220EE926000EEA226A
:104F4000EE501D26EE501E22EE501F22EE50202263
:104F5000240EDBCFE9FF250EDBCFEAFF260EE92684
:104F6000000EEA221DC0EEFF1EC0EEFF1FC0EEFFC6
:104F700020C0EEFF020EDF5C18E1240EDBCFE9FF5C
:104F8000250EDBCFEAFF160EE926000EEA22EECF51
:104F90001DF0EECF1EF0EECF1FF0EFCF20F0D89037
:104FA0001D361E361F3620364CD0010E216E226A69
:104FB000236A246A240EDBCFE9FF250EDBCFEAFF4C
:104FC000160EE926000EEA22EE502116EE502216A9
:104FD000EE502316EE502416240EDBCFE9FF250EEB
:104FE000DBCFEAFF160EE926000EEA22EECF3BF0F9
:104FF000EECF3CF0EECF3DF0EFCF3EF0030E406E33
:10500000416A426A436ACEEC6FF037C03BF038C069
:105010003CF039C03DF03AC03EF0020E406E416AAD
:10502000426A436A2BEC70F03B50000121241D6E54
:105030003C5022201E6E3D5023201F6E3E502420E7
:10504000206E1C0E1DC0DBFF1D0E1EC0DBFF1E0EE2
:105050001FC0DBFF1F0E20C0DBFF1C0EDBCF1DF0CF
:105060001D0EDBCF1EF01E0EDBCF1FF01F0EDBCFA1
:1050700020F0FF0E1D26010E1E22000E1F222022F0
:10508000090ED89020321F321E321D32E806F9E197
:10509000240EDBCFE9FF250EDBCFEAFF1A0EE9264F
:1050A000000EEA221D50EE5C1E50EE581F50EE58C6
:1050B0002050EE5802E20D0E64D1240EDBCFE9FF42
:1050C000250EDBCFEAFF0E0EE926000EEA22EE687F
:1050D000EE68EE68EE68240EDBCFE9FF250EDBCF2D
:1050E000EAFF0A0EE926000EEA22EE6AEE6AEE6A8E
:1050F000EE6A030EDF5C01E011D1240EDBCFE9FF85
:10510000250EDBCFEAFF050EE926000EEA22EF6A44
:10511000240EDBCFE9FF250EDBCFEAFF320EE926B6
:10512000000EEA22300EE926000EEA22EECF1DF034
:10513000EFCF1EF01F6A206AD950080FE96E000EEB
:10514000DA20EA6EEE501D26EE501E22EE501F228F
:10515000EE502022240EDBCFE9FF250EDBCFEAFF45
:10516000120EE926000EEA221DC0EEFF1EC0EEFF61
:105170001FC0EEFF20C0EEFF010EE66E240EDBCF57
:10518000E9FF250EDBCFEAFF120EE926000EEA2228
:10519000EECFE6FFEECFE6FFEECFE6FFEFCFE6FF86
:1051A000240EDBCFE9FF250EDBCFEAFF320EE92626
:1051B000000EEA22E9CF1DF0EACF1EF0E9CFE6FFAC
:1051C000EACFE6FF240EDBCFE9FF250EDBCFEAFFB7
:1051D000EE52EF50E66EF5EC5DF01F6E080EE15CEE
:1051E00002E2E16AE552E16E1F50000901E096D04B
:1051F000240EDBCFE9FF250EDBCFEAFF320EE926D6
:10520000000EEA22FE0EE926010EEA22550EEE18E5
:1052100001E084D0AA0EED1801E080D0240EDBCF8F
:10522000E9FF250EDBCFEAFF320EE926000EEA2267
:10523000520EEE1873E1520EEE1870E1610EEE1888
:105240006DE1410EEE186AE1240EDBCFE9FF250E79
:10525000DBCFEAFF320EE926000EEA22E40EE92651
:10526000010EEA22720EEE1859E1720EEE1856E1A6
:10527000410EEE1853E1610EEE1850E1240EDBCF23
:10528000E9FF250EDBCFEAFF320EE926000EEA2207
:10529000EC0EE926010EEA22EECF1DF0EECF1EF055
:1052A000EECF1FF0EFCF20F0240EDBCFE9FF250E6D
:1052B000DBCFEAFF0A0EE926000EEA221DC0EEFF50
:1052C0001EC0EEFF1FC0EEFF20C0EEFF240EDBCF9E
:1052D000E9FF250EDBCFEAFF320EE926000EEA22B7
:1052E000E80EE926010EEA22EECF1DF0EECF1EF009
:1052F000EECF1FF0EFCF20F0240EDBCFE9FF250E1D
:10530000DBCFEAFF0E0EE926000EEA221DC0EEFFFB
:105310001EC0EEFF1FC0EEFF20C0EEFF240EDBCF4D
:10532000E9FF250EDBCFEAFFDFCFEFFF0001C82B3F
:10533000000EC923240EDBCFE9FF250EDBCFEAFFE9
:10534000060EE926000EEA22C8C0EEFFC9C0EDFF36
:10535000240EDBCFE9FF250EDBCFEAFF2E0EE92678
:10536000000EEA22EE6AEE6AEE6AEE6A240EDBCFE7
:10537000E9FF250EDBCFEAFF040EE926000EEA2244
:10538000EF6A1D6E260EE15C02E2E16AE552E16E13
:105390001D50E552E5CFDAFFE7CFD9FF1200D9CF94
:1053A000E6FFDACFE6FFE1CFD9FFE2CFDAFFE65240
:1053B000E652FC0EDBCFDEFFDBCFDDFFD9CFE9FF0E
:1053C000DACFEAFFEE50ED1033E0DECFE9FFDDCFBC
:1053D000EAFFEE50ED102CE0DECFE9FFDDCFEAFF73
:1053E000EE50EFCFEAFFE96EEF5022E0DECFE9FFAB
:1053F000DDCFEAFFEE50EFCFEAFFE96E060EE926B9
:10540000000EEA22EECF1DF0EFCF1EF0DECFE9FF57
:10541000DDCFEAFF020EE926000EEA22EECF1FF0F2
:10542000EFCF20F01F501D1802E120501E1802E09F
:10543000090E13D0DECFE9FFDDCFEAFFEE50EFCF4C
:10544000EAFFE96EEE52EF50E66EE0EC5DF0E552F9
:10545000010B02E0030E01D0000EE552E552E552C9
:10546000E5CFDAFFE7CFD9FF1200D9CFE6FFDACFD9
:10547000E6FFE1CFD9FFE2CFDAFFE652E652010EB6
:10548000F36EFD0EDBCFF4FFF350F45C02E30B0E82
:105490003BD0FD0EEA6ADB34FE0BEA36E96EC60E3F
:1054A000E926000EEA22EECFDEFFEDCFDDFFD9CFF9
:1054B000E9FFDACFEAFFEE50ED1005E0DECFE9FFBD
:1054C000DDCFEAFFEF6AD950FB0FE96EFF0EDA205D
:1054D000EA6EEE50ED1007E0FB0EDBCFE9FFFC0EAD
:1054E000DBCFEAFFEF6AFD0EEA6ADB34FE0BEA3639
:1054F000E96EC60EE926000EEA22FB0EDBCFEEFFB8
:10550000FC0EDBCFEDFF000EE552E552E552E5CF94
:10551000DAFFE7CFD9FF1200D9CFE6FFDACFE6FFF7
:10552000E1CFD9FFE2CFDAFF2D0EE12402E3E168FB
:10553000E652E16ED950FC0FE96EFF0EDA20EA6EFA
:10554000EE50ED1002E1090EBFD2FC0EDBCFE9FFF9
:10555000FD0EDBCFEAFFEE6AED6AF90EDB9ADB9C0B
:10556000DB9EDB50FE0BE66ED950010FE66E000E9F
:10557000DA20E66ED950FA0FE66EFF0EDA20E66EFC
:105580009CEC22F01D6E050EE15C02E2E16AE55240
:10559000E16E1D50DF6EDF5001E095D2D950190F3A
:1055A0001D6E000EDA201E6E150E1DC0DBFF160EDE
:1055B0001EC0DBFFFA0EDBCFE6FFFB0EDBCFE6FF04
:1055C000D950010FE66E000EDA20E66EF3EC20F003
:1055D000E552E552E552E552DF6E130EDBCF3DF0AA
:1055E000140EDBCF3EF0170E3DC0DBFF180E3EC0A1
:1055F000DBFFDF500BE1D950170FE96E000EDA2008
:10560000EA6EEE50ED1002E1060EDF6EF90EDB5091
:105610001C0B01E149D1DF501DE0040EDF5C0BE102
:10562000D950010FE66E000EDA20E66E4CEC1DF04C
:10563000E552E552DF6EF90EDB86130EDBCF3DF04F
:10564000140EDBCF3EF0170E3DC0DBFF180E3EC040
:10565000DBFF16D00B0EE76E170EDBCFE9FF180E3F
:10566000DBCFEAFFE750E926000EEA22EF50110BEC
:1056700002E0070E04D0F90EDBA402D0080EDF6EA4
:10568000DF5001E039D1F90EDB50080B01E134D1D4
:105690007AEC68F0250E3BC0DBFF260E3CC0DBFF3A
:1056A000270E3DC0DBFF280E3EC0DBFF0E0EE76E6F
:1056B000170EDBCFE9FF180EDBCFEAFFE750E92634
:1056C000000EEA22250EDBCFEEFF260EDBCFEEFF2B
:1056D000270EDBCFEEFF280EDBCFEEFF0B0EE76EC3
:1056E000170EDBCFE9FF180EDBCFEAFFE750E92604
:1056F000000EEA22EF6A1C0EE76E170EDBCFE9FF01
:10570000180EDBCFEAFFE750E926000EEA22EE6A28
:10571000EE6AEE6AEE6A170EDBCFE6FF180EDBCFFD
:10572000E6FF010EDBCFE6FF020EDBCFE6FF0DEC5E
:105730001BF0E552E552E552E552290E3BC0DBFF76
:105740002A0E3CC0DBFF2B0E3DC0DBFF2C0E3EC003
:10575000DBFFE66AE66AE66AE66A170EDBCFE6FF7B
:10576000180EDBCFE6FF77EC1BF01D6E060EE15C3A
:1057700002E2E16AE552E16E1D50010EDBCFE9FF66
:10578000020EDBCFEAFF040EE926000EEA22010E2C
:10579000EF6E290EDBCF1DF02A0EDBCF1EF02B0E95
:1057A000DBCF1FF02C0EDBCF20F01D501E101F1082
:1057B000201001E1A1D0010EDBCFE9FF020EDBCF0B
:1057C000EAFF2E0EE926000EEA22250EEECFDBFFC1
:1057D000260EEECFDBFF270EEECFDBFF280EEECF3F
:1057E000DBFFD950290FE96E000EDA20EA6EEECF0A
:1057F000E6FFEECFE6FFEECFE6FFEFCFE6FF010ECE
:10580000DBCFE6FF020EDBCFE6FFF1EC0FF01D6E03
:10581000060EE15C02E2E16AE552E16E1D50DF6EC8
:10582000DF506AE1290EDBCF1DF02A0EDBCF1EF020
:105830002B0EDBCF1FF02C0EDBCF20F01D06000E51
:105840001E5A1F5A205A010EDBCFE9FF020EDBCF92
:10585000EAFF0A0EE926000EEA221DC0EEFF1EC076
:10586000EEFF1FC0EEFF20C0EEFFD950250FE96EFE
:10587000000EDA20EA6EEECFE6FFEECFE6FFEECFC7
:10588000E6FFEFCFE6FF010EDBCFE6FF020EDBCF38
:10589000E6FF0BEC08F01D6E060EE15C02E2E16A29
:1058A000E552E16E1D5027D0DF5026E10B0EE76E6A
:1058B000170EDBCFE9FF180EDBCFEAFFE750E92632
:1058C000000EEA22EF50100B02E0040E14D0F90E85
:1058D000DB50020B11E00B0EE76E170EDBCFE9FF7A
:1058E000180EDBCFEAFFE750E926000EEA22EF5060
:1058F000010B02E0070EDF6EDF5037E1F90EDBB679
:10590000DB8A010EDBCFE9FF020EDBCFEAFF2E0EB2
:10591000E926000EEA22EECF1DF0EECF1EF0EECF0C
:105920001FF0EFCF20F0FC0EDBCFE9FFFD0EDBCF49
:10593000EAFF1A0EE926000EEA221DC0EEFF1EC085
:10594000EEFF1FC0EEFF20C0EEFFFC0EDBCFE9FF35
:10595000FD0EDBCFEAFF1E0EE926000EEA22170E2F
:10596000DBCFEEFF180EDBCFEDFFDF5001E0ABD059
:10597000FC0EDBCFE9FFFD0EDBCFEAFF040EE926CC
:10598000000EEA22F90EDBCFEFFF170EDBCFE6FFAA
:10599000180EDBCFE6FF010EDBCFE6FF020EDBCFFA
:1059A000E6FF0DEC1BF0E552E552E552E5523CC036
:1059B0001EF03DC01FF03EC020F0FC0EDBCFE9FF23
:1059C000FD0EDBCFEAFF0E0EE926000EEA223BC0F9
:1059D000EEFF1EC0EEFF1FC0EEFF20C0EEFF1C0E4C
:1059E000E76E170EDBCFE9FF180EDBCFEAFFE750BB
:1059F000E926000EEA22EECF1DF0EECF1EF0EECF2C
:105A00001FF0EFCF20F0FC0EDBCFE9FFFD0EDBCF68
:105A1000EAFF0A0EE926000EEA221DC0EEFF1EC0B4
:105A2000EEFF1FC0EEFF20C0EEFFFC0EDBCFE9FF54
:105A3000FD0EDBCFEAFF060EE926000EEA22EE6A33
:105A4000EE6AEE6AEE6AFC0EDBCFE9FFFD0EDBCFFD
:105A5000EAFF160EE926000EEA22EE6AEE6AEE6A08
:105A6000EE6AFC0EDBCFE9FFFD0EDBCFEAFF200E76
:105A7000EB6A210EEB6AFC0EDBCFE9FFFD0EDBCFFC
:105A8000EAFF010EDBCFEEFF020EDBCFEDFF010ED2
:105A9000DBCFE9FF020EDBCFEAFF060EE926000EA0
:105AA000EA22EECF1DF0EFCF1EF0FC0EDBCFE9FFB8
:105AB000FD0EDBCFEAFF020EE926000EEA221DC032
:105AC000EEFF1EC0EDFFDF501D6E2D0EE15C02E209
:105AD000E16AE552E16E1D50E552E5CFDAFFE7CF0E
:105AE000D9FF1200D9CFE6FFDACFE6FFE1CFD9FF29
:105AF000E2CFDAFF140EE12402E3E168E652E16E40
:105B0000FA0EDBCF3DF0FB0EDBCF3EF0120E3DC0B8
:105B1000DBFF130E3EC0DBFFF60EDBCFE9FFF70E17
:105B2000DBCFEAFFEE6AED6AFC0EDBCFE6FFFD0E8F
:105B3000DBCFE6FF34DCE552E552DF6EDF5003E0F9
:105B4000DF50FFEF31F0FC0EDBCFE9FFFD0EDBCFC6
:105B5000EAFF040EE926000EEA22EF50800B01E076
:105B6000D6D1FC0EDBCFE9FFFD0EDBCFEAFF040E42
:105B7000E926000EEA22EF50010B03E1070EFFEFCA
:105B800031F0FC0EDBCFE9FFFD0EDBCFEAFF0A0EA2
:105B9000E926000EEA22EECF21F0EECF22F0EECF82
:105BA00023F0EFCF24F0FC0EDBCFE9FFFD0EDBCFBF
:105BB000EAFF060EE926000EEA22EE50215C1D6E79
:105BC000EE5022581E6EEE5023581F6EEE50245891
:105BD000206E090E1DC0DBFF0A0E1EC0DBFF0B0E80
:105BE0001FC0DBFF0C0E20C0DBFFF80EDBCF1DF06B
:105BF000F90EDBCF1EF01F6A206AD950090FE96E3B
:105C0000000EDA20EA6E1D50EE5C1E50EE581F505A
:105C1000EE582050EE580CE2090EDBCF3DF00A0E94
:105C2000DBCF3EF0F80E3DC0DBFFF90E3EC0DBFFE0
:105C3000D950F80FE96EFF0EDA20EA6EEE50ED1043
:105C400001E1DCD3FC0EDBCFE9FFFD0EDBCFEAFF89
:105C5000060EE926000EEA22EECF1DF0EECF1EF072
:105C6000010E1E161F6A206A1D501E101F102010E4
:105C700001E0C1D2FC0EDBCFE9FFFD0EDBCFEAFF76
:105C8000060EE926000EEA22EECF1DF0EECF1EF042
:105C9000EECF1FF0EFCF20F0090ED89020321F3248
:105CA0001E321D32E806F9E1FC0EDBCFE9FFFD0EE6
:105CB000DBCFEAFFEE50EFCFEAFFE96E020EE926F6
:105CC000000EEA22EF04216E226A236A246AE85059
:105CD0001D1622501E1623501F1624502016110E7A
:105CE0001DC0DBFFDB5001E0C4D0FC0EDBCFE9FFC1
:105CF000FD0EDBCFEAFF060EE926000EEA22EECF0C
:105D00001DF0EECF1EF0EECF1FF0EFCF20F01D50B4
:105D10001E101F10201017E1FC0EDBCFE9FFFD0E57
:105D2000DBCFEAFF0E0EE926000EEA22010EEECFCF
:105D3000DBFF020EEECFDBFF030EEECFDBFF040E28
:105D4000EECFDBFF5ED0FC0EDBCFE9FFFD0EDBCF3D
:105D5000EAFF200EE926000EEA22EE50ED101FE0C9
:105D6000FC0EDBCFE9FFFD0EDBCFEAFF060EE926D6
:105D7000000EEA22EECFE6FFEECFE6FFEECFE6FF23
:105D8000EFCFE6FFFC0EDBCFE6FFFD0EDBCFE6FF3D
:105D9000DEEC13F01D6E060EE15C25E222D0FC0E57
:105DA000DBCFE9FFFD0EDBCFEAFF120EE926000E86
:105DB000EA22EECFE6FFEECFE6FFEECFE6FFEFCF33
:105DC000E6FFFC0EDBCFE9FFFD0EDBCFEAFFEECFF7
:105DD000E6FFEFCFE6FF6CEC0AF01D6E060EE15C0D
:105DE00002E2E16AE552E16E1D50010E3BC0DBFFAD
:105DF000020E3CC0DBFF030E3DC0DBFF040E3EC0C5
:105E0000DBFFD950010FE96E000EDA20EA6E020EB8
:105E1000EE5C000EEE58000EEE58000EEE586CE3ED
:105E2000D950010FE96E000EDA20EA6EE868EE182C
:105E30000AE1E868EE1807E1E868EE1804E1E868AE
:105E4000EE1801E139D2FC0EDBCFE9FFFD0EDBCF0E
:105E5000EAFF120EE926000EEA22010EDBCFEEFF6A
:105E6000020EDBCFEEFF030EDBCFEEFF040EDBCF27
:105E7000EEFFFC0EDBCFE9FFFD0EDBCFEAFF120EDB
:105E8000E926000EEA22EECFE6FFEECFE6FFEECFE8
:105E9000E6FFEFCFE6FFFC0EDBCFE9FFFD0EDBCF29
:105EA000EAFFEECFE6FFEFCFE6FFDCEC09F01D6E78
:105EB000060EE15C02E2E16AE552E16E1D50050E5C
:105EC0003BC0DBFF060E3CC0DBFF070E3DC0DBFF27
:105ED000080E3EC0DBFF050EDBCF1DF0060EDBCF4C
:105EE0001EF0070EDBCF1FF0080EDBCF20F01D5099
:105EF0001E101F1020100DE1FC0EDBCFE9FFFD0E80
:105F0000DBCFEAFF040EE926000EEA22EF8E020E36
:105F100076D2110EDBCF1DF01E6A1F6A206AD9509F
:105F2000050FE96E000EDA20EA6E1D50EE261E50B7
:105F3000EE221F50EE222050EE221D6A020E1E6E2F
:105F4000F80EDBCF3DF0F90EDBCF3EF01DC042F086
